S0210000020E030C0C07DE080000000002A1278193B6E8232D08416172647661726BC6
S31508000000000C0020F99C0208799102087B910208ED
S31508000010859102088F9102089F910208000000004E
S31508000020000000000000000000000000B99102086E
S31508000030BB91020800000000BD9102085D0202089B
S31508000040790402086D9E02086D9E02086D9E0208DC
S315080000506D9E02086D9E0208BB0202086D9E02088C
S315080000606D9E02086D9E0208D102020837B7000885
S315080000706D9E02086D9E02086D9E02086D9E02081E
S315080000806D9E02086D9E0208B70202086D9E020860
S315080000906D9E02086D9E02086D9E0208E702020820
S315080000A06D9E02086D9E02086D9E02086D9E0208EE
S315080000B09B0202086D9E0208AF02020803030208AB
S315080000C0090302080F030208150302086D9E0208B9
S315080000D041710208BDF60108DDF601086D9E0208A9
S315080000E0010302086D9E02086D9E02086D9E0208B5
S315080000F06D9E02086D9E02086D9E02086D9E02089E
S315080001006D9E02086D9E02086D9E02086D9E02088D
S315080001106D9E02086D9E02086D9E02086D9E02087D
S315080001206D9E02086D9E02086D9E02086D9E02086D
S3150800013080B5DFF8080C0021017002F07FFCDC2195
S31508000140DFF8FC0BBDE8044029F080BE2DE9F84332
S315080001500C461546042D33D36678A778DFF8DC8B72
S31508000160012088F80000A7F11009012E04D0022EFC
S3150800017035D0032E67D020E0052D04D20420009048
S315080001800023002215E0062D03D204200090002348
S315080001900EE02946204600F0DDF8032805D1702F29
S315080001A010D12946E01C22F0E1FA30B10090E3783C
S315080001B03A46FE21304609F029FE002088F800005C
S315080001C0BDE8F183B9F1300FF0D22946E01CDFF81B
S315080001D0742B02EB870252F8402C9047E5E7052D71
S315080001E0CCD3062DD1D32946204600F047F803285C
S315080001F0DBD1702F10D1072D06D1072301222179D3
S31508000200E0780AF020FFD0E7062D02BF0623012278
S31508000210FE21F5D00420C9E7B9F1300FC6D2DFF8C0
S31508000220280B00EB870C072D07D10723012221791C
S31508000230E0785CF8405CA847B7E7062DEAD10623C4
S315080002400122FE21F4E7052D05D2042000F0B0F9BD
S3150800025000210320AFE747B1132F06DA08EB870022
S315080002604268DFF8E81A8A4204D1032000F0A0F9B0
S315080002703946A0E72946E01C904796E738B5024676
S315080002800B4603249578D078072B2CBF1179FF21CC
S31508000290112D08D0122D2AD0212D4BD0232D4DD02B
S315080002A0702D4FD054E00024062B41D101280CD0E4
S315080002B003280DD004280BD0052816D0062807D009
S315080002C0082805D0FF2806D00FE001F013F93FE013
S315080002D009F0C4FD3BE001F044F90094FF23112224
S315080002E0FE21022009F092FD32E0032430E0062BBD
S315080002F001D0072B1CD1C01E062829D8DFE800F03C
S3150800030004070A0D2810130001F03DF91FE001F05B
S3150800031061F91CE001F086F919E001F0ACFA16E083
S3150800032001F0EDFB13E0022912D101F06EFD0EE09B
S3150800033004240DE0012200F0EAF908E0012200F0A9
S315080003409EFA04E000931346012200F0DBFF044600
S31508000350204632BD38B503228378122B08D0212BCC
S315080003605CD0232B5DD0362B5ED0702B5FD061E03E
S31508000370C378052B07D05DD3072B0AD006D3092BE4
S3150800038046D042D356E001F0ABF952E001F038FB13
S315080003904FE0041D092918BF04224BD1A578022D68
S315080003A0A8BF052246DA2078072108420ED00AF0AF
S315080003B0CBFF58B112F00BFC0BF059F81DF0C7FD36
S315080003C012F004FC0BF052F81DF0C0FD05B1012532
S315080003D02078C00703D529460B2026F0ECFC2078A8
S315080003E0800703D529460A2026F0E5FC2078400731
S315080003F003D52946022026F0DEFC002000900723BC
S31508000400122201F072FC002214E001F0B5FB10E0A4
S315080004100379012B0ED101F0E7FD0AE000F034F96B
S3150800042007E000F09FF904E000F097FA01E000F019
S31508000430E4FA0246104632BD10B582B001F05DFB03
S3150800044080B1DFF8FC48D4F88800010018BF80475F
S31508000450022001F0A0FE28B104F1880040680100DE
S3150800046018BF804701F0FDFF9DF80100022803D060
S31508000470032804D1002109E00021162007E04FF4E3
S315080004804051162021F09CFD4FF44051172021F0D1
S3150800049097FD9DF80000022803D0032804D1002107
S315080004A009E00021202007E04FF44051202021F0E8
S315080004B087FD4FF44051212021F082FD13BD032012
S315080004C0704780B50021022021F07AFD00F06FF810
S315080004D0072100F035F800F04CF80021062091E0DD
S315080004E080B50021042021F06BFD00F060F8092199
S315080004F000F026F800F03DF80021072082E080B5DC
S3150800050000F055F8052100F01BF800F076FD0021F3
S31508000510022077E080B500F04AF8012100F010F8D3
S3150800052000F06BFD002103206CE080B500F03FF879
S31508000530022100F005F800F060FD0021012061E0CD
S31508000540032009F063BC80B50021082021F038FD9E
S3150800055000F02DF80321084609F058FC00F009F8C8
S3150800056000231A461146DFF8740C14F0DDFE00204D
S3150800057002BDFA201FF013BF80B590F900000128CC
S3150800058004D0B0F1FF3F0CBF0220002012F056F94C
S31508000590002002BD80B50022082100F02CFE0028AC
S315080005A001D10A2002BD00F002F80B2123E0002049
S315080005B00090FE23FE22704780B50022082100F035
S315080005C052F8002801D10A2002BDFFF7F0FF0C21DE
S315080005D0FFF7B6FFFFF7CDFF0021012012E080B537
S315080005E00022042100F007FE002801D10A2002BDDE
S315080005F0FFF7DDFF0D21FFF7A3FFFA201FF0CFFE5F
S315080006000021FF2014F0ACFE002002BD80B50022B8
S31508000610042100F028F8002801D10A2002BDFFF7BE
S31508000620C6FF0E21FFF78CFFFFF7A3FF002101206D
S31508000630E8E780B50022202100F015F8002801D14E
S315080006400A2002BDFFF7B3FF0F21D4E780B50022C9
S31508000650102100F008F8002801D10A2002BDFFF792
S31508000660A6FF1121C7E702201DF0FDB980B50022BB
S315080006704FF48071FFF7F7FF002801D10A2002BD69
S31508000680FFF795FF1221B6E730B583B0C478032586
S31508000690012C02D0022C37D034E0072903D00A29CE
S315080006A001D004252EE0001D072903D1007828F083
S315080006B0BBFF01E026F00BF9054612F0AEF9C8B10A
S315080006C001AA082101F0D4F8019805630025002243
S315080006D0082100F090FD58B100950123212201F070
S315080006E004FB00F007FE2946FF2014F039FE02E05D
S315080006F00A2500E005252DB90020009001232122B6
S3150800070001F0F3FA28463EBD0F29FBD0C9E730B5FC
S31508000710C3B00446002500208DF80000012A03D145
S31508000720062B18BF042018D101AA08211DF09BF931
S31508000730012C14D10123212200A902A826F027F9A9
S315080007400198026B00F0B5FF00F061FF00F05AFF58
S3150800075000F0A5FF18BF0925284643B030BD03257C
S31508000760FAE700002DE9F04385B00F4690F80380BC
S315080007704FF00309041D01AA082101F079F802A81F
S31508000780019920312CC92CC00198056A868CB8F1CC
S31508000790020F51D1092F18BF4FF004094CD1207808
S315080007A007286AD8DFE800F0044C4F5255585B5EBC
S315080007B04FF4965002904FF48050617819B102298F
S315080007C058D052D359E00020ADF80C00ADF810000F
S315080007D002A812F0F2F800284FD00198203002A99A
S315080007E08CC98CC0A07800F0010101201DF055FAD3
S315080007F0A078400800F0010102201DF04EFA4FF0E3
S315080008000009002000900223232201F06EFA0298C4
S31508000810854203D1BDF80C0086420DD040F24D103A
S315080008201FF0BDFD0198008D00900198C38C828C45
S31508000830016A00201EF0B6FE484605B0BDE8F08302
S315080008404FF41650B6E74FF49640B3E74FF4164008
S31508000850B0E74FF46140ADE74FF4E130AAE74FF453
S315080008606130A7E74FF4E120A4E74FF4C061ADF883
S315080008700C10ABE74FF48061F9E70520DDE770B5AA
S31508000880C2B000218DF80010012A03D1062B18BF2B
S31508000890042060D102285DD101AA082100F0E8FFF2
S315080008A00198006AB0F5965F2CD0B0F5165F27D090
S315080008B0B0F5964F22D0B0F5164F1DD0B0F5614F62
S315080008C018D0B0F5E13F13D0B0F5613F0ED0B0F5C2
S315080008D0E12F17D107240198808CB0F5806F13D0CB
S315080008E0B0F5C06F0CBF012500250EE00624F2E71F
S315080008F00524F0E70424EEE70324ECE70224EAE7FC
S315080009000124E8E70024E6E7022500261DF0C1F9E0
S31508000910C00748BF01261DF0BCF9800748BF46F04E
S3150800092002060223232200A902A826F030F822464E
S3150800093000F0C7FE2A4600F0C4FEF2B200F0C1FE7F
S3150800094000F065FE00F05EFE00F0A9FE14BF092067
S31508000950002000E0032042B070BD70B582B0C478B4
S3150800096003260025001D052C02D0072C1BD042E0CB
S31508000970082901D004263EE0007810F0070103D0CC
S31508000980022909D008D32EE00020064611F068FF98
S31508000990072C18BFFE2528E000064CBF4FF0FF3095
S315080009A001200026F2E71029E4D10578DDB941785F
S315080009B011F0070103D0022906D005D313E0002061
S315080009C0002611F054FFE3E7801C25F080FFDFF8CE
S315080009D0101828F08BFF06D3DFF8081828F098FFC0
S315080009E088BF0026EDD8052605E000962346362260
S315080009F0294601F07BF9304676BDF8B50C46032545
S31508000A00C178272910D0502923D0512926D060290A
S31508000A1028D061292AD062292CD063292ED07029A2
S31508000A2030D0712946D049E0DFF8BC472146401C42
S31508000A3020F0F5F9002808D400250095272301F0B1
S31508000A4053F9204603F017F838E005250020206002
S31508000A5034E0214600F034F805462FE0214600F040
S31508000A606EF8F9E7214600F073F9F5E7214600F03C
S31508000A70C7FAF1E7214600F055FBEDE7214600F0FD
S31508000A80C0FBE9E700250026071D092C03D3B81C7F
S31508000A9025F012FF05460D2C03D3B81D25F00CFFD3
S31508000AA0064633462A467978387811F006FF20B983
S31508000AB0052503E021461CF0EBFA00252846F2BD81
S31508000AC010B58CB00446282918BF042035D102ABCE
S31508000AD0002206A9601C1FF0B7FF04282BD16479F1
S31508000AE00CB9052029E0E00709D59DF8290008B1C9
S31508000AF00128F6D10AF02EFC08B906201DE000F000
S31508000B00B5FEE00706D59DF8290000B10120019938
S31508000B1081F888000022102100F06DFB48B10024FE
S31508000B200094502301F0E0F800F0E4FB00F0E6FB47
S31508000B3002E00A2400E0052420460CB010BD2DE989
S31508000B40F043A5B00446822918BF042010D102AA92
S31508000B5006A9601C20F00AF8042840F0E98012F083
S31508000B60D1F8052808BF032002D064790CB90520FE
S31508000B70E0E0E00717D59DF8090018B1012801D073
S31508000B800228F4D19DF80A0008B10128EFD19DF892
S31508000B900B0018B1012801D00228E8D104980028D2
S31508000BA0E5D0FF28E3D204F00205DFF8B02CDFF821
S31508000BB0B03C1826002D43D006984FF07E5128F0F9
S31508000BC095FED4D3DFF89C1C28F0A2FECFD90027C7
S31508000BD006A806FB0708D8F808004FF07E5128F04B
S31508000BE085FEC4D3DFF8801C28F092FEBFD9D8F85A
S31508000BF00C0001F076F8BAD300F0F8FAB7D998F8ED
S31508000C0010000838C0B23928B1D2D8F8140000F05C
S31508000C10F5FAACD300F0EAFAA9D9D8F8180000F02A
S31508000C20EDFAA4D300F0E2FAA1D9D8F81C0001F035
S31508000C3058F89CD300F0DAFA99D97F1C032FC7DB42
S31508000C4014F0040815D01A9801F04BF88FD300F069
S31508000C50CDFA8CD91BA81AF07BFE002887D01EA8CF
S31508000C601AF076FE002882D021A81AF071FE002814
S31508000C70F9D014F0080909D09DF81C0008B101281C
S31508000C808BD112F019F808B9062053E001AA2021E1
S31508000C9000F0EEFDE00705D50198843002A9102280
S31508000CA027F01FFF8DB101980699C160002706FB42
S31508000CB007F101980818143006AA8918083118226D
S31508000CC027F00FFF7F1C032FF1DBB8F1000F0FD0C1
S31508000CD001981A99C1651BA8019960311CC81CC1E5
S31508000CE001996C311CC81CC1019978311CC81CC1FA
S31508000CF0B9F1000F03D001989DF81C1001740198F2
S31508000D0000F10C01843012F00FF801280ED10022F0
S31508000D1020211CF0A8FE48B100240094512300F0BD
S31508000D20E3FF00F0E7FA00F0E9FA02E00A2400E03F
S31508000D300524204625B0BDE8F08300009810002061
S31508000D4098B40020B80E0020F80D0020BF04000853
S31508000D502DE9F046ADF2A45D0746002500261AF0F7
S31508000D60F3FD08B903203AE100220DF59661781CD7
S31508000D701FF08BFF022810D111F0FCFB0DF1F80AC9
S31508000D800DF1EC090024797941B1022900F0D480EB
S31508000D90C0F0C480032900F0DF8003E1C00701D456
S31508000DA005201CE10DF597601AF0D2FD0028F7D052
S31508000DB0FFA8C8301AF0CCFD0028F1D00DF59A60CE
S31508000DC01AF0C6FD0028EBD000F014F99DF844008F
S31508000DD001281AD100220DF5966000EB820310A8AF
S31508000DE000EB8207B868996828F04CFE0ED178693E
S31508000DF0596928F047FE09D1386A196A28F042FE6F
S31508000E0004D1521C032AE6DBDFE0B8B1DFF8D47C54
S31508000E103A460DF59A6118A814F0C6FF68B93A461D
S31508000E20FFA9C83115A814F0BFFF30B93A460DF529
S31508000E30976112A814F0B8FF00B1012607A823F09D
S31508000E401DF8C6A823F028F84CA819F0D9F90120EE
S31508000E508DF84400002210A800EB82000DF596617B
S31508000E6001EB82018B6883604B694361096A016201
S31508000E70521C032AEFDB07984FF47A71B0FBF1F0A6
S31508000E803B90BDF92000A9F80400DFF85C0C7499C2
S31508000E90014081420DD1DDE9BA01CDE93E01BAA88A
S31508000EA0D0E90223CAE90223D0E90423CAE90423C4
S31508000EB01EE09DF8B803C00718D5DFF8304CDFF8F8
S31508000EC0307CDDE9C60122463B4624F013F8CDE91D
S31508000ED03E01DDE9C80122463B4624F00BF8CAE983
S31508000EE00201DDE9CA01CAE9040101E000F07BF864
S31508000EF010A81AF0A1FC002403AA402100F0B8FCAF
S31508000F000398083010A9F02227F0EBFD224640216D
S31508000F1000F071F9002847D10A245FE080071CD544
S31508000F2000F068F805208DF844008DF86C4010A88C
S31508000F301AF082FC0126DFE740070ED500F05AF8C2
S31508000F409DF86D0008B9062448E005208DF8440090
S31508000F5001208DF86C00EAE700077FF521AF01AAAA
S31508000F60022100F085FC0198007808B1082435E0D4
S31508000F7001988068049004A801994968416001991C
S31508000F80C968816000F036F818AA04A9012014F08F
S31508000F9047FE02208DF844003B94A9F8044000F06F
S31508000FA022F8C4E7052419E07EB102AA00F05FFC26
S31508000FB0029890F8890018B9029890F88A0020B12A
S31508000FC000F0A7F800F019F801250094602300F056
S31508000FD08BFE1DB100F011F800F0A0F820460DF2C6
S31508000FE0A45DBDE8F086CDE93E44CAE90244CAE9F3
S31508000FF00444704710A81AF005BD64201FF0CFB945
S3150800100070B5FCB0054600241AF09EFC08B903200A
S315080010107DE004A9681C1FF0AAFE01285CD111F026
S31508001020A9FA400701D4052071E09DF83D000B2878
S31508001030F9D200260C2509E004A805FB0600303085
S315080010401AF086FC0028EED0761CF6B29DF83D0014
S315080010508642F1DB40A81AF0D5FC05208DF804017C
S315080010609DF83D008DF82D01010018BF01218DF86E
S315080010702C1100260CE005FB06F140AA8A1804ABE1
S31508001080C9180B6B13634B6B5363896B9163761C9F
S315080010908642F0DB0A2E40A809DA05FB0600DFF8CF
S315080010A0501D016341638163761CF6B2F2E71AF0BC
S315080010B0C3FB002502AA402120461CF0D4FC029856
S315080010C0083040A9F02227F00CFD2246402100F006
S315080010D092F818B90A2519E0052517E000F0C6FBAD
S315080010E0019890F8890018B9019890F88A0020B1FB
S315080010F000F00FF8FFF781FF01240095612300F047
S31508001100F3FD1CB1FFF779FF00F008F828467CB01C
S3150800111070BD0022012102201BF0E5BD002101203F
S3150800112014F01EB910B58AB004461AF00DFC08B9B9
S31508001130032051E002A81AF0FCFC02A9601C1FF06B
S315080011403BFE012846D1029800F058F826D3DFF86E
S31508001150A42C00F04BF821D9039800F04FF81DD3C2
S3150800116000F044F81AD9049800F048F816D300F0AD
S315080011703DF813D9059800F041F80FD300F036F87A
S315080011800CD9069800F03AF808D300F02FF805D9DC
S31508001190BDF81C0010B1BDF81E0008B905201BE0FB
S315080011A002A81AF081FC01AA402100F061FB01980F
S315080011B0DC3002A91C2227F094FC0022402100F012
S315080011C01AF828B100240094622300F08DFD02E08D
S315080011D00A2400E0052420460AB010BD010000A537
S315080011E06F12833A0100A040B0BB0020114628F0D8
S315080011F08FBB0022012101201CF035BC002128F0FC
S3150800120075BB2DE9FC410546002400260A2903D0B2
S315080012100C2901D004204EE02879012801D00520A8
S3150800122049E06879012804D002281ED0FF281ED07C
S31508001230F5E70027A87910B101281AD0EFE7A046EC
S31508001240E879C02806D0C12804D0C22837D0C328D8
S315080012503ED0E4E700F00AFB0FB1022F0FD1E87980
S31508001260C1280CBF0120002006E00127E2E702277B
S31508001270E0E74FF00108E3E7019981F88900012FBB
S3150800128001D0022F07D1E879C1280CBF0120002020
S31508001290019981F88A0000221021FFF7ACFF60B19E
S315080012A001260094632300F01FFD1EB100F022F80A
S315080012B000F024F82046BDE8F6810A24FAE7002261
S315080012C0414638461BF00FFD0028E9D10A20F2E70F
S315080012D0022FA4D00C299DD105F1080025F0E6FAC5
S315080012E0ADF8000000AA414638461BF0FCFC002871
S315080012F0D7D1EBE74FF4FA701FF051B80021FF2061
S3150800130014F02EB82DE9F043F3B00F461E467A9C2A
S31508001310002512280FD0502832D0512841D0522803
S3150800132051D060285DD061286ED062287CD06328B1
S3150800133000F08A80D9E0012AA4B205D1062C05D08E
S31508001340072C04D00420D2E0062C00D10127384609
S31508001350012F05D0022F03D0032F01D0042F0BD164
S3150800136000AA01A920F0CBFA012807D1009A019911
S31508001370384602F032F9B9E00525B7E00825B5E0A8
S31508001380012A02D1A4B2062C01D00425AEE000221F
S315080013900CA904A80AF00FF804A90CA802F060FE2C
S315080013A0A4E0012AF1D1A4B2062CEED111F0AAFCD0
S315080013B005281ED011A904A811F0A8FC04A911A893
S315080013C002F084FE92E0012ADFD1A4B2062CDCD119
S315080013D003AA202100F04CFA0398001D02F0D9FE5A
S315080013E084E0012AD1D1A4B2062CCED11AF0ACFAE7
S315080013F000287AD030A81AF005FB1AF0D7FA014669
S3150800140030A802F0D5FE71E0012ABED1A4B2062C9E
S31508001410BBD11AF099FA002867D030A81AF0F2FA68
S3150800142030A802F029FF61E0012AAED1A4B2062C49
S31508001430ABD11AF089FA002857D06CA81AF079FBB4
S315080014406CA802F03DFF51E0012A9ED1A4B2092CF6
S3150800145001D0112C99D17079012802D0022815D013
S3150800146019E00027B07910B1012811D013E0A84679
S3150800147002AA00F0FCF90298381890F889000028AA
S3150800148014BF4FF002094FF0030906E00127E9E708
S315080014904FF00108ECE7052029E0092C02D0112CB1
S315080014A009D04FE70195009500234246394648463C
S315080014B002F028FF1AE006F10D0025F0F7F904B24C
S315080014C0002FE8D108AB2246414600201BF060FCFD
S315080014D048B1019508A8009023464246002148468F
S315080014E002F010FF02E0082001E00325284673B049
S315080014F0BDE8F08300B5C9B000208DF8000001A84A
S3150800150011F0EAFA0123112200A908A825F03FFAEA
S315080015109DF8162000F021F89DF8172000F01DF818
S315080015209DF8182000F019F89DF81B2000F015F812
S315080015309DF81A2000F011F8BDF81C2000A908A88B
S3150800154025F0F0F900A908A825F029FA9DF8001059
S3150800155008A813F05DFF49B000BD00A908A825F04A
S31508001560CFB980B5FFF7C6FF032008F077FC042043
S3150800157008F074FC062008F071FC082008F06EFCE0
S31508001580BDE801404EE010B5C2B000F044F80323B0
S3150800159000F09BF800F09EF80198027A00F091F8A6
S315080015A00198427A00F08DF800F07DF80024019841
S315080015B02018027E00F085F8641C102CF7DB00F07A
S315080015C026F800F01FF800F06AF80CBF0020092082
S315080015D042B010BD10B5C2B000F01DF8042300F0EB
S315080015E074F8002400F069F8641C102CFADB00F08B
S315080015F00EF800F007F800F052F80CBF002009209A
S3150800160042B010BD9DF8001002A813F001BF00A952
S3150800161002A825F0C4B900208DF8000001AA01210E
S315080016201CF021BA10B5C2B0FFF7F5FF052300F08C
S315080016304CF800F097FA00F09AFA00F098FA00F0E1
S3150800164096FA00F047F80198027A00F03AF80198FD
S31508001650427A00F036F800F026F80198027B00F08E
S3150800166030F8002401982018027E00F02AF8641C3D
S31508001670102CF7DB002400F020F8641C102CFADB91
S315080016800198026900F015F8FFF7C1FFFFF7BAFFE6
S3150800169000F005F80CBF0020092042B010BD9DF8E7
S315080016A00010884270470198428900A902A825F0CF
S315080016B039B900A902A825F050B90198201890F860
S315080016C0282000A902A825F01BB9122200A902A801
S315080016D025F05DB90198426800A902A825F027B946
S315080016E02DE9F04192B088460524051D00272846B5
S315080016F025F0DCF84AF2A551884218BF05200ED11C
S31508001700EE78A878012806D0022800F083800328FE
S3150800171000F094809DE0B8F1380F01D0042099E0DC
S3150800172002AA012100F0A4F83822029903A827F09A
S31508001730D8F9F00745D5681D25F0BEF80490687AF3
S315080017408DF8140008B1202800D30127A87A8DF84F
S31508001750150008B10D2800D3012705F10B0025F067
S31508001760A5F8ADF8160040F2DE71884238BF0127A9
S31508001770687B8DF81800182828BF012709A80021BA
S3150800178000220B468C46A0E80E10084641198A7BB3
S3150800179032B103AA8218897B1176401C0F28F5DB23
S315080017A00DA800210A46A0E80E10084641198A7FAE
S315080017B03AB103AA8218897F82F82810401C0F289C
S315080017C0F4DBB00716D505F12E0025F080F8019058
S315080017D0DFF8741C28F09CF83BD800F030FE38D2AD
S315080017E00790002201A9012020F089F8012804BFEA
S315080017F0019808906FBB382203A9029827F071F95F
S31508001800FFF7F7FCC0B1002400940523122200F06C
S315080018106CFA1EE0B8F1090F12D102AA012100F0F4
S3150800182027F83821029828F011FB3A460121084684
S315080018301CF019F90028E6D10A240AE0B8F1090FC4
S315080018407FF46CAF00220121FEF70DFF0028DAD1E4
S31508001850F2E7204612B0BDE8F081000001007A44A4
S3150800186000007AC4010048450100804101AA102100
S3150800187000201CF0F8B870B5C2B000F03BF908B902
S3150800188000F092FC00F039F9050018BF012506237F
S3150800189000F0A0FB00F0A3FBDFF8B04B627900F084
S315080018A095FB2A4600F092FB0022E068410648BFF5
S315080018B00122C10748BF42F00202810744BF42F035
S315080018C00402D2B2410744BF42F00802D2B2C105AF
S315080018D044BF42F01002D2B2810544BF42F0200252
S315080018E0D2B294F8371011B942F04002D2B240058C
S315080018F044BF42F08002D2B200F068FB0022E068E2
S31508001900C10348BF0122410448BF42F00202010454
S3150800191044BF42F00402D2B2810344BF42F0080237
S31508001920D2B2800444BF42F01002D2B200F04EFB9D
S3150800193000F055FB00F053FB207B400621D504F24E
S315080019403C05A86827F066FE0646A86927F06CFEDF
S315080019500146304625F0EEFC054627F073FB0246A5
S315080019600B462846002127F0D3FF084634BFDFF888
S31508001970E01ADFF8E01A25F0BBFE27F043FA82B238
S3150800198001E045F2CE6200F016FB04F20C052A7956
S3150800199000F01CFB6A7900F019FBAA6800F010FB3E
S315080019A000F008FB00F027F82A7F00F00FFB6A7F9B
S315080019B000F00CFBAA7F00F009FB00F000FB6A6A46
S315080019C000F0FEFA2A8D00F0F6FA00F0FDFA94F817
S315080019D0372000F0FBFAE26B00F0F2FA00A901A842
S315080019E024F0DDFF00F0E1FAFFF759FE0CBF0020F6
S315080019F0092042B070BD2A6900A901A824F097BF42
S31508001A0070B582B00526051DDFF8404A28780128FA
S31508001A1002D002285CD059E0082901D0042076BDFE
S31508001A20DC21204628F012FADFF82C0AC4F88C00CC
S31508001A30DFF8280AC4F88800687860716878C007F3
S31508001A4003D5206840F0020020606878800703D537
S31508001A50206840F004002060687810F0040018BF81
S31508001A60012020716878000703D4206840F0080038
S31508001A7020606878C00603D4206840F01000206013
S31508001A806878800603D4206840F02000206020682B
S31508001A9040F2012108432060000703D524F0DCFC4E
S31508001AA026F0BBFF20783021084218BF25F042FBFC
S31508001AB0002600960623122200F017F900F01DF8FA
S31508001AC0002803D1FFF716FCFFF718FC304676BD51
S31508001AD0082901D00729A1D1206820F0010020603B
S31508001AE0E6E700000AD7233C041C4010399D52A2A1
S31508001AF046DF913F00208DF8000001204BE300B53A
S31508001B00C3B000208DF8000001AA02211BF0ABFF2C
S31508001B100823FFF7DAFD00F025F800F028F800F0B2
S31508001B2026F800F024F801984278FFF7CAFD0198D4
S31508001B308278FFF7C6FD01984268FFF7BAFD01985B
S31508001B408268FFF7B6FD0198C268FFF7B2FDFFF796
S31508001B505EFDFFF757FDFFF7A2FD0CBF0020092029
S31508001B6043B000BD002200A902A824F0DBBE002273
S31508001B7000A902A824F0C4BE2DE9F04788B088461B
S31508001B80052400F1040A00250026504624F08EFE9E
S31508001B904AF60131884218BF05200ED19AF803701B
S31508001BA09AF80200012804D002286CD003287DD0B8
S31508001BB093E0B8F1190F01D204208FE001AA02219F
S31508001BC0FFF756FE019803A9B0E80C50A1E80C509F
S31508001BD0F80737D58DF80D508DF80E500AF1070025
S31508001BE024F075FE8046CDF810800AF10B0024F02B
S31508001BF06EFE8146CDF814900AF10F0024F067FEB8
S31508001C0002460692DFF8303DDFF838AD40465146C9
S31508001C1027F07EFE02D900F064F800D20125484676
S31508001C20514627F075FE02D900F05BF800D201256F
S31508001C301046514627F06CFE4FD900F052F84CD3A7
S31508001C40002D4AD103A801993CC83CC100220221B3
S31508001C50FFF7D1FA002833D00024F80733D5012638
S31508001C6002AAFFF704FE029890F8890018B90298AC
S31508001C7090F88A0030B30022314602201BF033F870
S31508001C801AF018FE1FE0B8F1090F95D101AA022132
S31508001C90FFF7EEFD019829460A460B460C461EC07C
S31508001CA00221FFF7A8FA58B10024D8E7B8F1090FBE
S31508001CB082D10022022108461BF0D5FE0028F3D166
S31508001CC00A240AE0002600940823122200F00DF8E0
S31508001CD01EB1FFF792F9FFF721FA204608B0BDE8D2
S31508001CE0F087194627F002BE7022FE21012008F06F
S31508001CF08DB82DE9F043ADF2645D80468946DFF87C
S31508001D004C6706F29000D6F8901000293AD141683F
S31508001D10002937D10022002006EBC00191F8A03037
S31508001D200BB1521CD2B291F8C01009B1521CD2B2F2
S31508001D30401C0428F0DB00F064F8002706EBC70413
S31508001D4004F29C052A793AB100F05BF800F058F8DD
S31508001D50D4F89C2000F050F87F1C042FEEDB0027F7
S31508001D6006EBC70404F2BC052A793AB100F049F833
S31508001D7000F046F8D4F8BC2000F03EF87F1C042F8B
S31508001D80EEDB30E0407A58B300A822F046F938B3C3
S31508001D9000220020602600A906FB0011B1F87A107F
S31508001DA0C90544BF521CD2B2401C0E28F3DB00F012
S31508001DB028F8002700A806FB0704B4F87A00C0052F
S31508001DC00AD594F8202000F01CF82034A27800F0F8
S31508001DD018F8226900F010F87F1C0E2FEADB02E0E3
S31508001DE0002200F00EF80DF2645DBDE8F0830000F5
S31508001DF000C079440100B4424946404624F0ADBDCE
S31508001E006A794946404624F07BBD70B5C2B0FFF7F3
S31508001E1071FE08B900F080FBFFF76FFE040018BFDB
S31508001E200124092300F0D6F8022200F0CFF8224652
S31508001E3000F0CCF80022DFF81446E068410648BFF7
S31508001E400122010648BF42F00202C10544BF42F022
S31508001E500402D2B2810544BF42F00802D2B241055B
S31508001E6044BF42F01002D2B2010544BF42F020023C
S31508001E70D2B2C00444BF42F04002D2B200F0A6F883
S31508001E8000F0ADF80022E068C10748BF012201074B
S31508001E9048BF42F00202C10644BF42F00402D2B271
S31508001EA0810644BF42F00802D2B2810244BF42F022
S31508001EB01002D2B2400244BF42F02002D2B200F071
S31508001EC085F800F08CF80022E068410348BF01223B
S31508001ED0010348BF42F00202C10244BF42F00402B5
S31508001EE0D2B2010444BF42F00802D2B2400444BF51
S31508001EF042F01002D2B200F069F800F070F800F073
S31508001F006EF804F20C0500F05FF894F8372000F03C
S31508001F105DF804F23806726800F052F8F269FFF7C5
S31508001F206BFD3269FFF768FD7269FFF765FDB269F7
S31508001F30FFF762FDF26BFFF75FFD326BFFF75CFDA3
S31508001F40726BFFF759FDB26BFFF756FDAA8A00F0D0
S31508001F5032F8AA69FFF750FD00F02CF8FFF74BFDA1
S31508001F602A7F00F033F86A7F00F030F8AA7F00F085
S31508001F702DF800F024F86A6A00F022F82A8D00F09D
S31508001F801AF800A901A8FFF7B4FEA26BFFF734FD03
S31508001F9000A901A824F003FD00F007F8FFF77FFB6E
S31508001FA00CBF0020092042B070BD9DF8001001A8A2
S31508001FB013F02EBAAA8900A901A824F0B3BC2A6A8C
S31508001FC000A901A824F0C9BC95F82A2000A901A8EF
S31508001FD024F096BC122200A901A824F0D8BC00223D
S31508001FE000A901A824F08CBCF8B50525071D002416
S31508001FF07878012803D0022800F0C880C4E01429A4
S3150800200001D00420F2BDDFF84454DC21284627F02D
S315080020101DFF05F28806DFF858097060DFF85409D5
S31508002020C5F88800B8786871F878A8713879E871C1
S3150800203078792872B81D24F03FFCB06007F10A00D1
S3150800204024F03AFCF060B878C0F38100012802D089
S31508002050022818BF00202871B878C00703D5286859
S3150800206040F002002860B878800703D5286840F059
S3150800207004002860B878C00604D528684FF40071B3
S3150800208008432860B878800603D5286840F480603D
S315080020902860F878C00703D5286840F0080028604B
S315080020A0F878800703D5286840F040002860F8785B
S315080020B0400703D5286840F080002860F8780007B4
S315080020C004D528684FF4807108432860F878C0065C
S315080020D005D52868810544BF40F400602860F87873
S315080020E0800605D52868410544BF40F4805028601D
S315080020F028684FF4A071084205D04FF4C061084221
S3150800210001D00520F2BDF168B06800B941B121F0EF
S31508002110ABFF002801D10B20F2BD0020032100E00F
S3150800212001207074317424F097F926F076FC28683B
S315080021304FF4A07108420BD010F049FD09F097F949
S315080021401BF005FF10F042FD09F090F91BF0FEFEAA
S3150800215028684FF4C051084205D0002009F056FA05
S31508002160204610F04CFE286840F001002860002543
S315080021700095092312220121FFF7B8FD002C03D090
S31508002180FFF7B8F8FFF7BAF82846F2BD08297FF432
S3150800219038AF0124EBE7AD4909680140814201D116
S315080021A00120704700207047F0B5ADF5797D00F045
S315080021B0BEFB7EA818F024F818A821F06DFE08A822
S315080021C021F05CFE00F037FCA8B109F0BDF890B923
S315080021D000F01AFC9DF8100058B910A809F006FB83
S315080021E0012806D100F025F9A86840F04000A8604B
S315080021F001E000F0D9FB0920FFF7CDFF38B124F044
S315080022004FF9012803D1A86840F00100A86000F042
S3150800221012FC18B31020FFF7BEFF002814BF0DF1FB
S31508002220030600262020FFF7B6FF002814BF0DF18D
S31508002230020700273946304624F083FF36B1307846
S31508002240012803D1A86840F00200A86037B13878A1
S31508002250012803D1A86840F00400A8601AAFA69820
S3150800226080040BD500F05DFBD7E90C230020DFF8CE
S31508002270081722F03FFE26F063F900E0002004F27A
S31508002280280600F0AAFB00F040FB01281CBF6320CB
S31508002290B07324F0C5FC00F0E3F800F0BAFB03A81D
S315080022A025F0B2FF27F0DFFD0399401A48BF4042E8
S315080022B000F085FB002024F053FD012803D1A8680F
S315080022C040F48030A860012024F04AFD012803D19B
S315080022D0A86840F48040A860022024F041FD00F080
S315080022E085FB032024F03CFD012803D1A86840F4AF
S315080022F00030A8609DF80001C1071FD506210842D5
S315080023001CD0DDE9180126F01BF97060DDE91A0119
S3150800231026F016F9B060D7E9040126F073FDB081FE
S31508002320002084F8280040A84078042801D0052811
S3150800233002D1032070700DE00220FBE700F047FB96
S315080023401CF068FC00281ABF9DF8C200401CFF203C
S3150800235084F828009DF8C200B070DFF820062861CE
S315080023600020A88100276020DFF8141600FB07105C
S3150800237090F82010491EC9B2202918D200F1200170
S315080023800A790A2A13D12A7B1AB16A7B4B789A42B0
S315080023900DD290F82000287348786873086926F0EB
S315080023A051FE00F0CBFA26F0CBF800F0A8FA7F1C15
S315080023B00E2FD8DBBDF82400A882089800F0C4FACE
S315080023C00520FFF7E8FE00282FD0307E00282CD104
S315080023D0A868217901290DD1800407D500F0BAFA39
S315080023E0DFF8A01525F0B0FB054607E0002084F8C5
S315080023F084001AE0C005F9D500F08CFA94F8840038
S31508002400032812D300F0AFFAF0D800F018F8EDD28E
S3150800241001AA0121FFF72CFA00F0EFFA00F0C9FA39
S31508002420FEF7E7FE08B10120307600200DF5797D2C
S31508002430F0BD04F1440010A9202226F052BBDFF8B3
S31508002440481527F053BA00000000FAC598B40020D2
S315080024500000E03F0000E0BF77180008A921000847
S31508002460306100A90DF1010024F0D4BBF0B5044693
S315080024700D4616462021304627F0E8FC00200021AC
S3150800248006EBC002602303FB0143B3F87A70FF052D
S315080024903BD593F820707F1EFFB2202F00D2A5BB34
S315080024A093F82070413FFFB2202F01D2012D2CD185
S315080024B093F820703737FFB21E2F01D2032D24D18F
S315080024C093F820706A37FFB21E2F01D2022D1CD155
S315080024D0002708E006EBC70C9CF804C093F820E038
S315080024E0F44512D07F1C8742F4DB03F1200792F8EB
S315080024F005C097F802E0F44507D293F82030137127
S31508002500BB7853713B6946F83030491C0E29B9DB54
S31508002510401C0428B3DBF0BD2DE9F041ADF5EF6DA5
S3150800252000F005FA0DF5BC6021F0B6FC18A821F0FC
S31508002530A5FC04F2280640F20120FFF72CFE58B34A
S3150800254000F062FA4FF40060FFF725FE00289DF8B8
S31508002550100013D000BB11A809F052F801281BD1AE
S3150800256011983062129870621398B0620120F06276
S31508002570A868DFF818140843A8600DE050B910A839
S3150800258009F034F9012805D1FFF753FFA86840F090
S315080025904000F1E700F008FA40F20140FFF7FBFDC2
S315080025A098B3002104A810F0B1FB4FF48050FFF750
S315080025B0F2FD00289DF8100013D030BB09A810F0D2
S315080025C018FC012821D1099830640A9870640B9880
S315080025D0B0640120F064A868DFF8B4130843A86063
S315080025E013E068B908A810F013FC012808D104F113
S315080025F0640008A9FFF720FFA86840F08000EEE70E
S31508002600202104F1640027F021FC04F284070DF56B
S31508002610BD68787D90B19DF88006C1070ED5062164
S3150800262008420BD000F07DF9D8E90C010022DFF84A
S31508002630483322F05FFC25F083FF00E0002000F01D
S31508002640CCF903A825F0E0FD27F00DFC0399401A04
S3150800265048BF404200F0B3F904F1200104F1240018
S3150800266021F004FD18B1A86840F40060A86000F0E5
S315080026704CF9012803D1A86840F48050A86000F0FE
S31508002680DAF9E0B10820FFF786FD38B123F008FF34
S31508002690012814D1A86840F001000FE024F06CFB73
S315080026A0012803D1A86840F48020A860012024F0FE
S315080026B063FB012803D1A86840F40020A8604120E4
S315080026C0FFF769FD38B11BF0B9FE012803D1A868E8
S315080026D040F00800A86000F0AEF9C8B18020FFF706
S315080026E05AFD38B124F010FB012811D1A86840F032
S315080026F010000CE0052024F03FFB00F077F90420D9
S3150800270024F03AFB012803D1A86840F48040A86069
S3150800271000F091F9A8B14FF48070FFF73CFD38B18D
S315080027201DF0B2FE01280CD1A86840F0200007E091
S31508002730032024F021FB012803D1A86840F4801067
S31508002740A86024F06DFAFFF78BFE00F062F9787D39
S3150800275080B3BDF86400A882189800F0F5F8787D73
S3150800276040B39DF88006C10724D50621084221D02A
S315080027700DF58061D1E9780125F0E2FE70600DF56E
S315080027808061D1E97A0125F0DBFEB060D8E9040161
S3150800279026F038FBB081002084F828000DF5D060BB
S315080027A04078042801D0052802D1032070700DE076
S315080027B00220FBE700F00BF9787D00281ABF9DF888
S315080027C04216491C012184F8281010B19DF84206CA
S315080027D0B0706A482861787D002838D020A821F092
S315080027E01CFC002833D00520FFF7D5FC002833D081
S315080027F0207988B3002108E092F82020521ED2B230
S31508002800202A17D3491C0E2926DA602220AB02FBA0
S31508002810013202F1200393F804C0BCF10A0FF1D18A
S315080028200128E9D00228EDD192F82020413AD2B207
S31508002830202AE7D25A78002AE4D0186926F002FC42
S3150800284000F07CF825F07CFE00F059F804E04FF41F
S31508002850AC6120A827F0FAFA787D78B1386968B9AA
S31508002860F86858B904F19C02002120A8FFF7FEFD7C
S3150800287004F1BC02012120A8FFF7F8FD0520FFF7A7
S315080028808AFC00282ED0307E00282BD1A868217912
S3150800289001290CD1800406D500F05CF8394925F0E9
S315080028A053F9054607E0002084F884001AE0C005BD
S315080028B0F9D500F02FF894F88400032812D300F015
S315080028C052F8F0D8FFF7BBFDEDD201AA0121FEF7B9
S315080028D0CFFF00F092F800F06CF8FEF78AFC08B11A
S315080028E001203076387D28B1401E3875C0B208B947
S315080028F00120787500200DF5EF6DBDE8F08128619F
S31508002900A86840F40050A860704704F13601012019
S315080029101FF0DAB894F88400401C84F884007569BE
S315080029207047A8684FF480710843A8607047194C2F
S31508002930251D0020A8607047000034C3164A174BAF
S3150800294022F0D8BA010034434FF47A71B0FBF1F0A3
S31508002950A861704794F88400401C84F884002869AC
S315080029600F4924F0E7BC28460E4926F0D1BF0000DF
S315080029700B1E00081925000865CDCD4100C0794415
S3150800298078840020286B6E4E0100FA45400020002E
S315080029908000400098B40020FE82BBE62547853FAC
S315080029A080C1794B0000FAC5202104F1440027F0C4
S315080029B04DBA012802D10198029941617047B0F5D4
S315080029C0FA6F03DAA86840F48060A86070470020B0
S315080029D07060B060B081707070477061307E20B1F1
S315080029E0A8684FF400710843A8607047012803D10E
S315080029F0A86840F40040A860704701980561002265
S31508002A0002A901201EF07BBF0022002104A808F0BD
S31508002A10D2BC9DF80000012804D0022804D003285F
S31508002A2004D005E0002004E0012002E0022000E0D6
S31508002A300320F07370470120FFF7ADBB38B5DFF808
S31508002A403449002060612076A021DFF82C0927F0A0
S31508002A50FDF904F1100000210160DFF82059182162
S31508002A60284627F0F3F901202870DFF814591421B5
S31508002A70284627F0EBF9012028700020002102469D
S31508002A8003460FC4103C04F21C00E062DFF8F408A9
S31508002A90E061DFF8F40820624FF4702060620F20CE
S31508002AA0A0624C2104F1340027F0D0F9A421DFF804
S31508002AB0DC0827F0CBF900202063BDE8314007F099
S31508002AC099B92DE9F04389B080468946002400A8C3
S31508002AD021F0D4F9DFF89C68F06A0078800609D5F9
S31508002AE0002559F8250010B1294600F07DFC6D1C1B
S31508002AF01E2DF6DBF06A0079400606D599F8240BF8
S31508002B0018B109F61C3000F095FF6027F06A0079C5
S31508002B10800710D5002507FB059090F89C100A2918
S31508002B2006D300F19801204600F059FE601CC4B295
S31508002B306D1C0E2DEFDBF06A0079800611D5002496
S31508002B40002507FB059090F89C100A2906D300F18A
S31508002B509801204600F033FF601CC4B26D1C0E2D90
S31508002B60EFDBF06A4068C1040CD50024002507FB9A
S31508002B70059191F89C100A2924BF611CCCB26D1CE2
S31508002B800E2DF4DBC00704D5214609F1780000F0C4
S31508002B90F0FDF06A4068C00510D50025502000FBFE
S31508002BA0059090F8BC16491EC9B220293CBF00F210
S31508002BB0BC6000F0A6FF6D1C0E2DEFDBF06A0079F5
S31508002BC0C00644BF404600F0D8FEF06A00794007C8
S31508002BD044BF404600F045FE09F2D85900AA08F15C
S31508002BE06001484607F0A4FB4946FF2007F044FC6D
S31508002BF000A9404607F05AFA09B0BDE8F08370B557
S31508002C0088B004460D4600A821F038F9DFF8646755
S31508002C1006F1340300AA2946204600F042F807F0D8
S31508002C20E6F9F06A4068400344BF284601F0A1F976
S31508002C30F06A4068000306D50CF05CFB18B105F194
S31508002C40B00001F00AFA95F8E40101280ED1F06AFD
S31508002C504068C00344BF284601F043F9F06A40685B
S31508002C60800344BF05F2101001F03EF9F06A0068CF
S31508002C70C00206D594F8340018B100F00CF800F03C
S31508002C800FFDF06A0068000303D500F004F800F0B1
S31508002C90B8FC08B070BD9DF80C20D5F84411204644
S31508002CA070472DE9F74F86B01E4602A817F09EFB1F
S31508002CB0079800F2B8100190079800F228000090D3
S31508002CC090F87800800668D59DF80800152864D223
S31508002CD00198006A26F0B6F921F00041DFF8AC4603
S31508002CE0627804EB820525F02BFC6860607804EBBB
S31508002CF080000199896A41652078401C20706178B6
S31508002D00491C61709DF80820C0B2904288BF1046E1
S31508002D1020709DF80800C9B2814224BF0020607067
S31508002D204FF00008C246C346002716E060783818F8
S31508002D3090FBF1F201FB1200C0B204EB8005686853
S31508002D4026F080F902460B465046594624F0D0FC38
S31508002D5082468B46686D80447F1C2078874205DA58
S31508002D609DF808108842E1D23846E6E7B8F1010F27
S31508002D7013DB404626F0C6FC02460B46504659462B
S31508002D8020F03CFF0022DFF8083622F0B3F800F006
S31508002D9027FA26F037F8814601E04FF00009DFF8F8
S31508002DA0F4050199496A079AD2F84421511841183D
S31508002DB091FBF0F200FB1210306006984068069905
S31508002DC0896880293EBFB060069880682AD3DFF8F4
S31508002DD0C85526F097FC00F0FFF925F0B1FB04462C
S31508002DE026F030F902460B46204600F003FA08465C
S31508002DF034BFDFF8A815DFF8A81524F079FC26F00B
S31508002E0001F8B0600698806826F086FC00F0E4F9C0
S31508002E1025F096FB26F016F900F0E2F925F0F2FF08
S31508002E2000F07F0006F23E0778710698007C18B11C
S31508002E30787940F0800078710698C089708707987D
S31508002E4090F8E401012805D13246079800F21011DE
S31508002E5000F0D9F90198856A7585DFF818A5DAF8BA
S31508002E60304096F83E00800631D50198056ADFF8AD
S31508002E703405294624F068FE214625F0F1FB00F0CA
S31508002E80B8F9084694BFDFF81415DFF8141500F0F2
S31508002E90ABF900F0B2F925F0B5FF04B2204626F0EA
S31508002EA0B9FB0146404624F097FC8046706C2946DB
S31508002EB024F04AFE26F0C6F821F0004125F040FB32
S31508002EC04FF07E5125F0CCFB26F09CF93BE00098AC
S31508002ED0806F800434D5284626F09CFB0799D1F8E4
S31508002EE0201124F031FEDFF8C01424F02DFE21460F
S31508002EF025F0B6FB00F07DF9084694BFDFF89C1470
S31508002F00DFF89C1400F070F900F077F925F07AFFE5
S31508002F1004B2204626F07EFB0146404624F05CFCBF
S31508002F2080460A2095FBF0F026F0ECFB02460B469D
S31508002F300020DFF8681424F0DBFB25F063FF02E0CD
S31508002F40002400208046B0867484CAF83080009831
S31508002F50856F280515D50798D0F8200126F072F850
S31508002F60044621F00048706C26F06CF802460B46C1
S31508002F702046414621F0BEFF00F032F925F042FF17
S31508002F8004E0A8044EBF6420002081467086A6F897
S31508002F902890680708D501988169DFF8100424F09D
S31508002FA0D3FD26F02FF900E00020F084DFF80004B6
S31508002FB02840DFF8FC13884264D1787840F0040092
S31508002FC078700198C469DFF8ECA32046514624F0CE
S31508002FD0BBFD00F00FF994BFDFF8C093DFF8C0938C
S31508002FE026F030F800224B4624F082FB25F00AFF33
S31508002FF0B084204626F026F8024621F00043DFF882
S31508003000B803DFF8B81321F075FF04468846009820
S31508003010816DDFF8AC03006824F096FD0546708DD7
S3150800302026F002FB294624F08FFD26F00BF8E54A28
S31508003030E54B21F05FFF05468946079AD2E90A0162
S315080030402A464B4621F056FF2A464B4621F052FFA8
S3150800305005468946204641462246434621F04AFF10
S315080030602A464B4624F044FB24F0E2F925F068FA98
S31508003070514624F069FD25F0E5FF00F0B1F825F08A
S31508003080C1FE01E00020B084F086009890F8780030
S31508003090C00729D5CD4CDFF838B3079AD2E96E01B7
S315080030A022465B4621F026FF00F09AF994BFBB4BF7
S315080030B0BB4B02460D46002019462B4624F018FB4A
S315080030C025F0A0FE0546019AD2E9020122465B4692
S315080030D021F010FF00F084F994BFB04BB04B24F0F8
S315080030E007FB25F08FFE01E000250020B061756121
S315080030F00098806F86F83E00F06842F211718842A7
S3150800310005D396F83E0000F0FE0086F83E00F08DE6
S3150800311040F2E931884205D396F83E0000F0FD00FA
S3150800312086F83E00787800F0F001797096F83E004F
S3150800313000F05F0086F83E00009A926F9C4B1A409A
S315080031409A4204BF41F0040179700099896F090514
S3150800315007D5797841F00801797040F0A00086F823
S315080031603E0096F83E00800609D50198006A0021BF
S3150800317026F088FC03D0787840F00100787007982C
S3150800318090F8E50118B1787840F002007870787800
S3150800319000F0CF0078700899097B042904D00A2921
S315080031A005D00B2906D008E040F0100004E040F0F6
S315080031B0200001E040F03000787086480099896F59
S315080031C00140814278780CBF40F0800000F07F0013
S315080031D0787009B0BDE8F08F00222B4621F08ABE30
S315080031E000226E4B24F084BACDE90401404625F04E
S315080031F029BF8046002126F08BBB02460B46DDE937
S31508003200040124F075BA2DE9F84980460C4615469E
S31508003210D8F8A00085F83E0005F23E06707800F062
S31508003220F000707095F83E0000F0570085F83E00F3
S31508003230DFF868B1D8E90023D8E9020124F058FA82
S3150800324002460B460020644924F052FA24F0F0F8AE
S3150800325000225B4624F04CFA25F0EAFDE86005F208
S315080032600C07D8E9040124F0E3F800225B4624F0B1
S315080032703FFA25F0C7FD7884606925F0E3FE02462B
S315080032800B46D8E91E0122F069F900F0A9F894BFA7
S315080032905B46434B24F02CFA25F0B4FD388204F142
S315080032A01400C06910F1010F08BFFF2002D0FE28E4
S315080032B028BFFE20B070D8E9080124F0B9F8024604
S315080032C00B464FF0C040454921F014FE02460B4616
S315080032D00020594624F00CFA25F094FDB8843448A9
S315080032E0D8F8A0100140814202BF707840F004006F
S315080032F070701CBF0020A864D8F8A000000521D56E
S3150800330095F83E0040F0080085F83E00717841F0D7
S315080033100801717040F0A00085F83E0094F83D70F1
S3150800332008EBC702D2E9120124F082F825F008F961
S315080033301C4924F009FC08EB8701D1F8841023F016
S31508003340F9FF0AE00020D8F8A010890405D595F8F9
S315080033503E1041F0080185F83E106864D8F8A000D0
S31508003360400470784CBF40F0400000F0BF00707019
S31508003370BDE8F189FCB70020C8B600202CBE0020A5
S3150800338070BE002020F11C0057010F0024B6002053
S31508003390006AF84000840C240000B03F0000E03FBB
S315080033A00000E0BF0000C842CDCCCC3D83F92246E0
S315080033B0001400109F0CB3459A9999999999A93FB9
S315080033C080BD0020FCA9F1D24D62503F83C8C96D6B
S315080033D0305FC441051C401000002240305FC440E5
S315080033E00022002326F076B930B5C1B004460D4652
S315080033F000F0E1FA052300F01AFC022200F0E6FCD0
S31508003400224600F0E8FD2A4601F061B870B5C2B060
S3150800341000F0D0FA062300F00AFC042200F0D6FCDD
S31508003420628800F00AFC228800F007FC227D00F082
S31508003430CDFCA28800F001FCE28800F0FEFB00F05B
S31508003440FBFB628900F0F9FBA28900F0F6FBE28932
S3150800345000F0F3FB228A00F0F0FB628A00F0EDFB35
S31508003460627D00F0B3FC002519E00A2000FB054642
S31508003470B27D00F0ABFCF27D00F0A8FC327E00F0D5
S31508003480A5FC727E00F0A2FC728B00F0D6FBB28B14
S3150800349000F0D3FBB27F00F099FC6D1CEDB2607DA5
S315080034A08542E2DBD2E10146082000F098BD00B56E
S315080034B0C5B000F080FA02A816F098FF0C23702217
S315080034C000A904A823F063FA052200F040F801A930
S315080034D00F2016F055FF10B94FF0FF30019000F09D
S315080034E031F803A9002016F072FF10B903900022E4
S315080034F002E0039A02B10122D2B200F028F801A92B
S315080035001C2016F03DFF00B9019000F01BF89DF84D
S31508003510082000F01CF800229DF8090000B10122DD
S315080035209DF80A0008B142F0020200F010F800A95E
S3150800353004A823F034FA9DF8001004A811F068FFD7
S3150800354045B000BD019A00A904A823F0F0B900A966
S3150800355004A823F0D5B901460D2000F03BBC10B5F0
S31508003560CAB000218DF8001030B10124202201468E
S3150800357001A825F0B6FA04E00024202101A826F0C7
S3150800358065FC0E23702200A909A823F000FABDF8ED
S31508003590082000A909A823F0C5F9019A00A909A8D5
S315080035A023F0C5F9039A00A909A823F0D6F92246FB
S315080035B000A909A823F0A4F99DF81A2000A909A8CA
S315080035C023F09EF900A909A823F0E9F99DF800104F
S315080035D009A811F01DFF4AB010BD70B5C2B0044667
S315080035E00D46164600F0E7F9122300F020FB2246A6
S315080035F000F0ECFB2A4600F0E9FC324600F0E6FC57
S3150800360024E1F0B5C1B000F09FF8132300F00FFBDA
S31508003610092200F0DBFB207C47EA000200F0D6FB1B
S3150800362000F0D8FC0A2E2CBF2A46002200F0D3FC54
S31508003630E28900F002FB626800F0CDFCA26800F0A7
S31508003640CAFC626900F0C7FC042200F0BFFB002533
S3150800365004EB8500426A00F0BEFC6D1C042DF7DB06
S31508003660A26900F0B8FCE26900F0B5FC226A00F035
S31508003670B2FC226F00F0AFFC626F00F0ACFCA26FE8
S3150800368000F0A9FC94F87C2000F0A0FB04F27C046E
S3150800369000F09BFC00F0D0FAA27A00F097FB48E015
S315080036A0F0B5C1B000F050F8142300F0C0FA0222B9
S315080036B000F08CFB3A4600F089FB00F08BFC0A2EE2
S315080036C02CBF2A46002200F086FC94F83400D0B1BC
S315080036D0012200F07BFB002504EB0516B26B00F017
S315080036E07AFCF26B00F077FC326C00F074FC726CBA
S315080036F000F071FC6D1C032DEEDB94F8682000F0D9
S3150800370065FBE26E13E000F060FB0324002200F084
S3150800371062FC002200F05FFC002200F05CFC002244
S3150800372000F059FC641EF1D100F04FFB002200F0B6
S315080037304DFC00A901A823F032F99DF8001001A854
S3150800374011F066FE41B0F0BD04460D46164600204F
S315080037508DF80000042E04D00A2E04D00B2E04D0B7
S3150800376005E04027704780277047C0277047002725
S31508003770704770B5C2B004460D4600F01CF9002625
S31508003780607900B10126A07F80B1022809D005D34F
S31508003790042809D038BF46F0060607E046F00206B8
S315080037A004E046F0040601E046F00806202300F08F
S315080037B03EFA032200F00AFB00F00CFC227900F026
S315080037C005FBF2B200F002FBE28800F036FA00F0E0
S315080037D082FBD4E9042300F080FB2A4634E070B566
S315080037E0C2B004460D4600F0E6F8287820F0DAFB69
S315080037F00646212300F01BFA052200F0E7FA2246C6
S3150800380000F0E4FA2A7800F0E1FA6A7800F0DEFAC5
S31508003810EA7800F0DBFA2A7900F0D8FA6A7900F03B
S31508003820D5FAD5E9022300F058FB2A6900F0CEFB49
S31508003830F2B200F0CBFAD5E9062300F04EFB0022DF
S3150800384000F0FBF995F8582000F0C0FA00A901A885
S3150800385023F0A5F89DF8001001A811F0D9FD42B093
S3150800386070BD30B5ADF5297D014642A84FF4CC723E
S3150800387025F037F900F09FF864AC207EC00704D421
S315080038804FF4CC7142A826F0E1FA2223702200A94F
S3150800389002A823F07CF8082200F05EF8627E00F0A9
S315080038A05BF844ADAA8F00A902A823F03BF8AA6BDF
S315080038B000F04EF8226A00F04BF8DDE9422300F0EA
S315080038C04FF8DDE9442300F04BF8D5E9022300F070
S315080038D047F8D5E9042300F043F8D5E90A2300F0B0
S315080038E03FF8AA6900F040F8D5E9080124F028FE57
S315080038F000F03EF8EA6900F037F8626800F034F83C
S31508003900A26800F031F8649A00F02EF8227E00F0E2
S3150800391023F8002200F01CF8D5E90C0124F010FE6B
S3150800392000F026F89DF85E2100F016F8A59A00F03A
S315080039301BF8A69A00F018F800A902A823F02FF899
S315080039409DF8001002A811F063FD0DF5297D30BD24
S3150800395000A902A822F0EBBF00A902A822F0D0BF56
S3150800396000A902A823F008B800A902A822F0F5BF0A
S31508003970024600A902A822F0F0BF30B5C1B000F097
S3150800398019F8242300F053F9032200F01FFA94F8DB
S31508003990622000F01BFA002506E0281990F863203B
S315080039A000F014FA6D1CEDB294F862008542F4DB5F
S315080039B000F08FBD044600208DF80000704730B532
S315080039C0C1B005460C46FFF7F6FF252300F02FF990
S315080039D0032200F0FBF92A4600F0F8F9227800F0F5
S315080039E0F5F9627800F0F2F9227900F0EFF96279D8
S315080039F000F0ECF9B4F85A2000F01FF9226A00F03A
S31508003A00E5FA626A00F0E2FA002504EBC500D0E99F
S31508003A100A2300F062FA6D1C032DF6DB002504EB81
S31508003A20C500D0E9102300F058FA6D1C032DF6DB0B
S31508003A3000F04FBD10B5C2B0FFF7BCFF262300F05B
S31508003A40F6F8022200F0C2F9227800F0BFF962788F
S31508003A5000F0BCF9A27800F0B9F9E27800F0B6F9FE
S31508003A60227900F0B3F9627900F0B0F9A27900F092
S31508003A70ADF9E2799AE110B5C2B0FFF79BFF60791C
S31508003A8010B9E07900283AD0272300F0D0F80222AE
S31508003A9000F09CF900F09EFA227900F097F9627915
S31508003AA000F094F9A27900F091F9E27900F08EF924
S31508003AB000F011FAD4E9042300F00FFAD4E906233A
S31508003AC000F00BFA226A00F081FAD4E90A2300F022
S31508003AD004FAD4E90C2300F000FAD4E90E2300F026
S31508003AE0FCF9D4E9102300F0F8F9D4E9122300F020
S31508003AF0F4F900A901A822F052FF00F0B2FB42B087
S31508003B0010BD10B5C2B0FFF755FF282300F08FF897
S31508003B10022200F05BF9227800F058F9627800F08A
S31508003B2055F9627900F052F9A27900F04FF9227D31
S31508003B3000F04CF900F049F9227900F047F9E279EA
S31508003B4000F044F9227B00F041F9628800F075F82C
S31508003B50628900F072F8228E00F06FF800F06CF8B7
S31508003B60E28900F06AF8228B00F067F8B4F84C2076
S31508003B7000F063F8E28A00F060F8B4F8402000F03C
S31508003B805CF8228D00F059F8228C00F056F8228F46
S31508003B9000F053F8628E00F050F8226900F01BFA24
S31508003BA0E26900F018FA626A00F015FAE26A00F0B3
S31508003BB012FA626B00F00FFAE26B00F00CFA626C14
S31508003BC000F009FAA26C00F006FAF3E010B5C2B0EC
S31508003BD0FFF7F0FE292300F02AF8012200F0F6F894
S31508003BE0227800F0F3F8627800F0F0F8628800F0C6
S31508003BF024F8227900F0EAF8E28800F01EF800F0CE
S31508003C001BF8628900F019F8E26800F0E4F9226905
S31508003C1000F0E1F9626900F0DEF9228B00F00DF898
S31508003C20628B00F00AF8E26900F0D5F9C2E070226A
S31508003C3000A901A822F0ABBE228900A901A822F09A
S31508003C4071BE10B5C2B0FFF7B5FE2A23FFF7EFFF26
S31508003C50012200F0BBF8227800F0B8F86288FFF776
S31508003C60ECFFA288FFF7E9FFA27900F0AFF8FFF7AB
S31508003C70E3FFA27A00F0AAF8E27A00F0A7F8A28990
S31508003C80FFF7DBFF226900F0A6F9626900F0A3F9E5
S31508003C90A26900F0A0F9E26900F09DF9226A00F035
S31508003CA09AF9626A00F097F9A26A00F094F994F812
S31508003CB02C2000F08BF894F82D2000F087F894F863
S31508003CC02E2000F083F894F82F2000F07FF894F85F
S31508003CD0302000F07BF8628EFFF7AFFF04F2320463
S31508003CE0A27800F073F8E27800F070F8227900F014
S31508003CF06DF8627900F06AF8A27900F067F8E2795F
S31508003D0000F064F8227A00F061F8627A00F05EF852
S31508003D104BE010B5C2B0FFF74DFE2B23FFF787FF28
S31508003D20012200F053F8227800F050F86288FFF775
S31508003D3084FF626800F04FF9A26800F04CF9E26867
S31508003D4000F049F9227C00F041F8628AFFF775FF16
S31508003D50227D00F03BF8627D00F038F8A26900F099
S31508003D603AF9E26900F037F9226A00F034F9626A32
S31508003D7000F031F994F8282000F028F8628DFFF752
S31508003D805CFFA28DFFF759FF94F82E2000F01EF86D
S31508003D9004F22E046288FFF750FFA288FFF74DFF52
S31508003DA0A27900F013F8FFF747FFA27A00A901A845
S31508003DB022F0A6FD00A901A822F0F1FD9DF8001049
S31508003DC001A811F025FB42B010BD002200A901A8E8
S31508003DD022F096BD30B5C1B000F035F90622FFF7DE
S31508003DE0F5FFD4E9002300F078F800F074F8D4E978
S31508003DF0042300F072F8D4E9062300F06EF8D4E93B
S31508003E00082300F06AF8D4E90A2300F066F8D4E932
S31508003E100C2300F062F8D4E90E2300F05EF8D4E92A
S31508003E20102300F05AF8D4E9122300F056F8D4E922
S31508003E30142300F052F8D4E9162300F04EF8D4E91A
S31508003E40182300F04AF8002504EBC500D0E91A2328
S31508003E5000F043F86D1C032DF6DBD4F8802000F043
S31508003E60B5F8002504EB8500D0F8842000F0AEF8FC
S31508003E706D1C032DF6DB04F280052A6900F0A6F80E
S31508003E806A6900F0A3F82A6A00F0A5F8AA8CFFF779
S31508003E90D4FEEA8CFFF7D1FEAA6A00F09CF82A7FC6
S31508003EA0FFF794FFAA6900F091F8D4F8002100F012
S31508003EB08DF804F2001400F088F8207A38B1E0682A
S31508003EC025F0C0F8012203F01CFAC2B200E08122F4
S31508003ED0FFF77CFFFDE2D4E9022300A901A822F03E
S31508003EE04BBD0146302075E730B5C1B0FFF762FD1E
S31508003EF03123FFF79CFE0422FFF768FF226800F0D3
S31508003F0065F800F062F8A26800F060F8E26800F070
S31508003F105DF8E26A00F05AF8226900F057F862691B
S31508003F2000F054F8A26900F051F8E26900F04EF882
S31508003F30226A00F04BF8626A00F048F8226B00F03B
S31508003F404AF8626B00F047F894F83D20FFF73EFF09
S31508003F50002504EB8500026C00F03DF86D1C0C2D65
S31508003F60F7DBA26B00F037F894F83C20FFF72EFF3A
S31508003F70AFE230B5C1B0FFF71DFD3223FFF757FE9C
S31508003F800222FFF723FF002504EBC500D0E96E23C4
S31508003F90FFF7A3FF6D1C032DF6DBD4F8D02100F044
S31508003FA015F804F2D01400F010F8A26800F00EF824
S31508003FB0E26800F010F8226900F00DF8227DFFF79C
S31508003FC005FF627DFFF702FF83E2626800A901A888
S31508003FD022F0C3BC226800A901A822F0A8BC10B52B
S31508003FE0C2B000F030F80322FFF7F0FEFFF7F2FF49
S31508003FF0FFF771FFD4E90423FFF76FFFD4E906231F
S31508004000FFF76BFFD4E90823FFF767FFD4E90A2314
S31508004010FFF763FFD4E90C23FFF75FFFD4E90E230C
S31508004020FFF75BFFD4E91023FFF757FF94F8480022
S3150800403038B1E06C25F006F8012203F062F9C2B245
S3150800404000E08122B2E60C4600218DF800100346F6
S31508004050702200A901A822F09ABC01463320BEE7C7
S3150800406030B5C1B004460D46FFF7A5FC5023FFF74F
S31508004070DEFD0422FFF7AAFE2A78FFF7A7FE6A7874
S31508004080FFF7A4FEAA78FFF7A1FEEA78FFF79EFEDF
S315080040906A68FFF7A0FF627CFFF798FEFFF795FEB8
S315080040A0FFF793FEFFF791FEAA68FFF794FF2268D1
S315080040B0FFF78CFFFFF789FFA268FFF787FF227CCF
S315080040C0FFF784FEE268FFF781FF02E2F0B5C1B0B0
S315080040D004460D46FFF76FFC5123FFF7A8FD04229F
S315080040E0FFF774FE2A78FFF771FE6A78FFF76EFE0F
S315080040F0AA78FFF76BFEEA78FFF768FE6A68FFF7AB
S315080041006AFF2279FFF762FEFFF75FFEFFF75DFEA3
S31508004110FFF75BFE2268FFF759FF0026182000FB11
S315080041200647BA68FFF752FFFA68FFF74FFF3A7C6F
S31508004130FFF74CFE7A69FFF749FFBA69FFF746FFB2
S31508004140FA69FFF743FF761C032EE7DB226DFFF7BC
S315080041503DFF002604EB8600426DFFF737FF761C0D
S31508004160032EF7DB002604EB8600026EFFF72EFF10
S31508004170761C032EF7DB002604EB8600C26EFFF7DB
S3150800418025FF761C032EF7DBAA68FFF724FFFFF747
S31508004190D0BA10B5C2B0FFF70DFC5223FFF747FDA2
S315080041A00122FFF713FE2268FFF710FF2279FDE5CB
S315080041B02DE9F041C2B006468846FFF7FCFB6023AE
S315080041C0FFF735FD0222FFF701FE3279FFF7FEFD04
S315080041D0002406EB84008268FFF7F8FE641C032CB3
S315080041E0F7DB002406EB84004269FFF7EFFE641C48
S315080041F0032CF7DB002406EB8400026AFFF7E6FED1
S31508004200641C032CF7DB06F2A8077A68FFF7E3FEBF
S315080042103A89FFF712FDDFF83044DFF83054D7E962
S3150800422004012246FEF7D9FF00F020F8D7E9060177
S315080042302246FEF7D2FF00F019F8D7E90823FFF760
S315080042404CFE96F8A820FFF7C1FD4246FFF7BEFDD3
S3150800425000A901A822F0A3FB00F003F842B0BDE8CC
S31508004260F0819DF8001001A811F0D2B802460B465D
S3150800427000A901A822F080BB70B5C2B0FFF79AFB6F
S315080042806123FFF7D4FC0122FFF7A0FD94F82D2047
S31508004290FFF79CFD00250DE00C2000FB0546326B60
S315080042A0FFF794FE726BFFF791FEB26BFFF78EFE77
S315080042B06D1CEDB294F82D008542EDDBFFF7C6BA0A
S315080042C010B5C2B0FFF776FB6223FFF7B0FC0122F8
S315080042D0FFF77CFD2268FFF779FEFFF776FEA268F6
S315080042E0FFF774FEE268FFF771FE2269FFF76EFEBC
S315080042F0A28AFFF7A2FCE28AFFF79FFC228BFFF750
S315080043009CFC57E52DE9F44FC8B005468846994602
S31508004310529E539CFFF74FFB5FEA080003D0B8F1A3
S31508004320010F32D0B1E0012002909DF8200108B1BA
S315080043300128F7D101902DB1022D2AD027D3032DBC
S3150800434029D0A2E0002718F07FFE4FEA002A1DB9FF
S3150800435018F07FFE40EA0A0A002E35D000F0A2F8CF
S31508004360012200F0B0F800F0ACF8019A00F0AAF8C3
S315080043703A4600F0A8F800F090F8B8F1000F02D11C
S31508004380012D0AD14CB9002215E00220CCE70127FD
S31508004390D9E70227D7E70327D5E7012200F093F8E4
S315080043A01FFA89F200F084F8726800F086F8B2689D
S315080043B000F083F8327B00F086F800A907A822F0FF
S315080043C0EEFA00F065F860E09DF82011404618F016
S315080043D033FE0446012CA3BF04F109000A2190FB11
S315080043E0F1F501254FF0000901E009F10109EDB2E7
S315080043F0A9454ADA0A2094FBF0F000280CBF2646A5
S315080044000A2600F04FF8012200F05DF800F059F88E
S31508004410019A00F057F83A4600F055F800F03DF8D2
S31508004420F2B200F050F84FF0000B0CE04FF6FF72B6
S3150800443000F03EF800F040F800F03EF8002200F0E8
S3150800444042F80BF1010BB34515DA03AB00229DF8D0
S315080044502011404618F09CFC0028E7D0BDF80C2037
S3150800446000F026F8049A00F028F8059A00F025F8D6
S315080044709DF81820E3E700A907A822F090FA00F0B3
S3150800448007F8A41BE4B2002CAFD149B0BDE8F08F01
S315080044909DF8001007A810F0BBBF524600A907A850
S315080044A022F045BA6323702200A907A822F06FBA42
S315080044B000A907A822F036BA002200A907A822F008
S315080044C04CBA029AD2B200A907A822F019BAFFF785
S315080044D082FD00A901A822F062FA9DF8001001A841
S315080044E010F096FF41B030BD30B5C1B0FFF762FAA3
S315080044F0FF23FF22FFF79CFB00250BE0285D0D2814
S3150800450006D00A2804D0F02D02DA0246FFF75EFC30
S315080045106D1CEDB2204624F0CBFF8542EED3D8E7DA
S315080045200EB418B503AA4A4C0146204625F056F99A
S315080045302046FFF7D9FF11BC5DF810FB00B589B01E
S3150800454000A81FF09BFC9DF80C000A2803D3FE2147
S315080045500B2000F049F809B000BD01463D4800E0CF
S315080045603C49102224F0BDBA00213A4A02EB8102E6
S3150800457050F82130D361491C0429F6DB7047002125
S31508004580344A02EB8102D26940F82120491C0429E9
S31508004590F6DB70473049A02224F0A3BA2D490875E6
S315080045A070472C48007D70472A4948757047294846
S315080045B0407D7047274A9075D1757047254A937D87
S315080045C00370D07D087070472248007E7047014608
S315080045D0224800E02149182224F083BA01462048DF
S315080045E0FFE7142224F07DBA80B5FF281CBF194ABC
S315080045F01074FE2903D00091012300F01DF801BDB7
S315080046001448007C7047F0B5059C069D079E124F1E
S31508004610C7E90401C7E906237C65BD65FE65F0BDEB
S3150800462080B5FF281CBF0B4A5074FE2903D00091A1
S31508004630022300F001F801BD2922FE21012005F020
S31508004640E5BB0448407C7047F8C1631ADCA54C40BA
S31508004650F8B00020FCB70020C8B600202CBE002009
S3150800466070BE002010B586B00C46014600A800F0C2
S3150800467004F800F000FD214644E0082202802422C6
S3150800468082705022C270DFF8582B92F900300371FD
S3150800469092F90130437192F9022082715222C27155
S315080046A00C2909D3DFF83C2B02EB410111F9182C30
S315080046B0027211F9171C01E0582101724172704704
S315080046C010B586B00822ADF8002000AA24239370FE
S315080046D050238DF80330DFF8083B93F900408DF836
S315080046E0044093F901408DF8054093F902308DF89E
S315080046F0063052238DF8073010728DF8091000F035
S31508004700BAFC4E2100A813F03AF800A813F00BF8EB
S3150800471000A813F030F806B010BD00B5A3B000A885
S315080047201DF062FE0C2103A8FFF7A7FF00F096FC18
S31508004730019903A813F0A6F900F090FC9DF8001063
S3150800474003A813F056F800F089FC9DF8081003A892
S3150800475013F04FF803A812F0E6FF03A813F00BF8BE
S3150800476023B000BD1FB504466079532823D101A89C
S315080047701DF03AFE0022012100F0F4F8029000F044
S3150800478021FC8DF8040000AA0321204613F0A0FAA4
S315080047909DF8001009B18DF80C0001A80EF036F945
S315080047A038B101A81DF01AFE41210C20FFF75AFF67
S315080047B01FBD5621F9E7512808BFFFF7AEFF1FBDF9
S315080047C010B5A2B000AA0821002019F04CF90E2154
S315080047D001F0A3F801F0A5F806220098016A00F096
S315080047E025FB01F09EF8382101A812F0C8FF01F058
S315080047F098F80098808CB0F5806F05D0B0F5C06F3A
S315080048000CBF4F214E2100E0452101A812F0B7FF49
S3150800481001F087F80098C08CB0F5005F0CBF322114
S31508004820312101A812F0ABFF01F07BF801220C211F
S3150800483001A813F006F9002419F02BFA800748BFDF
S31508004840042419F026FAC00748BF44F0080401F00A
S3150800485068F80122214601A813F0F3F800F046BCD7
S3150800486070B586B004466079532873D100220621B4
S3150800487000F078F8C5B2E80704D556210E20FFF7F0
S31508004880F1FE6BE0A807F8D400F097FB029000222F
S31508004890022100F049FB3828EFD14FF48056002258
S315080048A0032100F041FB45284ED04E2808D04F285A
S315080048B043D0652848D06E2802D06F283DD0DCE763
S315080048C00020ADF80C00ADF810000022042100F01D
S315080048D02BFB312802D0322839D0CEE70020ADF89C
S315080048E00E0002A80EF069F80028C6D001AA082111
S315080048F0002019F0B8F80198203002A91CC91CC07C
S3150800490041210E20FFF7AEFE00F00AFB0198008D4C
S3150800491000900198C38C828C016A00201AF042FE2E
S31508004920A80800F00101022019F0B7F9E80800F01C
S315080049300101012019F0B1F910E04FF4C060ADF89B
S315080049400C00ADF81060C0E74FF48060F7E74FF44D
S315080049500050C4E7512808BFFFF732FF06B070BD04
S3150800496000220221204613F0C8B950B5AFB004465C
S31508004970DFF8486C40F2DE70432C67D0442C61D0D7
S31508004980482C1AD04E2C58D0502C16D0532C71D1F6
S3150800499002218DF81A100E218DF81B1003218DF8AF
S315080049A01C100C218DF81E108DF81F10ADF8200074
S315080049B01222314602A824F0F7F8112109A8FFF7B8
S315080049C05CFE00F0FEF8214600F0F8F8482C02D00C
S315080049D0502C54D09EE000F0E6F900F0F2F80422DC
S315080049E042F22D3100F0E1F800F0EBF80024A1576F
S315080049F000F0E4F8641CA0B20828F8D300F0E1F847
S31508004A0000F0D6F800F0DDF802220198417A00F0AD
S31508004A10CCF800F0D6F802220198017A00F0C5F821
S31508004A2000F0CFF804220198418900F0BEF800F0A2
S31508004A30C8F802220198017BA2E002A900201FF013
S31508004A4010FABAE702A815F0E4FBB6E702218DF8DA
S31508004A501A1000218DF81B108DF81C1008218DF8EE
S31508004A601F1004218DF81E10ADF82000122206F141
S31508004A700C019FE756211120FFF7F4FD88E000F0AE
S31508004A8092F900F09EF800F09CF800F08CF800F01F
S31508004A9098F800F088F800F094F800F089F800F02B
S31508004AA090F801984089024640F2D171884228BFA1
S31508004AB0A2F5FA620198007A00900198437A00F00C
S31508004AC069F800F06CF800F07CF8002000900023EC
S31508004AD00198027B00F05EF800F061F800F071F8CA
S31508004AE0019800F1180100F05BF800F06AF80198E7
S31508004AF000F1280100F054F800F063F80220009055
S31508004B000198006924F09EFA02460B4609A812F09D
S31508004B10DFFE37E000F055F8002405E002A821562C
S31508004B2000F04CF8641CA4B200F02FF98442F5D3C7
S31508004B3000F047F802229DF81A1000F036F800F047
S31508004B403CF802229DF81B1000F02FF800F035F80B
S31508004B5002229DF81C1000F028F800F032F8022214
S31508004B609DF81E1000F021F800F02BF802229DF89F
S31508004B701F1000F01AF800F024F80422BDF82010DF
S31508004B8000F013F809A812F0CEFD09A812F0F3FDFB
S31508004B902FB050BD06F1140129A824F053BD29A948
S31508004BA009A812F0F5BD0122002109A812F001BEDC
S31508004BB00198416809A812F01CBE2E2109A812F016
S31508004BC0DEBD09A812F0E2BD427A4379532B05D11E
S31508004BD0502A00D104E05621112043E550B2C4E61C
S31508004BE0F0B59DB0054600240022022113F085F891
S31508004BF04AF2A551884218BF562140F0C1800022CA
S31508004C000421284613F079F8C6B22246032128461D
S31508004C1013F05EF8012806D0022800F0A4800328C5
S31508004C2000F0A980ABE000F0BEF8382201990FA881
S31508004C3023F057FFF0076AD500220521284613F00E
S31508004C4047F8109002AF062200F0A2F858B300F019
S31508004C509CF840B30A22002103A821F045FF8DF8ED
S31508004C6044009DF8440008B1202800D30124002000
S31508004C7038710A2200210DF10A0021F035FF8DF85E
S31508004C8045009DF8450008B10D2800D3012400F021
S31508004C9083F800F5FA60ADF84600BDF8460040F224
S31508004CA0DE71884200D20124072200F071F850B163
S31508004CB000F06BF838B100F06FF88DF848009DF8F1
S31508004CC04800182800D3012415A8002100220B4605
S31508004CD00F468EC0082200F05BF838B100F055F890
S31508004CE020B10F2202A915A823F05EFF19A80021FA
S31508004CF00A460B468EC0092200F04AF838B100F081
S31508004D0044F820B10F2202A919A823F04DFFB007D5
S31508004D101BD500220A21284613F00AF823F010FCB6
S31508004D200090DFF8181B24F0F3FD28D8DFF8CC1C18
S31508004D3024F0DCFD23D21390002200A901201CF0E8
S31508004D40DEFD012804BF00981490C4B938220FA9C3
S31508004D50019823F0C6FE00220121012018F083FEE7
S31508004D6068B141210CE000F01EF83821019825F0C1
S31508004D706DF82246F0E7002201210220EEE75621CF
S31508004D801120FFF76FFC1DB0F0BD02A824F090BB00
S31508004D9002A9284612F064BF0020B8700A22002132
S31508004DA002A821F0A1BE01AA0121002018F05BBECD
S31508004DB030B5A1B000A90DF1010021F02BFF9DF837
S31508004DC00100012804D0022804D0032804D005E0F5
S31508004DD0002404E0012402E0022400E003249DF8F4
S31508004DE00000012804D0022804D0032804D005E0D6
S31508004DF0002504E0012502E0022500E003251E2126
S31508004E0000F08BFD00F08DFD0122012100F00EF867
S31508004E1000F087FD0122214600F008F800F081FD28
S31508004E200122294600F002F800F065BD01A812F03B
S31508004E30C0BC4079532803D156211E20FFF712BC67
S31508004E40B6E7000038B504466079532863D10022D6
S31508004E50012100F069F8054600F0B4F8C0B2432D08
S31508004E6007D0482D05D0572D03D0462D01D0472D04
S31508004E7051D14124401E092828D8DFE800F026052C
S31508004E8026260C2610141B1F00220821012018F0C4
S31508004E90EAFDD8B919E0002208210220F7E7002226
S31508004EA010210220F3E700220421022018F0DBFD7E
S31508004EB060B90AE0002220210220E8E700224FF428
S31508004EC08071022018F0CFFD00B9562421460F2024
S31508004ED0FFF7C8FB412C22D100F022F8432D08D059
S31508004EE0462D12D0472D13D0482D05D0572D06D064
S31508004EF031BD0021012004E00021032001E000214A
S31508004F000220BDE8344010F02BBA00210620F8E74D
S31508004F1000210720F5E756210F20FFF7A3FB31BD37
S31508004F2040F24D101BF03BBA204612F024BF80B564
S31508004F30407953280ED141211A20FFF793FBFFF73A
S31508004F40EFFF002300221146DFF86C0CBDE8005085
S31508004F5010F0EAB956211A20BDE80440FFF782BBD3
S31508004F6070B504466079532820D100F026F8C5B2FA
S31508004F7000F028F8C6B200220321204612F0A8FE47
S31508004F800446012D14D1012E04D0022E10D10DF0A5
S31508004F9006FD68B141212020FFF764FB0023224665
S31508004FA031460120BDE870400DF087BC512803D179
S31508004FB056212020FFF756FB70BD0022012120460E
S31508004FC012F086BE00220221204612F081BE10B5DC
S31508004FD0A4B0044641280AD0472806D0502808D04D
S31508004FE054280CBF0120002004E0022002E0032020
S31508004FF000E0042001AA02A91CF081FC012804D0C3
S3150800500056211F20FFF72EFB21E01F2103A8FFF7DB
S3150800501034FB00F023F8214603A812F0B0FB00F099
S315080050201DF802200090029824F00CF800F011F800
S3150800503000F014F801200090019824F003F800F01D
S3150800504008F803A812F06FFB03A812F094FB24B02B
S3150800505010BD02460B4603A812F03ABC03A812F08C
S3150800506095BB4179532903D156211F20FFF7FABA78
S3150800507090F90900ABE700A812F088BB00B58DB01F
S315080050804179512913D1012200A912F0E9FD70B125
S31508005090B9A100A824F0D8F810B900F00EF80AE073
S315080050A0B6A100A824F0D0F808B90120F5E75621E2
S315080050B02120FFF7D7FA0DB000BD10B5A2B00446FF
S315080050C0212100F02AFC14B1012C05D00EE000F0D5
S315080050D028FC00A9002003E000F023FC00A9012019
S315080050E002F095FC10B1009900F08AFC01A812F0B4
S315080050F01AFB01A812F03FFB22B010BDF0B5ADF2C5
S31508005100444D04460D46FF26012201A912F0A8FDCA
S31508005110002844D060799AA7512843D1DFF8A84CD3
S31508005120042204F1080100F06FF840B900F067F8AE
S31508005130052802D300F058F8C6B2022418E0042263
S31508005140214600F061F840B900F059F8052802D365
S3150800515000F04AF8C6B203240AE000F053F8F0B9A2
S3150800516000F04DF8042802D300F043F8C6B2042430
S315080051703146204600F062FE88B1AAA81EF08CFED1
S3150800518030A815F03DF80EA815F03FF80EA80090C7
S31508005190AAAB30AA3146204600F039F81CE000F0E8
S315080051A0C8F819E0532817D100F02CF80028F6D1D2
S315080051B000F025F80428F2D300F01BF8C6B2FF2E3B
S315080051C0EDD03146042000F039FE0028E7D02A4603
S315080051D02146304600F047FD0DF2444DF0BD000073
S315080051E0F4B100201C9502080A22002102A821F029
S315080051F07BBC0A2200210DF1070021F075BC01A82D
S3150800520024F056B90322394601A824F0A9BA2DE993
S31508005210FE450C4690469A460A9FFF2C14BF012568
S31508005220002530B1022807D003D3042850D029D34B
S3150800523079E000F082F876E0012606E000F075F8DD
S3150800524000F0A0F8761C042E6DDAFF2C01D0B442CB
S31508005250F8D1012EF2D0022E02D0032E05D0F1E7A6
S3150800526000F063F800F0B7F9ECE70AF043F820B16C
S3150800527000F05BF800F016FAE4E7002DE2D000F043
S3150800528058F8DFE7012606E000F04FF800F04EFA7E
S31508005290761C042E47DAFF2C01D0B442F8D1012E31
S315080052A0F2D0022E02D0032E05D0F1E700F03DF829
S315080052B000F07FFAECE797F8341021B100F035F8E2
S315080052C000F0BEFAE4E7002DE2D000F032F8DFE79E
S315080052D0012606E000F029F800F026FB761C062ECB
S315080052E021DAFF2C01D0B442F8D1012EF2D0F5D341
S315080052F0032E09D003D3052E10D00AD3EEE700F00B
S3150800530014F800F084FBE9E700F00FF800F0E1FB81
S31508005310E4E700F00AF800F01EFCDFE700F005F805
S3150800532000F04CFCDAE7BDE8F7853A4651464046B8
S31508005330704756212220FFF795B900B5A3B010B1E2
S31508005340012817D014E0DFF8841A00A824F07AF9A7
S31508005350222103A8FFF791F9FFF780FE00A903A809
S3150800536012F016FA03A812F0DEF903A812F003FAEF
S3150800537023B000BDCAA1E8E747474100524D4300A4
S3150800538043414C002DE9F043A3B0804689460024EA
S3150800539001A90DF1050021F03DFC222102A8FFF725
S315080053A06CF900F015F9DFF8281A02A812F0F0F9DE
S315080053B0DFF8207A97F83E00DFF81C1A91F9C51035
S315080053C0302906D0C10748BF0124810748BF44F0E9
S315080053D00204410748BF44F00404010748BF44F0EB
S315080053E00804C10648BF44F01004810648BF44F0CB
S315080053F02004410648BF44F04004000648BF44F074
S31508005400800407F23E056878410644BF4FF4807170
S315080054100C43C10744BF4FF400710C43810748BFD2
S3150800542044F48064410748BF44F40064000748BF59
S3150800543044F4805409F05EFF28B198F8B0000007DC
S3150800544048BF44F400546878000648BF44F48044D2
S3150800545000F0BEF8214602A812F014FB00F0B8F8D6
S315080054606878001100F0030100F0AFF800F0B0F81A
S31508005470A97800F0AAF800F0ABF8396800F0A5F8AA
S3150800548000F0A6F8DFF85469B18800F09EF800F03D
S315080054909FF8798D00F099F800F09AF800F0FAF87C
S315080054A0B7F9220024F02EF900222B461EF0A6FB9F
S315080054B000F086F800F08CF802200090B7F9240076
S315080054C024F020F900F0E2F800F07AF800F080F80D
S315080054D003200090D9E90E234FF09440DFF8001915
S315080054E01FF008FD00F06CF800F072F8B17D00F0CE
S315080054F06CF8D8F8500108F25011820303D54A68AF
