S00F0000416172647661726B2E733139B9
S31508000000000C002095370208492C02084B2C0208E0
S31508000010552C02085F2C02086F2C0208000000000D
S31508000020000000000000000000000000892C020803
S315080000308B2C0208000000008D2C02088B9A010800
S31508000040F19C0108D5380208D5380208D5380208C7
S31508000050D5380208D5380208E19A0108D5380208C9
S31508000060D5380208D5380208F79A01080B1B01088B
S31508000070D5380208D5380208D5380208D538020816
S31508000080D5380208D5380208DD9A0108D53802089D
S31508000090D5380208D5380208D53802080D9B01085C
S315080000A0D5380208D5380208D5380208D5380208E6
S315080000B0C99A0108D5380208D5380208279B0108CD
S315080000C02D9B0108339B0108399B0108D538020886
S315080000D0D5380208318A0108518A0108858A01083B
S315080000E0D5380208D5380208D5380208D5380208A6
S315080000F0D5380208D5380208D5380208D538020896
S31508000100D5380208D5380208D5380208D538020885
S31508000110D5380208D5380208D5380208D538020875
S31508000120D5380208D5380208D5380208D538020865
S3150800013080B5DFF8B80A0021017001F08DFC5C215A
S31508000140DFF8A00CBDE8044023F0B6BB2DE9F84360
S315080001500C461546042D33D36678A778DFF88C8AC3
S31508000160012088F80000A7F11009012E04D0022EFC
S3150800017035D0032E67D020E0052D04D20420009048
S315080001800023002215E0062D03D204200090002348
S315080001900EE02946204600F0D2F8032805D1702F34
S315080001A010D12946E01C1CF027FA30B10090E378FC
S315080001B03A46FE21304603F097F8002088F80000FA
S315080001C0BDE8F183B9F1300FF0D22946E01CDFF81B
S315080001D0182C02EB870252F8402C9047E5E7052DCC
S315080001E0CCD3062DD1D32946204600F047F803285C
S315080001F0DBD1702F10D1072D06D1072301222179D3
S31508000200E07804F05CF9D0E7062D02BF0623012248
S31508000210FE21F5D00420C9E7B9F1300FC6D2DFF8C0
S31508000220CC0B00EB870C072D07D107230122217978
S31508000230E0785CF8405CA847B7E7062DEAD10623C4
S315080002400122FE21F4E7052D05D2042000F077F9F6
S3150800025000210320AFE747B1112F06DA08EB870024
S315080002604268DFF8841C8A4204D1032000F067F94B
S315080002703946A0E72946E01C904796E710B582B0B4
S3150800028002460B460324D07811799278112A08D0B1
S31508000290122A28D0212A44D0232A46D0702A48D0A8
S315080002A04BE00024062B20D101280AD003280BD0C6
S315080002B0042809D0052814D0062805D0FF2806D01A
S315080002C00FE000F008FF38E003F036F834E000F0FD
S315080002D023FF0094FF231122FE21022003F004F8D5
S315080002E02BE0032429E0062B01D0042425E003286B
S315080002F008D0042809D005280AD006280BD00828D3
S315080003000CD01AE000F016FF16E000F03FFF13E0ED
S3150800031000F06EFF10E001F079F80DE001F012F937
S315080003200AE0012200F075F906E0012200F00CFA55
S3150800033002E0012200F03AFE0446204616BD70B5DA
S3150800034082B003268278122A08D0212A79D0232A55
S315080003507AD0362A7BD0702A7CD07EE0051DC278FA
S31508000360052A06D0062A07D0072A3CD0082A65D0CF
S3150800037073E000F0A0FF6FE00526DFF8684A2878EA
S31508000380012802D0022827D067E008292DD15C2150
S31508000390204623F091FA687820700120607001F0F9
S315080003A09EF918B120F0ECF822F087F820F0D2FF79
S315080003B0002011F038FB002015F068FC0026009696
S315080003C00623122200F0DDFA6078002845D100F0F5
S315080003D018FB00F01AFB40E0082901D0072904D1D0
S315080003E000202080EAE7092901D0042635E0AC7808
S315080003F0022C01DB052630E028783042FAD011F0CD
S31508000400E7F918B111F046FA17F04CFD21F027FD6F
S315080004102878C00703D52146002021F04BFD28780F
S31508000420800703D52146012021F044FD00200090D5
S315080004300723122200F0A5FA00260EE001F0C9F8FB
S315080004400AE000F0BDF807E000F00EF904E000F05D
S31508000450E8F901E000F037FA0646304676BD10B5F1
S3150800046082B0DFF880496078012806D101F04CF99E
S315080004702078C00748BF00F0C9FF01F0E3FA9DF8ED
S315080004800100022803D0032804D1002109E0002135
S31508000490162007E04FF4405116201BF019F94FF4C7
S315080004A0405117201BF014F99DF80000022803D0CC
S315080004B0032804D1002109E00021202007E04FF499
S315080004C0405120201BF004F94FF4405121201BF025
S315080004D0FFF813BD0320704780B5002102201BF0EA
S315080004E0F7F800F02BF8072100F025F8FA2019F0A4
S315080004F068FB002106200EE080B5002104201BF0D1
S31508000500E7F800F01BF8092100F015F8FA2019F0B1
S3150800051058FB0021072012F05FFF002002BD80B5BE
S3150800052000F00CF8052100F006F8642019F049FBE4
S3150800053000210220EFE7032002F0D6BE002000903B
S31508000540FE23FE22704780B5FFF7F8FF0121FFF76B
S31508000550F2FF642019F035FB00210320DBE780B5A4
S31508000560FFF7ECFF0221FFF7E6FF642019F029FBED
S3150800057000210120CFE780B5002108201BF0A8F84C
S31508000580FFF7DCFF0321084602F0AEFEFA2019F059
S3150800059018FB00231A461146DFF8000A12F000FF7E
S315080005A0002002BD80B590F90000012804D0B0F102
S315080005B0FF3F0CBF0220002010F039F8002002BDD2
S315080005C030B583B0C4780325012C02D0022C1BD089
S315080005D01DE007291AD110F8045F2846052801D01E
S315080005E00A280FD1012D0DDB19F0EDF900F0A9F855
S315080005F0019880F82D50002500950123212200F04E
S31508000600C0F904E0052502E00F2900D00425284694
S315080006103EBD30B5C3B0044600258DF80050012A0A
S3150800062003D1062B18BF042019D100F08AF8012C33
S3150800063017D10123212200A902A820F0D0FA019897
S3150800064090F82D2000F0E9F800A902A820F0CFFACA
S3150800065000F0DEF800F0BAFD18BF0925284643B0B9
S3150800066030BD0325FAE700002DE9F04383B00D46B7
S31508000670C6780327041D00F064F80198D0F8208096
S31508000680B0F82490022E42D1092D18BF04273ED176
S315080006902078052853D8DFE800F0033D4043464953
S315080006A04FF496554FF48050617819B1022943D01A
S315080006B03FD344E00026002001990D6201998E84FB
S315080006C001990885A07800F0010101201AF00AF9BD
S315080006D0A078400800F0010102201AF003F900276B
S315080006E000970223232200F04CF9A84501D1B14511
S315080006F00DD040F24D1019F064FA0198008D009063
S315080007000198C38C828C016A002018F005F93846D6
S31508000710BDE8FE834FF41655C4E74FF49645C1E786
S315080007204FF41645BEE74FF46145BBE74FF4E13594
S31508000730B8E74FF4C066BFE74FF48066BCE705200C
S31508000740E6E701A81AF0AFB870B5C2B000218DF877
S315080007500010012A03D1062B18BF042056D10228FF
S3150800076053D1FFF7EEFF0198006AB0F5965F22D0E5
S31508000770B0F5165F1DD0B0F5964F18D0B0F5164FE8
S3150800078013D0B0F5614F0ED0B0F5E13F13D1052473
S315080007900198808CB0F5806F0FD0B0F5C06F0CBF94
S315080007A0012500250AE00424F2E70324F0E70224E1
S315080007B0EEE70124ECE70024EAE7022500261AF012
S315080007C08BF8C00748BF01261AF086F8800748BF8D
S315080007D046F002060223232200A902A820F0FFF908
S315080007E0224600F01AF82A4600F017F8F2B200F08E
S315080007F014F800A902A820F0FAF900F009F800F0A8
S31508000800E5FC14BF0920002000E0032042B070BDBB
S315080008109DF8001002A812F035BE00A902A820F023
S3150800082097B970B582B0C47803260025001D052C3B
S3150800083002D0072C1CD044E0082901D0042640E049
S31508000840007810F0070103D002290AD009D330E056
S315080008500020064600210FF0FBFE072C18BFFE25D8
S3150800086029E000064CBF4FF0FF3001200026F1E7D3
S315080008701029E3D10578E5B9417811F0070103D0CD
S31508000880022907D006D314E00020002600210FF025
S31508000890EAFEE2E7801C20F042F9DFF8781C22F035
S315080008A029FD06D3DFF8701C22F036FD88BF002626
S315080008B0ECD8052605E0009623463622294600F0A0
S315080008C061F8304676BDF8B50C460325C178272968
S315080008D00ED0502921D0512924D0602926D061294B
S315080008E028D062292AD070292CD0712942D045E017
S315080008F0DFF8284C2146401C19F0F5FB002808D4DF
S3150800090000250095272300F03BF8204602F018F84A
S3150800091034E005250020206030E0214600F035F857
S3150800092005462BE0214600F074F8F9E7214600F069
S315080009305FF9F5E7214600F068FAF1E7214600F08D
S31508000940D5FAEDE700250026071D092C03D3B81CA8
S3150800095020F0DAF805460D2C03D3B81D20F0D4F89C
S31508000960064633462A46797838780FF095FE20B938
S31508000970052503E0214616F06FFE00252846F2BD40
S315080009807022FE21012002F0AFBC10B58AB00446E1
S3150800099002AB002204A9601C19F0BFF903282CD168
S315080009A064790CB905202AE0E00709D59DF82100ED
S315080009B008B10128F6D110F011FF08B906201EE08B
S315080009C001A819F0A6FFE00706D59DF8210000B199
S315080009D00120019981F888000021002019F09CFF68
S315080009E048B1002400945023FFF7CAFF00F009F825
S315080009F000F00BF802E00A2400E0052420460AB0BD
S31508000A0010BD4FF4FA7019F0DCB80021FF2012F07F
S31508000A10E3BC2DE9F043A3B0044602AA04A9601C6E
S31508000A2019F012FA032840F0DC8015F0A8F808B986
S31508000A300320D8E064790CB90520D4E0E00710D586
S31508000A409DF8090018B1012801D00228F4D19DF8B3
S31508000A500A0008B10128EFD19DF80B0008B101285A
S31508000A60EAD104F00205DFF8882C1826002D3FD0BD
S31508000A700498DFF8801C22F03DFCDDD3DFF8781CF3
S31508000A8022F04AFCD8D9002704A806FB0703986871
S31508000A904FF07E5122F02EFCCED3DFF8601C22F0F8
S31508000AA03BFCC9D9D8684FF07E5122F023FCC3D34A
S31508000AB000F076FAC0D9187C0A38C0B21728BBD21B
S31508000AC0586900F070FAB7D300F06AFAB4D9986991
S31508000AD000F069FAB0D300F063FAADD9D86900F02E
S31508000AE062FAA9D300F05CFAA6D97F1C032FCBDBE8
S31508000AF014F0040817D01898DFF8041C22F0FAFB43
S31508000B009AD300F04DFA97D919A814F07DFA00285F
S31508000B1092D01CA814F078FA00288DD01FA814F0DB
S31508000B2073FA002888D014F0080909D09DF8140033
S31508000B3008B1012894D115F019F808B9062052E031
S31508000B4001A819F037FFE00705D501988430DDE9DB
S31508000B500223C0E900238DB101980499C1600027DA
S31508000B6006FB07F101980818143004AA89180831F9
S31508000B70182221F006FD7F1C032FF1DBB8F1000FC8
S31508000B800FD001981899C16519A8019960311CC838
S31508000B901CC101996C311CC81CC1019978311CC84B
S31508000BA01CC1B9F1000F03D001989DF81410017407
S31508000BB0019800F10C01843014F0F5FF01280ED1DC
S31508000BC00021002019F0F9FE48B1002400945123B1
S31508000BD0FFF7D6FEFFF715FFFFF717FF02E00A2417
S31508000BE000E00524204623B0BDE8F0834414002025
S31508000BF02DE9F041ADF5AF6D064614F001FA08B9D6
S31508000C000320A4E00022E6A9701C19F09FF9022827
S31508000C1011D10FF0B5FB0DF5A868FFAFFF373937CF
S31508000C200024717941B1022900F0A380C0F09380B5
S31508000C30032900F0AE80D2E0C00701D4052086E083
S31508000C40E8A814F0E1F90028F8D0EBA814F0DCF9CC
S31508000C500028F3D0EEA814F0D7F90028EED006A89D
S31508000C601BF02EFF82A81BF03DFF0EA813F0B8FB61
S31508000C7000F0C7F801208DF88C0400200DF591616D
S31508000C8001EB8001E6AA02EB800293688B60536948
S31508000C904B61126A0A62401C0328EFDB06984FF480
S31508000CA07A71B0FBF1F0CDF83405BDF91C00B880B7
S31508000CB0DFF8500A3699014081420FD1DDE9760105
S31508000CC00DF58062C2E9500176A8D0E90223C8E989
S31508000CD00223D0E90423C8E9042320E09DF8A802EA
S31508000CE0C0071AD5DFF80C4DDFF80C5DDDE9820187
S31508000CF022462B461EF0C4F80DF58062C2E9500163
S31508000D00DDE9840122462B461EF0BAF8C8E902013D
S31508000D10DDE98601C8E9040101E000F069F80DF58E
S31508000D20916014F0E5F8002402A819F02AFE02984A
S31508000D3008300DF59161F02221F023FC00210846C8
S31508000D4019F022FE00946023FFF71AFE20460DF5DF
S31508000D50AF6DBDE8F08180071CD500F052F805207C
S31508000D608DF88C048DF8B4440DF5916014F0C0F834
S31508000D70DAE740070ED500F044F89DF8B50408B93F
S31508000D800624E3E705208DF88C0401208DF8B404C9
S31508000D90EAE700077FF552AF01A819F06BFD019845
S31508000DA0007808B10824D1E701988068039003A861
S31508000DB00199496841600199C968816000F021F884
S31508000DC00DF5956203A9012012F087FE02208DF821
S31508000DD08C04CDF83445BC8000F00AF8C4E7052435
S31508000DE0B4E700003CA8002098110020D810002085
S31508000DF00DF58060C0E95044C8E90244C8E90444D6
S31508000E0070470DF5916014F059B930B5FBB004463A
S31508000E1014F0F6F808B9032064E002A9601C19F07A
S31508000E2005F901285CD10FF0ABFA400701D405207B
S31508000E3058E09DF835000B28F9D200250C2409E066
S31508000E4002A804FB0500303014F0DEF80028EED0C6
S31508000E506D1CEDB29DF835008542F1DB3EA814F015
S31508000E602DF905208DF8FC009DF835008DF8250133
S31508000E70010018BF01218DF8241100250CE004FBA0
S31508000E8005F13EAA8A1802ABC9180B6B13634B6BA4
S31508000E905363896B91636D1C8542F0DB0A2D3EA86E
S31508000EA009DA04FB0500DFF8541B0163416381631B
S31508000EB06D1CEDB2F2E714F01BF8002401A819F036
S31508000EC060FD019808303EA9F02221F05AFB002166
S31508000ED0084619F059FD00946123FFF751FD00E01B
S31508000EE0052420467BB030BDD504000810B58AB06D
S31508000EF0044614F085F808B903204DE002A814F05A
S31508000F0074F902A9601C19F0B6F8012842D10298B2
S31508000F1000F049F826D3DFF8E82A00F041F821D98D
S31508000F20039800F040F81DD300F03AF81AD904984F
S31508000F3000F039F816D300F033F813D9059800F005
S31508000F4032F80FD300F02CF80CD9069800F02BF8DD
S31508000F5008D300F025F805D9BDF81C0010B1BDF876
S31508000F601E0008B9052017E002A814F0F9F801A830
S31508000F7019F007FD0198DC3002A91C2221F001FBBB
S31508000F800021002019F000FD002400946223FFF7D9
S31508000F90F7FC00E0052420460AB010BD010000A5B4
S31508000FA0114622F0B9B9002122F0A4B930B5EDB046
S31508000FB00C46002512280CD050282ED051283CD09B
S31508000FC052284BD0602855D0612864D0622870D04A
S31508000FD07DE0012A05D1062B05D0072B04D0042075
S31508000FE077E0062B00D101242046012C05D0022CDF
S31508000FF003D0032C01D0042C0BD100AA01A91AF0A6
S3150800100006F8012807D1009A0199204601F074FADA
S315080010105EE005255CE008255AE0012A01D1062B89
S3150800102001D0042554E0002205A902A810F0EBFB24
S3150800103002A905A801F05CFF4AE0012AF1D1062BB6
S31508001040EFD114F09CFD002841D00AA902A814F09B
S315080010509AFD02A90AA801F084FF39E0012AE0D125
S31508001060062BDED104A819F0A5FC0498001D01F092
S31508001070DAFF2DE0012AD4D1062BD2D113F0C0FF16
S3150800108028B328A814F01AF813F0ECFF014628A88C
S3150800109001F0D7FF1CE0012AC3D1062BC1D113F0FA
S315080010A0AFFFA0B128A814F009F828A802F023F881
S315080010B00EE0012AB5D1062BB3D113F0A1FF30B14A
S315080010C064A814F092F864A802F039F800E0032541
S315080010D028466DB030BD00B5C1B000208DF80000BF
S315080010E00123112200A901A81FF079FD022200F0B0
S315080010F07BF800F078F800F020FA0C2200F074F87B
S3150800110000F071F840F2DD7200F00EFA00F067F8B0
S3150800111000F060F841B000BD80B5FFF7DCFF0320A2
S3150800112002F00AF9042002F007F90620BDE8024099
S3150800113002F002B910B5D0B000F0B2F8032300F0FF
S31508001140AAF800F097F89DF80C2000F0A0F89DF892
S315080011500D2000F09CF800F013F8002400F094F835
S31508001160641C102CFADB00A90FA81FF040FD00F044
S3150800117086F800F02BF80CBF0020092050B010BDEF
S31508001180BDF80E2000A90FA81FF0F4BC10B5D0B00A
S3150800119000208DF8000041A819F04AFB042300F04E
S315080011A0C7F9002441A8201890F8282000F01CF858
S315080011B0641C102CF6DB00F012F800F00BF800F0B7
S315080011C005F80CBF0020092050B010BD9DF800108E
S315080011D0884270479DF8001001A812F053B900A97B
S315080011E001A81FF004BD042200A901A81FF0B0BC85
S315080011F010B5D0B000F054F8052300F04CF80022E2
S31508001200FFF7C0FF00F052F800F050F800F04EF873
S3150800121000F030F89DF80C2000F039F89DF80D2004
S3150800122000F035F8FFF7ACFF9DF8102000F02FF816
S31508001230002400F029F8641C102CFADB002401A80D
S31508001240201890F8282000F022F8641C102CF6DBF1
S31508001250059A00A90FA81FF0A8FC00A90FA81FF05F
S31508001260C6FC00F00CF8FFF7B1FF0CBF0020092000
S3150800127050B010BD029A00A90FA81FF080BC9DF8B7
S3150800128000100FA812F0FEB801A82018027E00A9C7
S315080012900FA81FF05DBC122200A90FA81FF09FBC63
S315080012A000208DF8000001A819F0C2BA002200A992
S315080012B00FA81FF04DBC2DE9F04190B088460524D3
S315080012C0051D002728461FF019FC4AF2A551884239
S315080012D018BF05200DD1EE78A878012805D0022878
S315080012E078D0032800F085808CE0B8F1380F01D05B
S315080012F0042088E002A819F09BFAF00745D5681D76
S315080013001FF002FC0390687A8DF8100008B12028B7
S3150800131000D30127A87A8DF8110008B10D2800D34B
S31508001320012705F10B001FF0E9FBADF8120040F2AA
S31508001330DD71884238BF0127687B8DF814001828AC
S3150800134028BF012708A8002100220B468C46A0E8E2
S315080013500E10084641198A7B32B102AA8218897B87
S315080013601176401C0F28F5DB0CA800210A46A0E8D8
S315080013700E10084641198A7F3AB102AA8218897F57
S3150800138082F82810401C0F28F4DBB00715D505F1A4
S315080013902E001FF0C4FB0190DFF8681621F0BCFF91
S315080013A030D8DFF8641621F0A5FF2BD2069000F09E
S315080013B04EFB012804BF019807901FBB002102A815
S315080013C019F03DFA98B10024009405231222FFF77C
S315080013D0D8FA17E0B8F1090F8AD1382102A822F005
S315080013E06BFA002102A819F02AFA0028EBD10A2480
S315080013F008E0B8F1090FEFD1002019F02CFA0028FF
S31508001400E1D1F4E7204610B0BDE8F08170B5C2B06E
S3150800141000208DF80000DFF8F4456078012818BF31
S3150800142000F072F9062300F083F800F086F82278B7
S31508001430FFF7DAFE6278FFF7D7FEA278FFF7D4FE49
S31508001440E278FFF7D1FE2279FFF7CEFE6279FFF741
S31508001450CBFE04F22405287AF8B9E86821F0F0FDF5
S315080014600646A88B21F0F6FD014630461FF0F2FE2F
S31508001470054621F02FFB02460B462846002121F09F
S315080014804BFF084634BFDFF88815DFF8881520F0CB
S3150800149039F921F001FA82B201E045F2CE6200F094
S315080014A043F8A279FFF7A0FEE279FFF79DFEA2684E
S315080014B000F036F8A28900F037F8226900A901A8D9
S315080014C01FF05DFB227DFFF78FFE627DFFF78CFE26
S315080014D0A27DFFF789FEA26900F022F8E26900F012
S315080014E01FF8228C00F020F894F82220FFF77CFEE3
S315080014F094F82320FFF778FE626A00F011F8FFF7E8
S315080015006EFEFFF767FEFFF761FE0CBF002009209D
S3150800151042B070BD0BD7A33B0100A04040A90020F4
S3150800152000A901A81FF041BB00A901A81FF022BB12
S31508001530122200A901A81FF052BB002200A901A887
S315080015401FF006BB00B5C5B000208DF8000001A845
S3150800155019F08CF90823122200A905A81FF03FFBF1
S31508001560002200A905A81FF005FB00F02DF800F0E1
S315080015702BF800F029F89DF8052000A905A81FF00A
S31508001580E7FA9DF8062000A905A81FF0E1FA029AD5
S3150800159000F016F8039A00F013F8049A00F010F811
S315080015A000A905A81FF023FB9DF8001005A811F057
S315080015B069FFFFF70BFE0CBF0020092045B000BDF0
S315080015C000A905A81FF0F1BA002200A905A81FF076
S315080015D0BFBA2DE9F04186B00F460524061D002541
S315080015E030461FF08BFA4AF60131884218BF0520AB
S315080015F06CD196F80380B078012804D002284DD023
S3150800160003285AD061E0192F01D204205EE001A810
S3150800161019F02CF95FEAC87034D58DF805508DF8A5
S315080016200650F01D1FF07BFA029006F10B001FF022
S3150800163076FA039006F10F001FF071FA024604923B
S315080016400298DFF8D433DFF8D463314621F064FE1C
S3150800165003D9194621F04EFE00D2012503983146DA
S3150800166021F05AFE03D9194621F044FE00D201257D
S315080016701046314621F050FE27D9194621F03AFE88
S3150800168023D315BB002101A819F0F7F898B1002457
S31508001690009408231222FFF774F916E0092FB4D133
S315080016A001A800210A460B460C461EC001A819F0DF
S315080016B0E4F80028EBD10A2407E0092FA5D1002079
S315080016C019F0E8F80028E2D1F5E7204606B0BDE8AB
S315080016D0F081CE484078012818BF00207047CB48D3
S315080016E00078C00800F0010080F001007047000093
S315080016F001007A440000A0400100484501008041ED
S3150800170000007AC4041C4010F0B5ADF5737DBF4DDA
S3150800171000206880A88005F224040120207285F83C
S3150800172048007EA812F05CFE1AA81BF0DBF904A894
S315080017301BF0C6F9687801280ED110F049F858B997
S3150800174005F12C0010F0D8F8012805D1207A18B92F
S31508001750A87840F00100A870687801280AD128788E
S3150800176000070AD41EF030FF012803D1A87840F0FC
S315080017700200A870687801281ED12878C1064CBFD7
S3150800178000260DF1030680064CBF00270DF102075F
S31508001790394630461FF0E0FD36B13078012803D1CE
S315080017A0A87840F00400A87037B13878012803D12A
S315080017B0A87840F00800A870AF781CAEA6988004F8
S315080017C00AD547F01007D6E90C23002094491DF0E6
S315080017D057FB20F0BFFC00E000206862207908B1C2
S315080017E047F02007AF7005F222073946012019F0A5
S315080017F0F3FC01281CBF002085F8220000F022F91E
S315080018009DF80000012804D0022808D0032808D033
S3150800181009E0A87840F04000A870002004E0012004
S3150800182002E0022000E00320787002A820F0F4FA13
S3150800183020F0D8FF0299401A48BF4042B0F5FA6F27
S3150800184003DAA87840F08000A870002020F026FB74
S31508001850012803D1E87840F00100E870012020F063
S315080018601DFB012803D1E87840F00200E870022049
S3150800187020F014FB012803D1E87840F00400E87052
S31508001880032020F00BFB012803D1E87840F008007C
S31508001890E8709DF80801C1071ED5062108421BD02D
S315080018A0DDE91A0120F056FCA861DDE91C0120F0EB
S315080018B051FCE861D6E9040120F0EEFF28840020F7
S315080018C0287542A84078042801D0052802D10320AB
S315080018D068750FE00220FBE70020A861E86128840C
S315080018E0687516F038FE00281ABF9DF8CA00401C15
S315080018F0FF2028759DF8CA00A8754048A8600020F2
S31508001900E88000266820474900FB061090F820105A
S31508001910491EC9B220291DD200F120010A790A2AD6
S3150800192018D1AA791AB1EA794B789A4212D290F864
S315080019302000A8714878E871886921F0CBF83A4AFE
S315080019403A4B1DF09DFA20F005FCA860E87840F0B7
S315080019501000E870761C0E2ED4DBBDF81400A881A2
S3150800196004984FF47A71B0FBF1F028616878012881
S315080019703DD1287881073AD52179002937D1400702
S3150800198011D5E878C0060AD500F056F8A86828499F
S315080019901FF060FC274920F007F8064609E00020FA
S315080019A085F8440023E0A878C006F8D500F044F886
S315080019B06E6A95F84400032819D33046114921F078
S315080019C0ABFCECD8104921F095FCE8D20CA818F02D
S315080019D02FFF109600F03BF8012804BF01981190DC
S315080019E000210CA818F02BFF08B1012020710DF575
S315080019F0737DF0BD399D52A246DF913F00C0794400
S31508001A000100B4420000FAC50100FA453CA80020CE
S31508001A100000E03F0000E0BF000034C3010034438B
S31508001A2065CDCD4100760020FE82BBE62547853F81
S31508001A3080C1794B286B6E4E95F84400401C85F89A
S31508001A404400704700A90DF101001FF07DB900227E
S31508001A5001A9012019F0DBBA38B5DFF8E4480020FF
S31508001A606061A021DFF8DC0821F026FF04F11000F0
S31508001A7000210160DFF8D0581821284621F01CFF04
S31508001A8001202870DFF8C4581421284621F014FFD5
S31508001A900120287000200021024603460FC4103C8E
S31508001AA0A461DFF8AC082060DFF8A80860604FF48E
S31508001AB07020A0600320E0604C2104F1200021F092
S31508001AC0FBFE2C21DFF8900821F0F6FE0020E061ED
S31508001AD0BDE8314001F0FCBB2DE9F04389B08046F2
S31508001AE08946002400A81AF0EBFFDFF85468B069AD
S31508001AF00078800609D5002759F8270010B139461D
S31508001B0000F056FC7F1C1E2FF6DBB06900794006F4
S31508001B1006D599F8940B18B109F68C3000F0F0FE4A
S31508001B206825B0690079800710D5002705FB07905E
S31508001B3090F89C100A2906D300F19801204600F077
S31508001B40C9FD601CC4B27F1C0E2FEFDBB06900799B
S31508001B50800611D50024002705FB079090F89C10F5
S31508001B600A2906D300F19801204600F093FE601C6E
S31508001B70C4B27F1C0E2FEFDBB0690079C00704D50D
S31508001B80214609F1780000F084FDB0694068C00577
S31508001B9010D50027502000FB079090F82C17491EF7
S31508001BA0C9B220293CBF00F22C7000F015FF7F1C3B
S31508001BB00E2FEFDBB0690079C00644BF404600F03F
S31508001BC047FEB0690079400744BF404600F0BAFDB9
S31508001BD009F2486900AA08F16001484601F010FEBA
S31508001BE04946FF2001F0A6FE00A9404601F0C4FCC4
S31508001BF009B0BDE8F08370B588B004460D4600A864
S31508001C001AF05EFFDFF8386706F1200300AA2946B6
S31508001C10204600F042F801F050FCB06940684003E5
S31508001C2044BF284601F0FFF8B0694068000306D5AE
S31508001C300AF044F818B105F1B00001F056F995F824
S31508001C40CC0101280ED1B0694068C00344BF2846BC
S31508001C5001F09CF8B0694068800344BF05F1F800BC
S31508001C6001F097F8B0690068C00206D594F8340008
S31508001C7018B100F00CF800F0A5FCB0690068000384
S31508001C8003D500F004F800F055FC08B070BD9DF8C7
S31508001C900C20D5F82811204670472DE9F74F84B057
S31508001CA01E46084600F2A0100090059800F228008B
S31508001CB0019090F87800800660D50098006A20F0B8
S31508001CC009FF21F00041DFF89046627804EB8205AF
S31508001CD020F040FA6860607804EB80000099896A11
S31508001CE081612078401C20706178491C6170C0B2FF
S31508001CF0052824BF05202070C9B2052924BF002065
S31508001D0060704FF00008C246C346002718E06078A6
S31508001D103818052190FBF1F101EB8101401AC0B298
S31508001D2004EB8005686820F0D5FE02460B4650464F
S31508001D3059461FF0E7FC82468B46A86980447F1CFB
S31508001D402078874203DA0528E1D23846E8E7B8F171
S31508001D50010F13DB404621F0EBF902460B465046CD
S31508001D6059461CF019F80022DFF8F0351DF088F8FE
S31508001D7000F01CFA20F090FD814601E04FF00009C2
S31508001D80DFF8DC050099496A059AD2F82821511826
S31508001D90411891FBF0F200FB12103060049840687D
S31508001DA00499896880293EBFB060049880682AD360
S31508001DB0DFF8B05521F0BCF900F0F4F920F0CAF9C3
S31508001DC0044620F087FE02460B46204600F0F8F946
S31508001DD0084634BFDFF89015DFF890151FF092FC1F
S31508001DE020F05AFDB0600498806821F0ABF900F045
S31508001DF0D9F920F0AFF920F06DFE00F0D7F920F000
S31508001E004BFD00F07F0006F23E0778710498007CCF
S31508001E1018B1787940F0800078710498C089708785
S31508001E20059890F8CC01012805D13246059800F1AD
S31508001E30F80100F0CEF90098856A7585DFF800A5E7
S31508001E40DAF81C4096F83E00800631D50098056AF7
S31508001E50DFF81C0529461FF0A7FD214620F00AFADF
S31508001E6000F0ADF9084694BFDFF8FC14DFF8FC145F
S31508001E7000F0A0F900F0A7F920F00EFD04B2204604
S31508001E8021F0DEF8014640461FF0B0FC8046706C33
S31508001E9029461FF089FD20F01DFE21F0004120F0A3
S31508001EA059F94FF07E5120F0E5F920F013FF3BE099
S31508001EB00198806F800434D5284621F0C1F8059929
S31508001EC0D1F808111FF070FDDFF8A8141FF06CFD9B
S31508001ED0214620F0CFF900F072F9084694BFDFF8E2
S31508001EE08814DFF8881400F065F900F06CF920F022
S31508001EF0D3FC04B2204621F0A3F8014640461FF061
S31508001F0075FC80460A2095FBF0F021F011F902468F
S31508001F100B460020DFF850141FF0F4FB20F0BCFC41
S31508001F2002E0002400208046B0867484CAF81C802B
S31508001F300198856F280515D50598D0F8080120F071
S31508001F40C9FD044621F00048706C20F0C3FD024626
S31508001F500B46204641461CF093FF00F027F920F077
S31508001F609BFC04E0A8044EBF6420002081467086CE
S31508001F70A6F82890680708D500988169DFF8F8035D
S31508001F801FF012FD20F0A6FE00E00020F084DFF826
S31508001F90EC032840DFF8E413884263D1787840F0F0
S31508001FA0040078700098C469DFF8D4A32046514627
S31508001FB01FF0FAFC00F004F994BFDFF8AC93DFF8E1
S31508001FC0AC9320F087FD00224B461FF09BFB20F0C8
S31508001FD063FCB084204620F07DFD024621F00043D4
S31508001FE0DFF8A003DFF8A0131CF04AFF0446884672
S31508001FF00198816DE54800681FF0D6FC0546708D8E
S3150800200021F028F829461FF0CFFC20F063FDE04AAE
S31508002010E04B1CF035FF05468946059AD2E90A01C8
S315080020202A464B461CF02CFF2A464B461CF028FF36
S315080020300546894620464146224643461CF020FF6F
S315080020402A464B461FF05EFB1FF0FCF920F082F88B
S3150800205051461FF0A9FC20F03DFD00F0A7F820F03E
S315080020601BFC01E00020B084F086019890F8780007
S31508002070C00729D5C84CDFF824B3059AD2E9680108
S3150800208022465B461CF0FCFE00F08EF994BFB64B68
S31508002090B64B02460D46002019462B461FF032FB6A
S315080020A020F0FAFB0546009AD2E9020122465B4671
S315080020B01CF0E6FE00F078F994BFAB4BAB4B1FF073
S315080020C021FB20F0E9FB01E000250020B0617561E5
S315080020D00198806F86F83E00F06842F211718842D6
S315080020E005D396F83E0000F0FE0086F83E00F08D17
S315080020F040F2E931884205D396F83E0000F0FD002B
S3150800210086F83E00787800F0F001797096F83E007F
S3150800211000F05F0086F83E00019A926F974B1A40CE
S315080021209A4204BF41F0040179700199896F090543
S3150800213007D5797841F00801797040F0A00086F853
S315080021403E0096F83E00800609D50098006A0021F0
S3150800215021F0ACF903D0787840F001007870059842
S3150800216090F8CD0118B1787840F002007870787848
S3150800217000F0CF0078700699097B491E072905D912
S315080021800839012905D9891E06D008E040F0100053
S3150800219004E040F0200001E040F03000787007B01D
S315080021A0BDE8F08F00222B461CF06ABE00226E4B5B
S315080021B01FF0A8BACDE90201404620F08BBC804644
S315080021C0002121F0A9B802460B46DDE902011FF0FD
S315080021D099BA2DE9F84980460C461546D8F8A00064
S315080021E085F83E0005F23E06707800F0F000707043
S315080021F095F83E0000F0570085F83E00DFF868B114
S31508002200D8E90023D8E902011FF07CFA02460B46FA
S31508002210002063491FF076FA1FF014F900225B4686
S315080022201FF070FA20F04EFBE86005F20C07D8E9BB
S3150800223004011FF007F900225B461FF063FA20F03D
S315080022402BFB7884606920F045FC02460B46D8E9EA
S315080022501E011DF017FA00F0A7F894BF5B46434B22
S315080022601FF050FA20F018FB388204F11400806938
S3150800227010F1010F08BFFF2002D0FE2828BFFE205C
S31508002280B070D8E908011FF0DDF802460B464FF09A
S31508002290C04044491CF0F4FD02460B46002059464E
S315080022A01FF030FA20F0F8FAB8843448D8F8A010AD
S315080022B00140814202BF707840F0040070701CBF74
S315080022C00020A864D8F8A000000521D595F83E009E
S315080022D040F0080085F83E00717841F008017170F9
S315080022E040F0A00085F83E0094F8397008EBC70264
S315080022F0D2E912011FF0A6F81FF02CFF1C491FF0A7
S3150800230053FB08EB8701D1F884101EF0A3FF0AE0FF
S315080023100020D8F8A010890405D595F83E1041F09C
S31508002320080185F83E106864D8F8A0004004707863
S315080023304CBF40F0400000F0BF007070BDE8F18966
S3150800234070A70020D0A4002008AD00204CAD0020C6
S31508002350206118005F010F0008AB0020006AF840F2
S3150800236000840C240000B03F0000E03F0000E0BFFE
S315080023700000C842CDCCCC3D83F92246001400109B
S315080023809F0CB3459A9999999999A93F8CAC0020C5
S31508002390FCA9F1D24D62503F83C8C96D305FC44174
S315080023A000002240305FC4400022002320F0A8BE6F
S315080023B030B5C1B004460D4600F068FA052300F0B2
S315080023C070FB00F06CFC224600F029FD2A4600F05E
S315080023D0D8BE70B5C2B000F058FA062300F061FB0B
S315080023E0042200F05DFC00F092FB228800F090FBCE
S315080023F0227D00F055FCA28800F08AFBE28800F0F6
S3150800240087FB228900F084FB628900F081FBA289A0
S3150800241000F07EFBE28900F07BFB228A00F078FB65
S31508002420628A00F075FB627D00F03AFC002519E02F
S315080024300A2000FB0546B27D00F032FCF27D00F072
S315080024402FFC327E00F02CFC727E00F029FC728B89
S3150800245000F05EFBB28B00F05BFBB27F00F020FC65
S315080024606D1CEDB2607D8542E2DB58E0014608202E
S3150800247000F00ABD01460D2000F016BC10B5CAB022
S3150800248000218DF8001030B101242022014601A850
S3150800249020F077F804E00024202101A821F00CFAA6
S315080024A00E23702200A909A81EF099FBBDF8082082
S315080024B000A909A81EF05EFB019A00A909A81EF04A
S315080024C05EFB039A00A909A81EF06FFB224600A925
S315080024D009A81EF03DFB9DF81A2000A909A81EF0C0
S315080024E037FB00A909A81EF082FB9DF8001009A871
S315080024F010F0C8FF4AB010BD70B5C2B004460D460C
S31508002500164600F0C3F9122300F0CBFA224600F073
S31508002510C7FB2A4600F0B4FC324600F0B1FC00A91D
S3150800252001A81EF064FB9DF8001001A810F0AAFF90
S3150800253042B070BDF0B5C1B000F094F8132300F0B6
S31508002540B0FA082200F0ACFB207C47EA000200F053
S31508002550A7FB00F063FC092E2CBF2A46002200F0D8
S315080025605EFCE28900F0D4FA626800F058FCA268C2
S3150800257000F055FC626900F052FC042200F090FB62
S31508002580002504EB8500426A00F049FC6D1C042D09
S31508002590F7DBA26900F043FCE26900F040FC226A1E
S315080025A000F03DFC226F00F03AFC626F00F037FC49
S315080025B0A26F00F034FC94F87C2000F071FBD4F88C
S315080025C0802047E0F0B5C1B000F04CF8142300F0C5
S315080025D068FA00F064FB3A4600F062FB00F01EFC65
S315080025E0092E2CBF2A46002200F019FC94F8340064
S315080025F0D0B1012200F054FB002504EB0516B26B9E
S3150800260000F00DFCF26B00F00AFC326C00F007FCDF
S31508002610726C00F004FC6D1C032DEEDB94F8682048
S3150800262000F03EFBE26E15E0002200F039FB0324C1
S31508002630002200F0F4FB002200F0F1FB002200F07B
S31508002640EEFB002200F0EBFB641EF1D1002200F045
S3150800265027FB002200F014FC00F0BAF900F0B3F9E9
S3150800266041B0F0BD04460D46164600208DF8000020
S31508002670701E072805D90838012804D9801E04D0F9
S3150800268005E04027704780277047C0277047002716
S31508002690704730B5C1B004460D4600F0F7F8202360
S315080026A000F0FFF900F0FBFA00F0B8FB227900F021
S315080026B0F7FA627900F0F4FAE28800F029FA00F0F5
S315080026C05FFBD4E9042300F05DFB2A4600F0E8FA34
S315080026D000F059BD70B5C2B004460D4600F0D6F8F4
S315080026E028781AF091FA0646212300F0DAF905222D
S315080026F000F0D6FA224600F0D3FA2A7800F0D0FA8B
S315080027006A7800F0CDFAEA7800F0CAFA2A7900F079
S31508002710C7FA6A7900F0C4FAD5E9042300F032FB57
S31508002720AA6900F0ADFBF2B200F0BAFAD5E90823BF
S3150800273000F028FB6A8900F0EBF995F8602000F0B4
S31508002740AFFAECE630B5ADF5277D014642A84FF461
S31508002750C8721FF016FF00F099F864AC207EC00717
S3150800276004D44FF4C87142A821F0A6F82223702297
S3150800277000A902A81EF033FA072200F058F8627E74
S3150800278000F055F844ADAA8F00A902A81EF0F2F988
S31508002790AA6B00F048F8226A00F045F8DDE9422302
S315080027A000F04DF8DDE9442300F049F8D5E90223A5
S315080027B000F045F8D5E9042300F041F8D5E90A23E5
S315080027C000F03DF8AA6900F036F8D5E908011FF0CF
S315080027D0C1FC00F038F8EA6900F02DF8626800F0EC
S315080027E02AF8A26800F027F8649A00F024F8227EF6
S315080027F000F01DF8002200F016F8D5E90C011FF0CC
S31508002800A9FC00F020F89DF85E2100F010F800A958
S3150800281002A81EF0ECF99DF8001002A810F032FE8E
S315080028200DF5277D30BD00A902A81EF0A8B900A99C
S3150800283002A81EF08DB900A902A81EF0B6B900A913
S3150800284002A81EF0C1B9024600A902A81EF0ADB939
S3150800285030B5C1B000F019F8242300F022F903229C
S3150800286000F01EFA94F8622000F01AFA002506E035
S31508002870281990F8632000F013FA6D1CEDB294F84D
S3150800288062008542F4DB00F07EBC044600208DF829
S315080028900000704730B5C1B005460C46FFF7F6FF95
S315080028A0252300F0FEF800F0FAF92A4600F0F8F9B8
S315080028B0227800F0F5F9627800F0F2F9227900F052
S315080028C0EFF9627900F0ECF9A26A00F0D9FAE26A47
S315080028D000F0D6FA002504EBC500D0E90C2300F079
S315080028E051FA6D1C032DF6DB002504EBC500D0E973
S315080028F0122300F047FA6D1C032DF6DB00F043BCEB
S3150800290010B5C2B0FFF7C1FF262300F0CAF800F0E1
S31508002910C6F9227800F0C4F9627800F0C1F9A27805
S3150800292000F0BEF9E27800F0BBF9227900F0B8F9B8
S31508002930627900F0B5F9A27900F0B2F9E2799FE17F
S3150800294010B5C2B0FFF7A1FF607910B9E079002889
S3150800295037D0272300F0A5F800F0A1F900F05EFAB9
S31508002960227900F09DF9627900F09AF9A27900F0CF
S3150800297097F9E27900F094F900F002FAD4E9042311
S3150800298000F000FAD4E9062300F0FCF9226A00F008
S3150800299077FAD4E90A2300F0F5F9D4E90C2300F014
S315080029A0F1F9D4E90E2300F0EDF9D4E9102300F08B
S315080029B0E9F9D4E9122300F0E5F900F009F800F086
S315080029C002F842B010BD9DF8001001A810F05ABDDB
S315080029D000A901A81EF00BB910B5C2B0FFF755FF44
S315080029E0282300F05EF800F05AF9227800F058F92A
S315080029F0627800F055F9627900F052F9A27900F090
S31508002A004FF9227D00F04CF9002200F049F92279AD
S31508002A1000F046F9E27900F043F9227B00F040F92C
S31508002A2000F075F8628900F073F8228E00F070F8ED
S31508002A30228900F06DF8E28900F06AF8228B00F02E
S31508002A4067F8B4F84C2000F063F8E28A00F060F802
S31508002A50B4F8402000F05CF8228D00F059F8228C7A
S31508002A6000F056F8228F00F053F8628E00F050F806
S31508002A70226900F0D4F9E26900F0D1F9626A00F03F
S31508002A80CEF9E26A00F0CBF9626B00F0C8F9E26BA6
S31508002A9000F0C5F9626C00F0C2F9A26C00F0BFF94B
S31508002AA0F2E0702200A901A81EF099B810B5C2B0CC
S31508002AB0FFF7EBFE2923FFF7F4FF012200F0F0F8F9
S31508002AC0227800F0EDF8627800F0EAF800F01FF8D6
S31508002AD0227900F0E5F8E28800F01AF8228900F079
S31508002AE017F8628900F014F8E26800F098F922698C
S31508002AF000F095F9626900F092F9228B00F008F867
S31508002B00628B00F005F8E26900F089F9BCE062889A
S31508002B1000A901A81EF02EB810B5C2B0FFF7B5FE81
S31508002B202A23FFF7BEFF012200F0BAF8227800F048
S31508002B30B7F8FFF7ECFFA288FFF7EAFFA27900F0E3
S31508002B40AFF82289FFF7E4FFA27A00F0A9F8E27A43
S31508002B5000F0A6F8A289FFF7DBFF226900F05FF90B
S31508002B60626900F05CF9A26900F059F9E26900F0BF
S31508002B7056F9226A00F053F9626A00F050F9A26A1F
S31508002B8000F04DF994F82C2000F08AF894F82D20DE
S31508002B9000F086F894F82E2000F082F894F82F209A
S31508002BA000F07EF894F8302000F07AF8628EFFF78D
S31508002BB0AFFF04F23204A27800F072F8E27800F06F
S31508002BC06FF8227900F06CF8627900F069F8A2795A
S31508002BD000F066F8E27900F063F8227A00F060F80F
S31508002BE0627A00F05DF84AE010B5C2B0FFF74DFE14
S31508002BF02B23FFF756FF012200F052F8227800F047
S31508002C004FF8FFF784FF626800F009F9A26800F040
S31508002C1006F9E26800F003F9227C00F041F8628ABE
S31508002C20FFF776FF227D00F03BF8627D00F038F86A
S31508002C30A26900F0F4F8E26900F0F1F8226A00F0FF
S31508002C40EEF8626A00F0EBF894F8282000F028F80D
S31508002C50628DFFF75DFFA28DFFF75AFF94F82E20CD
S31508002C6000F01EF804F22E04FFF751FFA288FFF7C2
S31508002C704FFFA27900F014F82289FFF749FFA27ADC
S31508002C8000A901A81DF064FF00A901A81DF0AFFF67
S31508002C909DF8001001A810F0F5FB42B010BD022205
S31508002CA000A901A81DF054BF30B5C1B000F013F952
S31508002CB00522FFF7F5FFD4E9002300F063F800F0DA
S31508002CC05FF8D4E9042300F05DF8D4E9062300F0A0
S31508002CD059F8D4E9082300F055F8D4E90A2300F096
S31508002CE051F8D4E90C2300F04DF8D4E90E2300F08E
S31508002CF049F8D4E9102300F045F8D4E9122300F086
S31508002D0041F8D4E9142300F03DF8D4E9162300F07D
S31508002D1039F8D4E9182300F035F8002504EBC50086
S31508002D20D0E91A2300F02EF86D1C032DF6DBD4F833
S31508002D30802000F0A5F8002504EB8500D0F8842053
S31508002D4000F09EF86D1C032DF6DB04F28004226960
S31508002D5000F096F8626900F093F8226A00F05FF8CE
S31508002D60A28CFFF7D5FEE28CFFF7D2FEA26A00F02E
S31508002D7056F8227FFFF794FFA26900F081F802E275
S31508002D80D4E9022300A901A81DF01EBF0146302080
S31508002D908AE730B5C1B0FFF778FD3123FFF781FE2A
S31508002DA00322FFF77DFF00F06AF8626800F068F812
S31508002DB0A26800F065F8E26800F062F8002200F008
S31508002DC05FF8226900F05CF8626900F059F8A269B8
S31508002DD000F056F8E26900F053F8226A00F050F85D
S31508002DE0626A00F04DF8E26A00F019F8226B00F00A
S31508002DF016F894F83920FFF753FF002504EB8500F1
S31508002E00C26B00F00CF86D1C0C2DF7DB626B00F042
S31508002E1006F894F83820FFF743FFB4E1226800A9C2
S31508002E2001A81DF0ACBE30B5C1B0FFF72EFD3223A8
S31508002E30FFF737FEFFF733FF002504EBC500D0E99F
S31508002E406823FFF79FFF6D1C032DF6DBD4F8B82126
S31508002E5000F016F804F2B814626800F011F8A268D7
S31508002E6000F00EF8E268FFF7DAFF2269FFF7D7FFEE
S31508002E70227DFFF715FF627DFFF712FF83E12268C7
S31508002E8000A901A81DF091BE10B5C2B000F023F844
S31508002E90FFF705FFFFF7C2FFFFF772FFD4E9042328
S31508002EA0FFF770FFD4E90623FFF76CFFD4E9082380
S31508002EB0FFF768FFD4E90A23FFF764FFD4E90C2378
S31508002EC0FFF760FFD4E90E23FFF75CFFD4E9102370
S31508002ED0FFF758FFD8E60C4600218DF80010034688
S31508002EE0702200A901A81DF07ABE01463320CBE75F
S31508002EF030B5C1B004460D46FFF7C8FC5023FFF7AE
S31508002F00D0FD0322FFF7CCFE2A78FFF7C9FE6A78C0
S31508002F10FFF7C6FEAA78FFF7C3FEEA78FFF7C0FEFA
S31508002F206A68FFF77CFF627CFFF7BAFE0022FFF7AC
S31508002F30B7FE0022FFF7B4FE0022FFF7B1FE00221B
S31508002F40FFF76DFFFFF79BFF6268FFF799FFA2681F
S31508002F50FFF796FF227CFFF7A3FEE268FFF790FFD4
S31508002F6011E170B5C2B004460D46FFF78FFC512338
S31508002F70FFF797FD0322FFF793FE2A78FFF790FEE7
S31508002F806A78FFF78DFEAA78FFF78AFEEA78FFF7D8
S31508002F9087FE6A68FFF743FF2279FFF781FE002262
S31508002FA0FFF77EFE0022FFF77BFE0022FFF778FE82
S31508002FB0FFF765FF0025182000FB0546B268FFF7F6
S31508002FC05FFFF268FFF75CFF327CFFF769FE726904
S31508002FD0FFF756FFB269FFF753FFF269FFF750FF95
S31508002FE06D1C032DE7DB226DFFF74AFF002504EB76
S31508002FF08500426DFFF744FF6D1C032DF7DB0025A6
S3150800300004EB8500026EFFF73BFF6D1C032DF7DB13
S31508003010002504EB8500C26EFFF732FF6D1C032DF9
S31508003020F7DBFFF77CBA10B5C2B0FFF72EFC5223C8
S31508003030FFF737FD0122FFF733FEFFF720FF22795E
S315080030401EE62DE9F041C2B006468846FFF71EFC8B
S315080030506023FFF726FDFFF722FE3279FFF720FEF1
S31508003060002406EB84008268FFF70AFF641C032C21
S31508003070F7DB002406EB84004269FFF701FF641CB6
S31508003080032CF7DB002406EB8400026AFFF7F8FE40
S31508003090641C032CF7DB06F2A8077A68FFF7BFFE65
S315080030A03A89FFF735FD844C844DD7E90401224659
S315080030B0FFF779F800F019F8D7E906012246FFF775
S315080030C072F800F012F8D7E90823FFF75BFE96F8C6
S315080030D0A820FFF7E5FD4246FFF7E2FDFFF778FC7B
S315080030E0FFF771FC42B0BDE8F08102460B4600A925
S315080030F001A81DF069BD70B5C2B0FFF7C6FB612314
S31508003100FFF7CFFC0122FFF7CBFD94F82D20FFF740
S31508003110C7FD00250DE00C2000FB0546326BFFF7C6
S31508003120AFFE726BFFF7ACFEB26BFFF7A9FE6D1C24
S31508003130EDB294F82D008542EDDBFFF7F0B910B536
S31508003140C2B0FFF7A2FB6223FFF7ABFC0122FFF731
S31508003150A7FDFFF794FE6268FFF792FEA268FFF7E5
S315080031608FFEE268FFF78CFE2269FFF789FEA28AC6
S31508003170FFF7CEFCE28AFFF7CBFC228BFFF7C8FCF1
S3150800318082E5FFF74CFE00A901A81DF030FD9DF869
S31508003190001001A810F076F941B030BD30B5C1B0C5
S315080031A0FFF773FBFF23FF22FFF77CFC00250AE0ED
S315080031B0285D0D2805D00A2803D0F02D01DA00F085
S315080031C008F86D1CEDB220461FF0BCFE8542EFD311
S315080031D0D9E7024600A901A81DF0BABC00B589B016
S315080031E000A819F06DFC9DF80C00092803D3FE21F0
S315080031F00B2000F030F809B000BD0146304800E069
S315080032002F4910221FF0BDB92E49A0221FF0B9B9C7
S315080032102B49087570472A48007D70472849487524
S3150800322070472748407D7047254A9075D175704785
S31508003230234A937D0370D07D087070470146224863
S3150800324000E0214918221FF09CB901461F48FFE7F4
S3150800325014221FF096B980B5FF281CBF184A1074AF
S31508003260FE2903D00091012300F01DF801BD144882
S31508003270007C7047F0B5059C069D079E114FC7E96F
S315080032800401C7E906237C65BD65FE65F0BD80B50A
S31508003290FF281CBF0A4A5074FE2903D00091022356
S315080032A000F001F801BD2922FE21012000F01CB81A
S315080032B00348407C70470000F8C1631ADCA54C40FF
S315080032C070A70020D0A4002008AD00204CAD002037
S315080032D0704780B50321009103461022FE21022083
S315080032E000F002F8032002BDF0B5C1B00D4616463F
S315080032F01F46469C00218DF800100346102200F058
S3150800330075FCFE2E05D0324600F003FC3A4600F066
S3150800331000FCFE2D02D02A4600F0FBFB224600F0F8
S31508003320F8FB00F0F1FB00F0EAFB00F0CEFC0CBF66
S315080033300020092041B0F0BD30B5C9B004460025CB
S315080033408DF800501A2101A820F0B6FA2046022C62
S315080033503ED0032C04D0042C35D0062C3AD052E0AB
S3150800336001A811F046F82346112200A908A81DF065
S3150800337036FC9DF8162000F048F89DF8172000F056
S3150800338044F89DF8182000F040F89DF81B2000F03E
S315080033903CF89DF81A2000F038F8BDF81C2000A962
S315080033A008A81DF0E7FB00A908A81DF020FC9DF859
S315080033B0001008A810F066F800F087FC18BF092569
S315080033C0284649B030BD01A9002019F05FFBCAE7BD
S315080033D001A9FAE701208DF8160008208DF81700D4
S315080033E08DF818500F208DF81B000B208DF81A0049
S315080033F040F2DC70ADF81C001222DFF8B81B01A8F9
S315080034001FF022F9AFE70325DAE700A908A81DF09F
S315080034109FBB10B5C2B0044600F082FA162200F02F
S31508003420E5FB0022D4F8A000C10658BF012200F02F
S315080034301021B1F1102F18BF42F0020240025CBF02
S3150800344042F00402D2B200F064FB00240DF101013F
S315080034500DF10200FFF7ECFE9DF80200012809D0E5
S31508003460022802D0032802D003E0012402E0032444
S3150800347000E002249DF8010001280CD0022802D0A1
S31508003480032803D005E044F0080404E044F01804D7
S3150800349001E044F0100400F03BFB18F0F4F9024692
S315080034A000F037FB00F030FB00F029FB00F00DFCC4
S315080034B00CBF0020092042B010BD30B5C1B000F0E5
S315080034C08FFB302200F092FBDFF8444D94F83E2043
S315080034D000F01FFB04F23E056A7800F01AFBAA7892
S315080034E000F017FB226800F080F9626900F07DF9A8
S315080034F0A26900F07AF9A28B00F018FAE28C00F0C3
S3150800350015FA228D00F012FA628D00F00FFA628C1D
S3150800351000F00CFAA28C00F009FAE0684FF6FF7288
S31508003520904238BF82B200F001FAE28D00F0FEF94F
S31508003530228E00F0FBF9628E00F0F8F9A28E00F0F8
S31508003540F5F9E28E00F0F2F96A7900F0E2FAA2687B
S3150800355000F04BF9628F00F0E9F900F0D5FA00F0B7
S31508003560CEFA00F0B2FB0CBF0020092041B030BDF6
S315080035700A460146012002E00A46014602202DE9D4
S31508003580F04BC2B007460E46904600F0A4FE06F180
S315080035908800007EC1071AD50621084217D006F111
S315080035A08800407E022806D0032806D0042806D0C4
S315080035B0052806D007E0512504E0D12502E01125AB
S315080035C000E091250F24022F08BF44F0800498F8E4
S315080035D00C00401E072807D90838012807D9801E7D
S315080035E008BF44F0300404E044F0100401E044F05D
S315080035F020043B46312200F0F9FA06F18800007EE5
S31508003600C10740F1AE800621084200F0AA80326C5C
S3150800361000F0EBF82A4600F07CFA00F079FAD6E9D1
S31508003620002300F0DBF80024DFF8E8BB00F0BCFC60
S3150800363094BF5B464B4600F0DCF81FF02DF900F00E
S31508003640D3F8D6E9022300F0C9F800F0BFF894BF12
S315080036505B464B4600F0CDF81FF01EF900F0C4F8A3
S31508003660D6E906011FF018F982B200F05FF9D6E92B
S315080036700A23DFF8640DDFF8641D1BF001FC00F077
S31508003680A5F894BF5B464B4600F0B3F81FF004F963
S3150800369082B200F04BF9A046DFF8445D306A1FF0AD
S315080036A019FA00F097F822465B461EF02BF81FF031
S315080036B0F3F882B200F03AF906F1880044688168A6
S315080036C008461EF071F98146204621461EF06CF91F
S315080036D049461EF0CFFD1FF0FDF91DF0B3FE1FF0A1
S315080036E0DBF882B200F022F9D6F888001FF0F2FA69
S315080036F082B200F01BF9424600F018F9424600F083
S3150800370015F9022F56D1706A1FF0E4F900222B46EC
S315080037101BF0B6FB1FF0C0F882B200F007F942466C
S3150800372000F004F94FF09447DFF8B84CD6E90E01DB
S315080037303A4623461BF0A4FB00F04CF81EF00AFD9F
S3150800374000F06AFD06F1880040691FF0C3F93A46A1
S3150800375023461BF095FB00F03DF81FF09DF882B25A
S3150800376026E0D8F8002000F040F82A4600F0D1F903
S3150800377000F0CEF9002200F038F8002200F035F803
S3150800378000F0D3F800F0D1F800F0CFF800F0CDF84B
S3150800379000F0CBF800F0C9F800F0C7F8022F09D1FD
S315080037A000F0C3F800F0C1F8002200F036FD002250
S315080037B000F0BCF800F0A8F900F0A1F900F085FACD
S315080037C00CBF0020092042B0BDE8F08B2246134604
S315080037D01FF096BC42462B461BF052BBDFF8F80B8F
S315080037E0DFF8041C1BF04CBB024600A901A81DF01B
S315080037F0C6B902460D46002019462B461DF082BF63
S315080038002DE9F046C1B007460C46154600F088F883
S31508003810322200F0EBF9AA8A00F088F8AA7C00F0B8
S3150800382078F9EA7C00F075F96A7B00F072F9AA7BF0
S3150800383000F06FF9EA7B00F06CF9AA7D00F069F9EF
S31508003840DFF8A89B60691FF045F900F065F81FF0DE
S3150800385039F802464FF6FE764FF6FF7A524528BFEC
S31508003860324692B200F062F8A0691FF033F900F010
S3150800387053F81FF027F8504528BF304682B200F0AB
S3150800388055F8E0691FF026F900F046F81FF01AF817
S31508003890504528BF304682B200F048F8002200F0B2
S315080038A038F92078052832D8DFE800F003292B2DCF
S315080038B02F310022287B08B142F0300200F029F9A6
S315080038C0002400250126F0B219F008FA08B16D1C8B
S315080038D0EDB2761C212EF6DB182DA8BF80242246D1
S315080038E000F017F93A7800F014F900F00DF900F035
S315080038F006F900F0EAF90CBF0020092009E00222C7
S31508003900D8E70522D6E70622D4E70722D2E7082217
S31508003910D0E741B0BDE8F08600224B461BF0B0BAAE
S3150800392000208DF8000001237047002200A901A895
S315080039301DF020B92DE9FA4BC2B0814600F03CFBD8
S31508003940002705464FF4B478DFF8A4BAB9F1FF0F9B
S3150800395001D0A94576D1429800EB0510061D3078AE
S31508003960411EC9B2202903D37838C0B2132869D2B8
S315080039700123332200F03AF9EAB200F0CAF83278A5
S3150800398000F0C7F80022307800B10122707808B13B
S3150800399042F01002307B08B142F02002D2B200F0A9
S315080039A0B8F87078342828BF332000EB8002D2B2EA
S315080039B000F0AFF8746820461FF08CF800F04AF85B
S315080039C0084634BFDFF82C1A59461DF09BFE1EF038
S315080039D063FF00B290FBF8F108FB110000B2002863
S315080039E044BF00F2681000B200EBD0704210D2B2A9
S315080039F000F08FF8B46820461FF06CF800F02AF83B
S31508003A00084634BFDFF8EC1959461DF07BFE1EF058
S31508003A1043FFC2B200F07DF80024307819F05EF951
S31508003A2000B10324307819F049F908B144F00C04C0
S31508003A3000F06EF800F068F800F061F800F045F95B
S31508003A4018BF09276D1C0E2DFFF680AF384644B007
S31508003A50BDE8F08B02460B46204600211FF05CBCF1
S31508003A602DE9F043C1B00746894600F0A5FA0025BE
S31508003A700646FF2F01D0B7423BD106F1090809EBEC
S31508003A80880090F8340100F00F04072300F0ADF821
S31508003A90F2B200F03EF80022E0070AD4A00748BFB9
S31508003AA0092206D4600748BF0A2202D4200748BF65
S31508003AB00B22D9F8A000000548BF42F0100200F01A
S31508003AC028F809EB8600D0F8842000F0A6FB09EB5D
S31508003AD0C802D2E900011DF0B5FC1EF03BFB00F060
S31508003AE09BFB00F011F800F00AF800F0EEF818BF9A
S31508003AF00925761C032EBCDB284600F0E9BB9DF899
S31508003B00001001A80FF0BEBC00A901A81DF06FB8EF
S31508003B10E2B200A901A81DF01BB803207047012ACC
S31508003B2003D1062B01D004207047012802D00228B1
S31508003B3005D005E0002A00D104E0082070473AE0E5
S31508003B400320704710B5D2B0FFF7EAFE122200A98B
S31508003B5011A81DF044F800F025F928B117F02FFF39
S31508003B6009AA01A917F0F1FE00F016F900F024F9E8
S31508003B700024FFF750FB012803D0022808BF0924B8
S31508003B8000E0012403A8FFF75CFB00F0FEF801281B
S31508003B9008BF44F00404E2B200F00FF900A911A826
S31508003BA01DF025F800F003F900F08FF80CBF00208F
S31508003BB0092052B010BD00B5C1B000F011F81222AC
S31508003BC000F014F80122FFF7A4FFFFF79DFFFFF7A7
S31508003BD096FF00F07AF80CBF0020092041B000BD1E
S31508003BE000208DF8000002237047362200A901A89C
S31508003BF01CF0F5BF10B58AB00C46012A03D1072B75
S31508003C0018BF042027D1012802D0022813D021E0AA
S31508003C10802C01D305201EE014B917F034FE0446A3
S31508003C2002AA00A9204617F003FE00F016F80120A4
S31508003C3000F01CF80FE0102CECD214B917F0BFFEF8
S31508003C40044602AA00A9204617F07FFE00F005F8F0
S31508003C500220EDE703200AB010BD18B900A800211C
S31508003C60002206C002AB00AA2146704770B5C2B052
S31508003C700C4615461E4600218DF8001003461422F0
S31508003C80FFF7B4FF2246FFF744FFB28AFFF74EFE5E
S31508003C90B27CFFF73EFFF27CFFF73BFF727BFFF734
S31508003CA038FFB27BFFF735FFF27BFFF732FFEA8872
S31508003CB0FFF73CFEFFF728FFFFF721FF00F005F8A6
S31508003CC00CBF0020092042B070BD9DF80010884244
S31508003CD0704700B5F5B0012A03D1062B18BF04209A
S31508003CE00FD1012802D0022807D009E000A810F059
S31508003CF077FB00A8FFF78DFB03E000F004F800E06F
S31508003D00032075B000BD10B5D2B0FFF769FF1622C3
S31508003D1000A911A81CF063FF00F044F828B117F0B9
S31508003D204EFE09AA01A917F010FE00F035F800F0BA
S31508003D3043F80024FFF76FFA012803D0022808BFCA
S31508003D40092400E0012403A8FFF77BFA00F01DF818
S31508003D50012808BF44F00404E2B200F02EF800F08F
S31508003D602BF81EF03FFD024600A911A81CF007FF1C
S31508003D7000A911A81CF03BFF00F019F8FFF7A5FFF2
S31508003D800CBF0020092052B010BD9DF80C0008B1E8
S31508003D9044F00204FFF745BABDF80A2000A911A8A5
S31508003DA01CF0E8BE0020ADF80A0017F08DBC9DF89F
S31508003DB0001011A80FF066BB002200A911A81CF07C
S31508003DC0C7BE012A03D1062B01D00420704702285A
S31508003DD000D101E00320704700B5C5B000F06AFBCA
S31508003DE018F04CFA0223222200A904A81CF0F7FEB8
S31508003DF09DF8042000A904A81CF0AAFE029A00A9AE
S31508003E0004A81CF0BCFE9DF80C2000A904A81CF010
S31508003E109FFE00A904A81CF0EAFE9DF8001004A85D
S31508003E200FF030FBFFF751FF0CBF0020092045B00B
S31508003E3000BD012A03D1062B01D0042070470128B2
S31508003E4002D0022801D001E002E036E003207047E4
S31508003E5000B5C9B000F02EFB18F032FE0123292266
S31508003E6000A909A81CF0BBFEFFF701FA024600A943
S31508003E7009A81CF06DFEBDF808008205920D00A980
S31508003E8009A81CF077FE019A00A909A81CF077FE7C
S31508003E90002200A909A81CF072FE00A909A81CF0B6
S31508003EA0A6FE9DF8001009A80FF0ECFAFFF70DFF23
S31508003EB00CBF0020092049B000BD2DE9F04AEBB03F
S31508003EC000F07AF802A8FFF79FF90223292200A931
S31508003ED02AA81CF084FEFFF7EBF9024600A92AA8D7
S31508003EE01CF036FEDDE906010026CA4F00F05CF834
S31508003EF094BFBB46CB46DFF80045DFF8005500F017
S31508003F005FF802460B46002059461DF0FBFB1EF0E3
S31508003F10C3FC00F059F8DDE908013246FFF757FC03
S31508003F2098BFB94600F04CF800224B461DF0EAFB54
S31508003F301EF0B2FC00F048F817981EF0CBFD1DF0F5
S31508003F4081FA00F03DF832463B461DF0DBFB1EF0D9
S31508003F50B9FC00F039F818981EF0BCFD1DF072FA8D
S31508003F6002460B46204629461AF08AFF32463B4649
S31508003F701DF0C8FB1EF0A6FC00F026F8199A00A949
S31508003F802AA81CF012FE00A92AA81CF030FE9DF8EB
S31508003F9000102AA80FF076FAFFF797FE0CBF00204C
S31508003FA009206BB0BDE8F08ADFF844940022134676
S31508003FB01FF0A6B80437020800208DF800007047E5
S31508003FC022462B461AF05CBF024600A92AA81CF016
S31508003FD0D6BD012A03D1062B01D00420704702283A
S31508003FE001D1FFF76ABA0320704710B5ECB0044652
S31508003FF0012A03D1062B18BF042015D100A818F0F2
S315080040005FFD08A818F06EFD012C02D0022C05D021
S3150800401009E000A908A8FFF7ABFA05E000A908A877
S31508004020FFF7AAFA00E003206CB010BD00B5CBB0CC
S31508004030012A03D1062B18BF042011D101280ED15D
S3150800404042A818F03DFD39A818F067FD00A818F039
S315080040507CFD42AA39A900A8FFF7D2FB00E003209D
S315080040604BB000BD70B5BAB00C461546012D03D14C
S31508004070072B18BF042024D10E2C05D3FF2C03D000
S3150800408000F021F800201CE0012816D101A818F03C
S315080040905CFD01A92046FFF74DFC060010D1FF2C58
S315080040A00ED1012D0CBF022004200021009101230E
S315080040B03322FF21FFF718F902E000F004F8002682
S315080040C030463AB070BD032100910346332221469B
S315080040D00220FFF709B9F0B5F7B004460D461646B3
S315080040E01F4602A810F07CF9032C08D0042C11D026
S315080040F0052C17D0072C1DD0082C45D04CE0012ED6
S3150800410003D1062F01D0042048E002A800F048F8A1
S31508004110074642E0012E01D1062FF4D102A800F08D
S3150800412080F8F5E7012E01D1062FECD102A800F0A0
S31508004130D8F8EDE7012E01D1072FE4D12846022849
S3150800414002D9FF3804D015E002A9FFF789FCDFE79A
S3150800415002A92846FFF784FC07001ED1012E0CBFD2
S315080041600220042000210091072336222946FFF762
S31508004170BBF812E0052000900723362229460220C4
S31508004180FFF7B2F8002708E0012E01D1062FBAD1B1
S3150800419002A800F0EAF8BBE70327384677B0F0BD77
S315080041A0F0B5C1B000F037F90323FFF71EFDF80795
S315080041B00AD4B80748BF092606D4780748BF0A268E
S315080041C002D4380748BF0B2605F22807B86F400502
S315080041D048BF46F01006F2B2FFF79BFC884EF86E11
S315080041E000F016F900F018F8D5E90A011DF02AF9C9
S315080041F01DF0B0FF00F00CF900F00EF8FFF784FC94
S31508004200FFF77DFCFFF761FD18BF0924AAE000004F
S3150800421090A700200000E03F024600A901A81CF074
S31508004220C4BC2DE9F043C1B0804600F054F898F8B4
S31508004230500100F00F060423FFF7D7FCF0070AD455
S31508004240B00748BF092506D4700748BF0A2502D417
S31508004250300748BF0B2508F23807B86EC00448BFB8
S3150800426045F01005EAB2FFF754FC654D654EB96C8A
S3150800427030681DF099FB29681DF096FB01466248D7
S315080042801CF0E8FFFFF7C8FFD8E90E011DF0DAF8C1
S315080042904FF020425D4B1AF0F3FD07468946316818
S315080042A028681DF081FB1EF015FC02460B463846B1
S315080042B0494619F071FD1DF04DFFFFF7ADFFFFF7F9
S315080042C023FCFFF71CFCFFF700FD18BF0924204656
S315080042D041B0BDE8F08300208DF8000000250446B3
S315080042E07047F0B5C1B00546FFF766FE00260446DE
S315080042F095F8540100F00F070523FFF776FCF80739
S315080043000AD4B80748BF092606D4780748BF0A263C
S3150800431002D4380748BF0B2605F2400090F8601013
S31508004320C90648BF46F0100690F95C004FF0FF3109
S31508004330884208BF46F08006F2B2FFF7EAFBD5E9E5
S31508004340102300202B491DF0DDF91EF0A5FAC2B294
S31508004350FFF7DFFBFFF7D8FBFFF7D1FBFFF7B5FC4D
S3150800436018BF0924204641B0F0BDF0B5C1B000F031
S3150800437052F80823FFF739FCF8070AD4B80748BFEC
S31508004380092606D4780748BF0A2602D4380748BF44
S315080043900B2605F22807B86F400548BF46F01006F9
S315080043A0F2B2FFF7B6FB164E386F00F031F8FFF79A
S315080043B033FFD5E90A011DF045F81DF0CBFE00F0E4
S315080043C027F8FFF729FFFFF79FFBFFF798FBFFF793
S315080043D07CFC18BF0924C5E7176CC1166CC166407A
S315080043E00000594078DEB1416CC16641000070405A
S315080043F00000E0BF0000E03F83C8C96D305FC441DC
S3150800440090AC00208CAC002035FA8E3C46DF913FFC
S3150800441031681CF01FBF054600208DF800000026F5
S31508004420044695F8480100F00F077047012A03D1A2
S31508004430062B01D004207047012800D101E0032093
S31508004440704700B5C7B000F035F8FEF7FAFE01234D
S315080044503F2200A907A81CF0C2FB9DF8042002B160
S31508004460012200A907A81CF073FB002200A907A8CF
S315080044701CF085FB002200A907A81CF07BFB029A0A
S3150800448000A907A81CF07BFBBDF8182000A907A8FF
S315080044901CF070FB00A907A81CF0A9FB9DF80010EA
S315080044A007A80EF0EFFFFFF710FC0CBF002009204D
S315080044B047B000BD00208DF8000001A870472828E5
S315080044C008D029280CD02A280ED02B2810D07F28CF
S315080044D012D014E0072B01D1084612E004207047D9
S315080044E0072BFBD1084620E0072BF7D1084630E01A
S315080044F0072BF3D1084641E0062BEFD153E0032002
S31508004500704700B595B0411EC9B2202928BF0520BD
S3150800451009D200A918F048FB08B9082003E000A84A
S31508004520FEF75AFA002015B000BD00B589B0411E45
S31508004530C9B2202928BF052009D200A918F017FBFF
S3150800454008B9082003E000A8FEF7B0FA002009B071
S3150800455000BD00B591B0A0F14101C9B2202928BF1C
S31508004560052009D200A918F0E3FB08B9082003E0E2
S3150800457000A8FEF7D1FA002011B000BD00B58FB033
S31508004580A0F14101C9B2202928BF052009D200A9F6
S3150800459018F0CCFB08B9082003E000A8FEF724FBB6
S315080045A000200FB000BD10B5C6B0FFF783FFFEF7B9
S315080045B027FE7F23702200A905A81CF010FB002403
S315080045C001A850F8242000A905A81CF0D8FA641CF4
S315080045D0042CF5DB00A905A81CF009FB9DF80010C2
S315080045E005A80EF04FFFFFF770FB0CBF002009204F
S315080045F046B010BD3078253032687800436F646560
S315080046003A203078253034780000000045562025B9
S31508004610643A3A253032642F253032642F253032F9
S315080046206420253032643A253032643A25303264C3
S31508004630202573003078253034687800455252209A
S3150800464025643A3A253032642F253032642F2530D6
S31508004650326420253032643A253032643A253032C5
S3150800466064202573000000004552522025643A3A1A
S31508004670253032642F253032642F253032642025C8
S315080046803032643A253032643A2530326420307844
S3150800469025303458000000005761726D207265732A
S315080046A06574000000000000000000000000000023
S315080046B000000000000000000000000000000000EC
S315080046C000000000000000000000000000000000DC
S315080046D000000000000000003078303100000000C3
S315080046E000000000000000000000000000000000BC
S315080046F000000000000000000000000000000000AC
S31508004700000000000000000000000000000000009B
S315080047100000000000000000436F6C64207265739F
S3150800472065740000000000000000000000000000A2
S31508004730000000000000000000000000000000006B
S31508004740000000000000000000000000000000005B
S315080047500000000000000000307830320000000041
S31508004760000000000000000000000000000000003B
S31508004770000000000000000000000000000000002B
S31508004780000000000000000000000000000000001B
S315080047900000000000000000466163746F72792013
S315080047A072657365740000000000000000000000D8
S315080047B000000000000000000000000000000000EB
S315080047C000000000000000000000000000000000DB
S315080047D000000000000000003078303300000000C0
S315080047E000000000000000000000000000000000BB
S315080047F000000000000000000000000000000000AB
S31508004800000000000000000000000000000000009A
S315080048100000000000000000436F6C6420737461A0
S3150800482072747570000000000000000000000000AF
S31508004830000000000000000000000000000000006A
S31508004840000000000000000000000000000000005A
S31508004850000000000000000030783035000000003D
S31508004860000000000000000000000000000000003A
S31508004870000000000000000000000000000000002A
S31508004880000000000000000000000000000000001A
S315080048900000000000000000477261636566756CE1
S315080048A02073687574646F776E2F7265736574000C
S315080048B000000000000000000000000000000000EA
S315080048C000000000000000000000000000000000DA
S315080048D000000000000000003078303600000000BC
S315080048E000000000000000000000000000000000BA
S315080048F000000000000000000000000000000000AA
S315080049000000000000000000000000000000000099
S31508004910000000000000000053797374656D207074
S31508004920617373656420616C6C20646961676E6F7E
S315080049307374696320746573747300000000000063
S315080049400000000000000000000000000000000059
S315080049500000000000000000307831300000000040
S315080049600000000000000000000000000000000039
S315080049700000000000000000000000000000000029
S315080049800000000000000000000000000000000019
S31508004990000000000000000053797374656D2074F0
S315080049A06573742073746172746564000000000096
S315080049B000000000000000000000000000000000E9
S315080049C000000000000000000000000000000000D9
S315080049D000000000000000003078313100000000BF
S315080049E000000000000000000000000000000000B9
S315080049F000000000000000000000000000000000A9
S31508004A000000000000000000000000000000000098
S31508004A10000000000000000053797374656D20746F
S31508004A206573742066696E697368656400000000C2
S31508004A300000000000000000000000000000000068
S31508004A400000000000000000000000000000000058
S31508004A50000000000000000030783132000000003D
S31508004A600000000000000000000000000000000038
S31508004A700000000000000000000000000000000028
S31508004A800000000000000000000000000000000018
S31508004A900000000000000000466F7263696E672020
S31508004AA0746F206D6F6E69746F72000000000000ED
S31508004AB000000000000000000000000000000000E8
S31508004AC000000000000000000000000000000000D8
S31508004AD000000000000000003078323000000000BE
S31508004AE000000000000000000000000000000000B8
S31508004AF000000000000000000000000000000000A8
S31508004B000000000000000000000000000000000097
S31508004B1000000000000000004669727374204750C8
S31508004B205320666978206F6E2073746172742075DD
S31508004B3070000000000000000000000000000000F7
S31508004B400000000000000000000000000000000057
S31508004B50000000000000000030783430000000003B
S31508004B600000000000000000000000000000000037
S31508004B700000000000000000000000000000000027
S31508004B800000000000000000000000000000000017
S31508004B9000000000000000004F75747075742073E3
S31508004BA06F6C7574696F6E20736E617070656420C2
S31508004BB0746F2044522D4750530000000000000037
S31508004BC000000000000000000000000000000000D7
S31508004BD000000000000000003078343200000000B9
S31508004BE000000000000000000000000000000000B7
S31508004BF000000000000000000000000000000000A7
S31508004C000000000000000000000000000000000096
S31508004C100000000000000000506F736974696F6E31
S31508004C20207265636F766572792C20736E61707079
S31508004C30656420746F204750530000000000000090
S31508004C400000000000000000000000000000000056
S31508004C500000000000000000307834330000000037
S31508004C600000000000000000000000000000000036
S31508004C700000000000000000000000000000000026
S31508004C800000000000000000000000000000000016
S31508004C90000000000000000048656164696E672036
S31508004CA07265636F766572792C20736E61707065B4
S31508004CB06420746F20475053000000000000000075
S31508004CC000000000000000000000000000000000D6
S31508004CD000000000000000003078343400000000B6
S31508004CE000000000000000000000000000000000B6
S31508004CF000000000000000000000000000000000A6
S31508004D000000000000000000000000000000000095
S31508004D100000000000000000445050207265636FD8
S31508004D20766572792C20736E617070656420746F75
S31508004D30204750530000000000000000000000005B
S31508004D400000000000000000000000000000000055
S31508004D500000000000000000307834350000000034
S31508004D600000000000000000000000000000000035
S31508004D700000000000000000000000000000000025
S31508004D800000000000000000000000000000000015
S31508004D9000000000000000005A524F207265636F41
S31508004DA0766572790000000000000000000000002F
S31508004DB000000000000000000000000000000000E5
S31508004DC000000000000000000000000000000000D5
S31508004DD000000000000000003078343600000000B3
S31508004DE000000000000000000000000000000000B5
S31508004DF000000000000000000000000000000000A5
S31508004E000000000000000000000000000000000094
S31508004E1000000000000000005573657220656E747E
S31508004E20657265642074696D65206F6E20737461A0
S31508004E307274757000000000000000000000000099
S31508004E400000000000000000000000000000000054
S31508004E500000000000000000307835300000000037
S31508004E600000000000000000000000000000000034
S31508004E700000000000000000000000000000000024
S31508004E800000000000000000000000000000000014
S31508004E9000000000000000005573657220656E74FE
S31508004EA06572656420706F736974696F6E206F6EC2
S31508004EB020737461727475700000000000000000B1
S31508004EC000000000000000000000000000000000D4
S31508004ED000000000000000003078353100000000B6
S31508004EE000000000000000000000000000000000B4
S31508004EF000000000000000000000000000000000A4
S31508004F000000000000000000000000000000000093
S31508004F1000000000000000004779726F20616E6F84
S31508004F206D616C792064657465637465640000005E
S31508004F300000000000000000000000000000000063
S31508004F400000000000000000000000000000000053
S31508004F500000000000000000307836320000000033
S31508004F600000000000000000000000000000000033
S31508004F700000000000000000000000000000000023
S31508004F800000000000000000000000000000000013
S31508004F9000000000000000004E6F20746163686F17
S31508004FA02064617461207768656E206D6F76656D23
S31508004FB0656E74206465746563746564000000003A
S31508004FC000000000000000000000000000000000D3
S31508004FD000000000000000003078363300000000B2
S31508004FE000000000000000000000000000000000B3
S31508004FF000000000000000000000000000000000A3
S315080050000000000000000000000000000000000092
S315080050100000000000000000526576657273652086
S315080050207369676E616C20636F6E666C6963742062
S31508005030776974682047505300000000000000009C
S315080050400000000000000000000000000000000052
S31508005050000000000000000030783635000000002F
S315080050600000000000000000000000000000000032
S315080050700000000000000000000000000000000022
S315080050800000000000000000000000000000000012
S3150800509000000000000000004C61726765206F7216
S315080050A0206E756D65726F7573206A756D70730005
S315080050B000000000000000000000000000000000E2
S315080050C000000000000000000000000000000000D2
S315080050D000000000000000003078363600000000AE
S315080050E000000000000000000000000000000000B2
S315080050F000000000000000000000000000000000A2
S315080051000000000000000000000000000000000091
S3150800511000000000000000004F7363696C6C617446
S315080051206F7220616E6F6D616C792064657465635A
S315080051307465640000000000000000000000000024
S315080051400000000000000000000000000000000051
S31508005150000000000000000030783637000000002C
S315080051600000000000000000000000000000000031
S315080051700000000000000000000000000000000021
S315080051800000000000000000000000000000000011
S3150800519000000000000000004578742E20616E743F
S315080051A0656E6E61206F70656E20646574656374E4
S315080051B06564000000000000000000000000000018
S315080051C000000000000000000000000000000000D1
S315080051D000000000000000003078373000000000B2
S315080051E000000000000000000000000000000000B1
S315080051F000000000000000000000000000000000A1
S315080052000000000000000000000000000000000090
S3150800521000000000000000004578742E20616E74BE
S31508005220656E6E612073686F727420646574656359
S315080052307465640000000000000000000000000023
S315080052400000000000000000000000000000000050
S315080052500000000000000000307837310000000030
S315080052600000000000000000000000000000000030
S315080052700000000000000000000000000000000020
S315080052800000000000000000000000000000000010
S3150800529000000000000000004779726F206661690F
S315080052A06C6564206F6E2073656C662D7465737407
S315080052B000000000000000000000000000000000E0
S315080052C000000000000000000000000000000000D0
S315080052D000000000000000003078373400000000AD
S315080052E000000000000000000000000000000000B0
S315080052F000000000000000000000000000000000A0
S31508005300000000000000000000000000000000008F
S315080053100000000000000000496E742E20616E74C3
S31508005320656E6E61206F70656E2064657465637462
S315080053306564000000000000000000000000000096
S31508005340000000000000000000000000000000004F
S31508005350000000000000000030783930000000002E
S31508005360000000000000000000000000000000002F
S31508005370000000000000000000000000000000001F
S31508005380000000000000000000000000000000000F
S315080053900000000000000000496E742E20616E7443
S315080053A0656E6E612073686F7274206465746563D8
S315080053B074656400000000000000000000000000A2
S315080053C000000000000000000000000000000000CF
S315080053D000000000000000003078393100000000AD
S315080053E000000000000000000000000000000000AF
S315080053F0000000000000000000000000000000009F
S31508005400000000000000000000000000000000008E
S315080054100000000000000000416363656C65726F60
S315080054206D65746572206661696C6564206F6E20AF
S3150800543073656C662D7465737400000000000000C7
S31508005440000000000000000000000000000000004E
S31508005450000000000000000030783932000000002B
S31508005460000000000000000000000000000000002E
S31508005470000000000000000000000000000000001E
S31508005480000000000000000000000000000000000E
S3150800549000000000000000004E6F20475053206FA8
S315080054A0766572206C6F6E672064697374616E63CB
S315080054B06520617420737461727475700000000051
S315080054C000000000000000000000000000000000CE
S315080054D000000000000000003078393300000000AA
S315080054E000000000000000000000000000000000AE
S315080054F0000000000000000000000000000000009E
