:1008000071EF04F0FF00FF004582FACF0DF0FBCF3F
:100810000EF0E9CF0FF0EACF10F0E1CF11F0E2CF08
:1008200012F0D9CF13F0DACF14F0F3CF15F0F4CFE4
:1008300016F0F6CF17F0F7CF18F0F8CF19F0F5CF84
:100840001AF0F2BAF2A403D028EC1FF02CD0F2B8C0
:10085000F2A206D0F29281B026D06EEC1FF023D027
:100860009DBA9EAA03D0C6EC1EF01DD09DB89EA8CE
:1008700003D03AEC1EF017D0A3BAA4AA03D0B0EC70
:100880001EF011D0A3B8A4A803D021EC1EF00BD009
:10089000A3B0A4A003D0CFEC19F005D09DB09EA0CA
:1008A00002D015EC1FF01AC0F5FF19C0F8FF18C0F0
:1008B000F7FF17C0F6FF16C0F4FF15C0F3FF14C012
:1008C000DAFF13C0D9FF12C0E2FF11C0E1FF10C070
:1008D000EAFF0FC0E9FF0EC0FBFF0DC0FAFF459213
:1008E000110057EF19F0DC0EF66E790EF76E080066
:1008F000F5CF1DF0DB0EF66E790EF76E0900F550A0
:100900001D5CD8A004D0DC0EF66E790E03D0DB0E91
:10091000F66E790EF76E0800F5500001626F636B9A
:10092000DE0EF66E790EF76E0800F5CF1DF0DD0EC7
:10093000F66E790EF76E0900F5501D5CD8A004D054
:10094000DE0EF66E790E03D0DD0EF66E790EF76EC2
:100950000800F5500001646F656B000162510001F1
:10096000645D00016551800A1D6E00016351800ABB
:100970001D58D8A022D0DE0EF66E790EF76E080054
:10098000F5CF1DF0DD0EF66E790EF76E0900F5500D
:100990001D5CD8A004D0DE0EF66E790E03D0DD0EFD
:1009A000F66E790EF76E0800F5500001666F676B02
:1009B00066C060F067C061F021D0DC0EF66E790E83
:1009C000F76E0800F5CF1DF0DB0EF66E790EF76EB0
:1009D0000900F5501D5CD8A004D0DC0EF66E790E2F
:1009E00003D0DB0EF66E790EF76E0800F5500001AD
:1009F000686F696B68C060F069C061F000016051A8
:100A00001B5C000161511C58D8B002D0010E57D2B6
:100A1000D40EF66E790EF76E0800F5CF1DF0D30EEA
:100A2000F66E790EF76E0900F5501D5CD8A004D063
:100A3000D40EF66E790E03D0D30EF66E790EF76EE5
:100A40000800F55000016C6F6D6BD60EF66E790ED6
:100A5000F76E0800F5CF1DF0D50EF66E790EF76E25
:100A60000900F5501D5CD8A004D0D60EF66E790EA4
:100A700003D0D50EF66E790EF76E0800F550000122
:100A80006E6F6F6B00016C5100016E5D00016F5164
:100A9000800A1D6E00016D51800A1D58D8A022D019
:100AA000D60EF66E790EF76E0800F5CF1DF0D50E56
:100AB000F66E790EF76E0900F5501D5CD8A004D0D3
:100AC000D60EF66E790E03D0D50EF66E790EF76E51
:100AD0000800F5500001706F716B70C06AF071C052
:100AE0006BF021D0D40EF66E790EF76E0800F5CFBC
:100AF0001DF0D30EF66E790EF76E0900F5501D5CF1
:100B0000D8A004D0D40EF66E790E03D0D30EF66EB4
:100B1000790EF76E0800F5500001726F736B72C0AA
:100B20006AF073C06BF000016A511B5C00016B51ED
:100B30001C58D8B002D0020EC2D1CC0EF66E790E7F
:100B4000F76E0800F5CF1DF0CB0EF66E790EF76E3E
:100B50000900F5501D5CD8A004D0CC0EF66E790EBD
:100B600003D0CB0EF66E790EF76E0800F55000013B
:100B7000766F776BCE0EF66E790EF76E0800F5CFB6
:100B80001DF0CD0EF66E790EF76E0900F5501D5C66
:100B9000D8A004D0CE0EF66E790E03D0CD0EF66E30
:100BA000790EF76E0800F5500001786F796B00013F
:100BB00076510001785D00017951800A1D6E0001B7
:100BC0007751800A1D58D8A022D0CE0EF66E790E2D
:100BD000F76E0800F5CF1DF0CD0EF66E790EF76EAC
:100BE0000900F5501D5CD8A004D0CE0EF66E790E2B
:100BF00003D0CD0EF66E790EF76E0800F5500001A9
:100C00007A6F7B6B7AC074F07BC075F021D0CC0E0C
:100C1000F66E790EF76E0800F5CF1DF0CB0EF66E6E
:100C2000790EF76E0900F5501D5CD8A004D0CC0EEB
:100C3000F66E790E03D0CB0EF66E790EF76E0800C5
:100C4000F55000017C6F7D6B7CC074F07DC075F049
:100C5000000174511B5C000175511C58D8B002D0C2
:100C6000030E2DD19C0EF66E790EF76E0800F5CFAF
:100C70001DF09B0EF66E790EF76E0900F5501D5CA7
:100C8000D8A004D09C0EF66E790E03D09B0EF66EA3
:100C9000790EF76E0800F5500001806F816B9E0E93
:100CA000F66E790EF76E0800F5CF1DF09D0EF66E0C
:100CB000790EF76E0900F5501D5CD8A004D09E0E89
:100CC000F66E790E03D09D0EF66E790EF76E080063
:100CD000F5500001826F836B000180510001825D3D
:100CE00000018351800A1D6E00018151800A1D5848
:100CF000D8A022D09E0EF66E790EF76E0800F5CFC2
:100D00001DF09D0EF66E790EF76E0900F5501D5C14
:100D1000D8A004D09E0EF66E790E03D09D0EF66E0E
:100D2000790EF76E0800F5500001846F856B84C062
:100D30007EF085C07FF021D09C0EF66E790EF76EA6
:100D40000800F5CF1DF09B0EF66E790EF76E0900C8
:100D5000F5501D5CD8A004D09C0EF66E790E03D021
:100D60009B0EF66E790EF76E0800F5500001866F47
:100D7000876B86C07EF087C07FF000017E511B5CD0
:100D800000017F511C58D8B002D0040E98D0900EAC
:100D9000F66E790EF76E0800F5CF1DF08F0EF66E29
:100DA000790EF76E0900F5501D5CD8A005D0900EA5
:100DB000F66E790EF76E04D08F0EF66E790EF76E22
:100DC0000800F55000018A6F8B6B920EF66E790E5B
:100DD000F76E0800F5CF1DF0910EF66E790EF76EE6
:100DE0000900F5501D5CD8A004D0920EF66E790E65
:100DF00003D0910EF66E790EF76E0800F5500001E3
:100E00008C6F8D6B00018A5100018C5D00018D514A
:100E1000800A1D6E00018B51800A1D58D8A022D077
:100E2000920EF66E790EF76E0800F5CF1DF0910E5A
:100E3000F66E790EF76E0900F5501D5CD8A004D04F
:100E4000920EF66E790E03D0910EF66E790EF76E55
:100E50000800F55000018E6F8F6B8EC088F08FC038
:100E600089F022D0900EF66E790EF76E0800F5CF5D
:100E70001DF08F0EF66E790EF76E0900F5501D5CB1
:100E8000D8A005D0900EF66E790EF76E04D08F0EB6
:100E9000F66E790EF76E0800F5500001906F916BB9
:100EA00090C088F091C089F0000188511B5C00015E
:100EB00089511C58D8B002D0050E01D0060E2F6EF5
:100EC000CD0EF66E790EF76E0800F5CF1DF0CE0E42
:100ED000F66E790EF76E0900F5501D5CD8A004D0AF
:100EE000CE0EF66E790E03D0CD0EF66E790EF76E3D
:100EF0000800F5500001946F956BCB0EF66E790EDD
:100F0000F76E0800F5CF1DF0CC0EF66E790EF76E79
:100F10000900F5501D5CD8A004D0CC0EF66E790EF9
:100F200003D0CB0EF66E790EF76E0800F550000177
:100F3000966F976B000194510001965D00019751E7
:100F4000800A1D6E00019551800A1D58D8A022D03C
:100F5000CD0EF66E790EF76E0800F5CF1DF0CE0EB1
:100F6000F66E790EF76E0900F5501D5CD8A004D01E
:100F7000CE0EF66E790E03D0CD0EF66E790EF76EAC
:100F80000800F5500001986F996B98C092F099C0D5
:100F900093F021D0CB0EF66E790EF76E0800F5CFE8
:100FA0001DF0CC0EF66E790EF76E0900F5501D5C43
:100FB000D8A004D0CC0EF66E790E03D0CB0EF66E10
:100FC000790EF76E0800F55000019A6F9B6B9AC07E
:100FD00092F09BC093F01B500001925D1C500001E9
:100FE0009359D8B004D0010E0001D96F1200000E41
:100FF0000001D96F1200000E0001856F81C18FF0D2
:101000000001906B000E0001916F000E926F000EB8
:10101000936F000E946F0001CE510001D8B41AD026
:10102000000E0001CE6FF7C07DF0F8C07EF0F9C071
:101030007FF0FAC080F07EC080F07DC07FF00001BC
:101040007E6B7D6B7DC091F07EC092F07FC093F08F
:1010500080C094F082C17DF000017E6B7F6B806B5D
:101060007FC080F07EC07FF07DC07EF000017D6B90
:1010700000017D510001911300017E510001921386
:1010800000017F510001931300018051000194136E
:10109000010183510001911384C188F0000188513E
:1010A0000001D8A4D8D10001905105E1410E000102
:1010B0008F5DD8A00BD0050E0001606F7C0E000183
:1010C000616F72EC0AF09EEC20F009D2000194519D
:1010D00004E100019305D8A06FD0300E00019319F0
:1010E000000191110001921100019411D8A453D074
:1010F0000001905105E1110E00018F5DD8A011D0C3
:10110000B50E0001606F7A0E0001616F8FC062F052
:1011100090C063F072EC0AF0000E0001906F000EB8
:101120008F6F000E1C6E0F0E1B6E8FC01DF0F8EC43
:101130001CF0000E00018A6F000E896F21D0100E86
:10114000000189251B6E000E00018A211C6E040E11
:101150000001892500017D6F000E00018A21000138
:101160007E6F810E00017D25D96E010E00017E216A
:10117000DA6EDF501D6EF8EC1CF00001894B8A2BF3
:1011800000018F510001895D0001905100018A59D1
:10119000D8B0A5D1D4D71D0E0001606F7B0E000121
:1011A000616F91C062F092C063F093C064F094C02C
:1011B00065F072EC0AF093D1000194510001931193
:1011C00005E1800E0001925DD8A013D0830E0001CE
:1011D000606F7B0E0001616F91C062F092C063F09E
:1011E00093C064F094C065F072EC0AF09EEC20F0BD
:1011F00076D10001928FC00E0001F7150001816FBA
:10120000FF0E0001F8150001826F000E0001F915B4
:101210000001836F000E0001FA150001846FC00EFB
:101220000001911500018B6FFF0E00019215000166
:101230008C6F000E0001931500018D6F000E0001F0
:10124000941500018E6F00018B510001811910E18E
:1012500000018C51000182190BE100018D51000148
:10126000831906E100018E5100018419D8B457D0CA
:101270008BC076F08CC077F08DC078F08EC079F09E
:10128000010E00017A6FB8EC18F0000191510001D5
:101290008B1910E10001925100018C190BE1000142
:1012A000935100018D1906E10001945100018E193E
:1012B000D8B435D08BC07DF08CC07EF000017D1F8E
:1012C0007E1F7D4B7E2B0001915100017D25000189
:1012D000C86F0001925100017E210001C96F6A0EA2
:1012E0000001606F7D0E0001616F8BC062F08CC0E9
:1012F00063F08DC064F08EC065F072EC0AF03F0EB2
:101300000001606F7F0E0001616F91C062F092C0BA
:1013100063F093C064F094C065F072EC0AF00001D1
:101320008F510001C82500017D6F0001905100011F
:10133000C92100017E6F00017E5105E1410E0001CF
:101340007D5DD8A04BD0C8C07DF0C9C07EF0000143
:101350007D1F7E1F7D4B7E2B400E00017D250001F1
:10136000866F000E00017E210001876F410E000193
:10137000C8251B6E010E0001C9211C6E850E1D6E55
:10138000010E1E6E86C01FF087C020F07CEC1CF0A2
:10139000000E0001C96F400EC86F400E0001F72516
:1013A0000001766F000E0001F8210001776F000E3A
:1013B0000001F9210001786F000E0001FA210001FF
:1013C000796F030E00017A6FB8EC18F000018651B6
:1013D00000018F5F000187510001905B410E000109
:1013E000C8251B6E010E0001C9211C6E850E1D6EE5
:1013F000010E1E6E8FC01FF090C020F07CEC1CF020
:1014000000018F510001C827000190510001C9233C
:10141000400E0001C8190001C911D8A460D0000114
:10142000C8510001F7250001766F0001C951000184
:10143000F8210001776F000E0001F9210001786F9B
:10144000000E0001FA210001796F040E00017A6F8D
:10145000B8EC18F044D000018805D8A411D091C090
:1014600076F092C077F093C078F094C079F0050ED2
:1014700000017A6FB8EC18F0010E0001856F2FD0D3
:10148000040E00018819D8A42AD085C17DF000017E
:101490007E6B7F6B806B7FC080F07EC07FF07DC0F5
:1014A0007EF000017D6B7DC091F07EC092F07FC028
:1014B00093F080C094F0010186510001911391C016
:1014C00076F092C077F093C078F094C079F0060E71
:1014D00000017A6FB8EC18F0010E0001CE6F000128
:1014E00085511200620E00016C6F000E00016D6FDD
:1014F0003DD2250E00017519D8B405D000017551F3
:1015000025EC21F033D2000E0001746F000E736FD2
:10151000000E0001726F05D0000172850001604B62
:10152000612B60C0F6FF61C0F7FF0800F550300A7C
:10153000D8B4F2D760C0F6FF61C0F7FF0800F550DD
:101540008DEC1FF0D8A0C2D0000E0001746F000E09
:10155000736F73C01BF074C01CF0000E1E6E0A0E79
:101560001D6E02EC1FF01BC073F01CC074F0D00E97
:10157000276EFF0E286E60C0F6FF61C0F7FF0800FF
:10158000F550296E2A6A2750292628502A222950E8
:10159000000173272A50000174230001604B612B66
:1015A00060C0F6FF61C0F7FF0800F5508DEC1FF03A
:1015B000D8A08CD0CED70001728FA4D06CC0D9FF38
:1015C0006DC0DAFFDECF6AF0DDCF6BF0020E0001F6
:1015D0006C27000E6D2300016A5100016B11D8A425
:1015E00006D0E20E00016A6F7F0E00016B6F000EE5
:1015F00000016F6F000E6E6F03D000016E4B6F2BFA
:1016000000016E5100016A25276E00016F51000133
:101610006B21286E27C0F6FF28C0F7FFF86A0F0E6F
:10162000F76403D00800F55005D0F6CFE9FFF7CFF7
:10163000EAFFEF500009D8A4E0D700017351000180
:101640006E5D0001745100016F59D8B009D00001DE
:101650006E510001735F00016F510001745B09D08E
:10166000000E0001746F000E736F03D0200E25EC86
:1016700021F000017307D8A0740700017329F6E177
:1016800000017429D8B416D0F1D76AC0F6FF6BC038
:10169000F7FFF86A0F0EF76403D00800F55005D085
:1016A000F6CFE9FFF7CFEAFFEF5025EC21F000017C
:1016B0006A4B6B2B00016E07D8A06F0700016E29E3
:1016C000E4E100016F29D8B451D1DFD760C0F6FF43
:1016D00061C0F7FF0001604B612B0800F5CF75F08A
:1016E00000017551000AD8B41200640AD8B40AD0B7
:1016F0000D0AD8B407D01A0AD8B460D70B0AD8B4E8
:101700005AD734D1000172BF19D06CC0D9FF6DC057
:10171000DAFFDECF70F0DDCF71F0020E00016C2732
:10172000000E6D23000171AF53D0030E0001721340
:101730000001706D711FD8B0712B4AD06CC0D9FFF9
:101740006DC0DAFFDECF70F0DDCF71F0020E000168
:101750006C27000E6D233CD0010E0001756F050E45
:1017600000017519D8B43DD000017551020DDF0E8E
:10177000F324F66E790EF420F76E0900F55000019F
:10178000705D0900F55000017159D8A02AD0000100
:10179000752BE5D7010E0001756F040E0001751958
:1017A000D8B41FD000017551020DE90EF324F66E76
:1017B000790EF420F76E0900F5500001705D090004
:1017C000F55000017159D8A00CD00001752BE5D758
:1017D00000017251800B000AD8B4BED7800AD8B479
:1017E000D9D70001735100017411D8B40AD072C066
:1017F00027F0030E2716D8B404D000017307D8A031
:101800007407800E000175BF7F0E276E00017351B3
:101810000001755D00017451800A2758D8B00BD0C3
:10182000000175510001735F000E000175BFFF0ECE
:101830000001745B05D0000E0001746F000E736F21
:10184000000172A517D072C027F0030E2716D8B476
:1018500003D02D0E25EC21F000017351000174110D
:10186000D8B424D0300E25EC21F000017307D8A0A5
:101870007407F2D70001735100017411D8B40DD070
:10188000200E25EC21F000017307D8A07407000199
:10189000735100017411D8A4F3D772C027F0030E5E
:1018A0002716D8B403D02D0E25EC21F075C069F0B1
:1018B00057D000016951020DDF0EF324F66E790E48
:1018C000F420F76E0900F5CF1DF00A00F5CF1EF0E9
:1018D00070C01BF071C01CF0BFEC1BF01BC022F0ED
:1018E0001CC023F0000E256E0A0E246E5BEC1CF06B
:1018F0002250300F0001756F2FD070C01BF071C0E7
:101900001CF000016951020DE90EF324F66E790E08
:10191000F420F76E0900F5CF1DF00A00F5CF1EF098
:10192000BFEC1BF01B500F0B0001686F00016851EA
:10193000010DFC0EF324F66E7E0EF420F76E080007
:10194000F5CF75F009D000017251800B000AD8B4B0
:10195000B0D7800AD8B4D1D70001755125EC21F059
:101960000001690700016929D8A4EDD760C0F6FF1E
:1019700061C0F7FF0001604B612B0800F5CF75F0E7
:1019800000017551D8B41200B4D500017B6F000E70
:1019900000017E6F00017E51010DF350000176259C
:1019A000D96EF45000017721DA6E7BC0DFFF0001B1
:1019B0007E2BC5D100017E51010DF350000176252B
:1019C000D96EF45000017721DA6E010E34D0000197
:1019D0007E2BDCD10001DA510001D8A41CD000011B
:1019E0007E51010DF35000017625D96EF4500001AF
:1019F0007721DA6E000EDF6E00017E2B00017E5132
:101A0000010DF35000017625D96EF45000017721C5
:101A1000DA6E000E10D000017E51010DF35000016E
:101A20007625D96EF45000017721DA6E010EDF6E53
:101A300000017E2BBFD7DF6ECAD78BA20ED000016C
:101A40007E51010DF35000017625D96EF45000014E
:101A50007721DA6E000EDB800DD000017E51010D82
:101A6000F35000017625D96EF45000017721DA6E2B
:101A7000FE0EDF1654EC21F0E806D8A40ED00001CB
:101A80007E51010DF35000017625D96EF45000010E
:101A90007721DA6E000EDB829AD700017E51010DAC
:101AA000F35000017625D96EF45000017721DA6EEB
:101AB000FD0EDF168CD754EC21F00009D8A40DD010
:101AC00000017E51010DF35000017625D96EF450CE
:101AD00000017721DA6E000E0CD000017E51010D5D
:101AE000F35000017625D96EF45000017721DA6EAB
:101AF000010EDF6E00017E2B20EC21F01BC07CF07C
:101B00001CC07DF000017E51010DF35000017625CF
:101B1000D96EF45000017721DA6E00017D51DF6E3D
:101B200000017E2B00017E51010DF350000176254E
:101B3000D96EF45000017721DA6E7CC0DFFF47D701
:101B40003C50D8A40ED000017E51010DF35000018D
:101B50007625D96EF45000017721DA6E000EDB8015
:101B60000DD000017E51010DF35000017625D96E94
:101B7000F45000017721DA6EFE0EDF1600017E2B95
:101B800000017E51010DF35000017625D96EF4500D
:101B900000017721DA6E01012F51DF6E00017E2BEB
:101BA00000017E51010DF35000017625D96EF450ED
:101BB00000017721DA6E2EC1DFFF09D7000E000188
:101BC0007D6F000E7C6F00017D5106E1050E000166
:101BD0007C5DD8B0DBD001D0D9D0F60E00017C25D9
:101BE000F66E7F0E7D21F76E00017E51010DF350E0
:101BF00000017625D96EF45000017721DA6E0800D5
:101C0000F5CFDFFF00017E2B00017C4B7D2B000117
:101C10007D5101E1DBD7BAD000017E51010DF350B7
:101C200000017625D96EF45000017721DA6EB3C138
:101C3000DFFFCDD600017E51010DF3500001762566
:101C4000D96EF45000017721DA6EB3C1DFFF0001D5
:101C50007E2B00017E51010DF35000017625D96ED7
:101C6000F45000017721DA6E0101B651DF6E0001F8
:101C70007E2B00017E51010DF35000017625D96EB7
:101C8000F45000017721DA6EB5C1DFFF00017E2B31
:101C900000017E51010DF35000017625D96EF450FC
:101CA00000017721DA6EB4C1DFFF00017E2B280E20
:101CB0000101B46503D0030E0101B36F0101B351FB
:101CC000D8A464D0000E00017D6F000E7C6F1AD086
:101CD000B70E00017C25D96E010E00017D21DA6E60
:101CE00000017E51010DF35000017625E16EF450A4
:101CF00000017721E26EDFCFE7FF00017E2B0001BC
:101D00007C4B7D2B0101B4510001796F7A6B00018E
:101D1000795100017C5D00017A5100017D59D8B0F4
:101D200035D0D6D79B0E0001606F7E0E0001616F2B
:101D30007BC062F00001636B72EC0AF027D00001F7
:101D40007B51810AD8B436D6030AD8B443D6010AE7
:101D5000D8B473D6060AD8B4AED6030AD8B42AD6F5
:101D6000010AD8B4EDD60F0AD8B428D7180AD8B4C7
:101D70000DD0010AD8B40AD0030AD8B407D0320A69
:101D8000D8B44AD7010AD8B455D7CCD700017E5170
:101D9000120082C1BDF0830E0001C06F010E000170
:101DA000C16FD1D1C0C0D9FFC1C0DAFFDF5000017F
:101DB000BB6F030E0001BB17D8A40BD0AEEC20F014
:101DC0001E0E0001606F7F0E0001616F72EC0AF061
:101DD00025D0C0C0D9FFC1C0DAFFDF50030BE80631
:101DE000D8A409D06A0E0001606F7A0E0001616FFD
:101DF00072EC0AF013D0C0C0D9FFC1C0DAFFDF50C7
:101E0000030B020AD8A40AD0AEEC20F0E80E0001C1
:101E1000606F7C0E0001616F72EC0AF0C0C0D9FFE8
:101E2000C1C0DAFF0001DFA41200880EAEEC1AF088
:101E30001200000E0001B66F820E8CEC20F0120032
:101E4000C0C0D9FFC1C0DAFF0001DFA00AD07A0EFE
:101E50000001606F7C0E0001616F72EC0AF03A863F
:101E60001200CD0E0001606F7C0E0001616F72ECFC
:101E70000AF03A961200C0C0D9FFC1C0DAFF0001D3
:101E8000DFA011D0850E0001606F7E0E0001616F32
:101E900072EC0AF0000E1C6E0A0E1B6E31EC1DF087
:101EA0005CEC21F012006F0E0001606F7E0E0001ED
:101EB000616F72EC0AF01200C0C0D9FFC1C0DAFF36
:101EC000DF50D8A40BD0E50E0001606F7D0E00013D
:101ED000616F72EC0AF0FDEC1FF01200C0C0D9FF78
:101EE000C1C0DAFFDE04D8A40BD0420E0001606F3F
:101EF0007E0E0001616F72EC0AF000EC21F012001E
:101F0000C0C0D9FFC1C0DAFF020EDE18D8A412008B
:101F10006AEC1BF00001BE6F0001BE05D8A41200E0
:101F20009C0E0001606F7D0E0001616F72EC0AF083
:101F3000000E1C6E0A0E1B6E31EC1DF05CEC21F0E5
:101F40001200900E0001606F7A0E0001616FC0C038
:101F5000D9FFC1C0DAFFDF500001BB6F0001BB51E8
:101F60000001626F636B000120EE01F0C051D926C1
:101F7000C151DA22DF500001BC6F0001BC510001E9
:101F8000646F656B72EC0AF01200C0C0D9FFC1C06B
:101F9000DAFFDF50D8A41BD020EC21F01B50000149
:101FA000BE6F0001BE510001D8B40AD0610E00011D
:101FB000606F7B0E0001616F72EC0AF01BEC21F088
:101FC000000E0001B66F850E8CEC20F01200C0C030
:101FD000D9FFC1C0DAFFDE04D8A41200D80E000178
:101FE000606F7A0E0001616F72EC0AF016EC21F05E
:101FF000000E0001B66F850E8CEC20F01200C0C000
:10200000D9FFC1C0DAFFDF500101B46F000120EE3B
:1020100001F0C051D926C151DA22DF500101B66F5B
:10202000B56B000120EE02F0C051D926C151DA2271
:10203000DF500001BB6F0001BB510101B513000E61
:102040000001BF6F21D00001BF510001BB6FBC6B0D
:10205000030E0001BB27000EBC230001BB51000191
:10206000C025D96E0001BC510001C121DA6E00010A
:10207000BF51010DB70EF324E16E010EF420E26EA4
:10208000DFCFE7FF0001BF2B0101B4510001BF5DAD
:10209000D8A0D9D7B5C160F0B6C161F0B4C162F0C3
:1020A000B70E0001636F010E0001646F02EC16F0C1
:1020B00021EEB3F02B0EEBCFDBFFE806FCE2A00E27
:1020C000AEEC1AF01200C0C0D9FFC1C0DAFFDF5079
:1020D0000101B46F000120EE01F0C051D926C151B9
:1020E000DA22DF500101B66FB56B000120EE02F07D
:1020F000C051D926C151DA22DF500001BB6F000167
:10210000BB510101B513B5C160F0B6C161F0B4C1F6
:1021100062F09CEC16F021EEB3F02B0EEBCFDBFF60
:10212000E806FCE2A10EAEEC1AF01200370E000138
:10213000606F7D0E0001616FBDC062F00001636BD6
:1021400072EC0AF012000001BD51010AD8B42AD67F
:10215000030AD8B46ED6010AD8B472D6070AD8B426
:102160008AD6010AD8B4A8D6030AD8B4EAD6010A96
:10217000D8B40BD7270AD8B442D7010AD8B4A3D70A
:10218000D5D738EC20F00001B96F0FD1000E1C6ECE
:102190000A0E1B6E31EC1DF03FEC1BF01BEC21F026
:1021A0005AEC21F0F4EC20F0FED00001B905D8A4DF
:1021B00007D0000E0101E96F0A0EE86F210EE4D08E
:1021C0000001FB510001FC11D8A410D1BAEC1FF0A2
:1021D0000DD15AEC21F0AEEC20F0B50E0001606F8D
:1021E0007F0E0001616F72EC0AF00001FB510001EB
:1021F000FC11D8B40CD0D20E0001606F7F0E00012C
:10220000616FFBC062F0FCC063F072EC0AF0CB0EB1
:102210000001606F7C0E0001616F72EC0AF0400EED
:102220000001FB5D010E0001FC59D8B005D0010E84
:102230000001FC6F400EFB6F220EA6D00101E85199
:102240000101E911D8B4F8D70001B9510001D8A4AF
:10225000CDD0110E99D00001FB510001FC11D8A482
:10226000C5D0D6EC1FF034EC21F0230E0001DF6F57
:10227000AB0E0001606F7F0E0001616F72EC0AF01F
:10228000B5D0140E0001DE6510D0200E0001DF6F06
:10229000140E0001606F7E0E0001616FDEC062F0FF
:1022A0000001636B72EC0AF0A1D00001D905D8A43B
:1022B00004D0010EB9EC1DF003D0000EB9EC1DF0F6
:1022C0000001B905D8A40DD00A0E0001FD190001C6
:1022D000FE11D8B48BD0000E0001FE6F0A0EFD6F08
:1022E00085D00001FD510001FE11D8A47FD0300E31
:1022F0000001DF6F050E0001E06F38EC21F02F0EBA
:102300000001606F7F0E0001616F72EC0AF06ED009
:1023100020EC21F01B501C10D8B406D00001B905E8
:10232000D8A464D0230E30D00001B905D8A402D0BF
:10233000200E2AD00001E051D8A458D0310E00015F
:10234000DF6FA00E0001606F7F0E0001616F72EC05
:102350000AF04CD06FEC20F0000EB9EC1DF0010E2D
:102360000001FC6FF40EFB6FAEEC20F072D76FEC47
:1023700020F0000EB9EC1DF0010E0001FC6FF40E10
:10238000FB6FAEEC20F00FD00001DF6F2FD0420EBC
:102390000001606F7C0E0001616FDFC062F0000120
:1023A000636B72EC0AF0100EEFD70001DF51000AE8
:1023B000D8B4ECD6100AD8B419D0010AD8B4F5D6DE
:1023C000310AD8B406D7010AD8B438D7030AD8B42A
:1023D00042D7010AD8B455D7130AD8B499D7010AFD
:1023E000D8B4B8D7020AD8B4C2D7D1D70001DF51C8
:1023F0000001F619D8B41200DFC0F6F01200000197
:10240000EEA105D00001EE910001CC4BCD2B0001D7
:10241000D151D8A470D0510E0001606F7D0E000123
:10242000616F72EC0AF051EC21F015EC1DF0000127
:10243000C26F0001C2510001D8B40AD0A40E00013D
:10244000606F7B0E0001616F72EC0AF04CEC1FF0C4
:10245000000E0001C46F800EC56F000EC66F000E27
:10246000C76F0001C75116E10001C605D8B012D0F0
:10247000C4C01BF0C5C01CF0C6C01DF0C7C01EF014
:10248000EDEC1DF0400E0001C427000EC523C6234D
:10249000C723E7D7410E1B6E010E1C6E000E1E6E89
:1024A0001D68000E206E400E1F6E9AEC1EF0000E8E
:1024B0000001C96F000EC86F000E0001F76F800E9B
:1024C000F86F000EF96F000EFA6F000E0001CB6F6F
:1024D000000ECA6F000E0001CE6F000E0001CD6F1E
:1024E000000ECC6F000E0001D06FCBEC20F0010E7F
:1024F0000001D16F12000001D105D8A435D000EC45
:1025000013F00001C26F0001CD5105E1C80E0001BA
:10251000CC5DD8A003D0010E53EC18F00001C20529
:10252000D8A41200FBEC07F00001C36FD2EC20F03E
:10253000DA0E0001606F7F0E0001616FCAC062F0A9
:10254000CBC063F072EC0AF0000E0001CD6F000EFC
:10255000CC6F0001C305D8A41200000E0001D46F97
:10256000020E0001D16F1200020E0001D119D8A491
:102570001FD058EC15F00001C36F0001CD5105E1EB
:10258000320E0001CC5DD8A003D0010E53EC18F040
:102590000001C305D8A412000001D051D8A404D072
:1025A000030E0001D16F1200020E53EC18F012005E
:1025B000030E0001D119D8A414D03BEC1FF0440E37
:1025C0000001606F7A0E0001616F72EC0AF0000E7C
:1025D0001C6E0A0E1B6E31EC1DF0040E0001D16F53
:1025E0001200040E0001D119D8A41200C4EC20F08E
:1025F00016EC21F0000E0001D16FEFEC1EF012007E
:10260000000E0001BF6FCFD007EC1EF00001C16FBC
:102610003A0E0001C119D8A418D00001CA4BCB2B27
:10262000000E0001D56F000E0001D46F810E1B6EED
:10263000010E1C6E000E1E6E000E1D6E000E206E32
:10264000320E1F6E9AEC1EF0AED00A0E0001C119B8
:10265000D8B4A9D00D0E0001C119D8B4A4D0C10EB0
:102660001B6E000E1C6E12EC1BF00009D8A40FD0DC
:10267000C90E0001606F7F0E0001616FC1C062F082
:102680000001636B72EC0AF09EEC20F08CD000012C
:10269000D4B10BD0C1C0B8F00F0E0001B8170001C3
:1026A000B839F00B0001F16F7CD00001C1510F0B64
:1026B0000001F113FF0E0001B86FFF0E0001B96FAA
:1026C0000001D4510001BA6FBB6B0001B851000189
:1026D000BA270001B9510001BB230001BB35BB3152
:1026E0000001BD6F0001BA310001BC6F0001BC5197
:1026F0000001C06F0001C051010D810EF324D96E9D
:10270000010EF420DA6EF1C0DFFF0001C0510001BC
:10271000D8A403D0F1C0D5F044D00001C0510001CD
:10272000B86FB96B0001D5510001BA6FBB6B040ED5
:102730000001BA27000EBB230001B8510001BA19ED
:1027400030E10001B9510001BB19D8A42AD0810E93
:102750001B6E010E1C6EC0C01DF01E6AD3EC1DF076
:102760000001BE6F0001C051010D810EF324D96E2E
:10277000010EF420DA6E0001BE51DE18D8A404D098
:10278000010E0001BF6F12D0BDEC20F0BF0E0001A2
:10279000606F7F0E0001616F72EC0AF09EEC20F01A
:1027A00005D00001D42B3050D8A42ED70001BF5142
:1027B0001200000E0001766F000E0001776F000E10
:1027C0000001786F38EC20F00001796F2F5040182D
:1027D000D8B412004050D8A403D02F50D8B410D091
:1027E000FD0E0001606F7D0E0001616F40C062F060
:1027F0000001636B2FC064F00001656B72EC0AF09E
:102800002F50D8A40FD0590E0001606F7E0E00012A
:10281000616F72EC0AF0000E1C6E0A0E1B6E31EC3A
:102820001DF05DD02F04D8A41DD0110E0001DF656E
:1028300003D0010E0001776F00017905D8A409D0FB
:102840001D0E0001606F7D0E0001616F72EC0AF0D9
:1028500046D0030E0001606F7D0E0001616F72ECC7
:102860000AF03DD0020E2F18D8B439D0030E2F181D
:10287000D8B404D0040E2F18D8A410D00001DF5112
:10288000F00B100AD8B406D00001DF51F00B300A6B
:10289000D8A425D0010E0001766F21D0050E2F1887
:1028A000D8A40AD00001DF51F00B200AD8A417D019
:1028B000010E0001786F13D00001DF51D8B40FD0A2
:1028C00000017905D8A408D0C50E0001606F7B0E09
:1028D0000001616F72EC0AF0330E0001DF6F00013E
:1028E0007605D8A405D03E50D8A407D0010E04D058
:1028F0003E50D8B402D0000E3E6E00017705D8A439
:1029000005D03D50D8A407D0010E04D03D50D8B416
:1029100002D0000E3D6E00017805D8A405D03F50CE
:10292000D8A407D0010E04D03F50D8B402D0000E76
:102930003F6E2FC040F0120000017C6F000E0001BE
:102940007A6F0001D751D8A407D0AA0E00017C19D4
:10295000D8A402D0010E22D00001D705D8A41DD0E2
:10296000880E00017C19D8A418D00001D651D8B423
:102970000ED04F0E0001606F7F0E0001616F72EC90
:102980000AF0000E1C6E020E1B6E31EC1DF0010EE3
:102990000001D66F010E0001D26F000E0001D76F4B
:1029A0000001D751D8A476D00001D605D8A402D012
:1029B000020E0BD0020E0001D619D8A409D07CC09B
:1029C000D3F0000E0001D46F030E0001D66F62D069
:1029D000030E0001D619D8A45DD00001D451D8B49B
:1029E0007CC0D5F00001D451010D810EF324D96EC5
:1029F000010EF420DA6E7CC0DFFF0001D45100012B
:102A0000766F776B0001D5510001786F796B010EFD
:102A100000017827000E7923000176510001781912
:102A200037E10001775100017919D8A431D0AA0EFD
:102A300000017B6F880E00017B270001D35100014C
:102A40007B27810E1B6E010E1C6E0001D45183EC9E
:102A50001EF000017B270001D451010D810EF324EB
:102A6000D96E010EF420DA6E00017B51DE18D8A475
:102A700004D0010E00017A6F08D0C40E0001606F0F
:102A80007E0E0001616F72EC0AF0000E0001D66F3D
:102A90000001D42B0001D651D8A407D00001D25197
:102AA000D8B403D0000E0001D26F00017A51120099
:102AB000000E0001796F2FD007EC1EF000017C6F33
:102AC0003A0E00017C19D8A404D0000E0001D46F86
:102AD00015D07C0E1B6E000E1C6E12EC1BF0000954
:102AE000D8A40CD0C90E0001606F7F0E0001616F89
:102AF0007CC062F00001636B72EC0AF00001D451FB
:102B0000010D810EF324D96E010EF420DA6E7CC023
:102B1000DFFF0001D42B3050D8A4CED7040E000123
:102B2000D4656DD0010182510F0B0001766F776B78
:102B30000C0ED890000176377737E82EFAD776C09A
:102B40007AF077C07BF083C176F00F0E0001761724
:102B5000000176510001786F776B00017751000119
:102B60007A130001785100017B13010184510F0B8E
:102B70000001766F776B0001763B773BF00E77179D
:102B800076510F0B7713F00E761700017651000186
:102B90007A130001775100017B1385C176F00F0E87
:102BA000000176170001765100017A130001CA5125
:102BB00000017A1912E10001CB5100017B19D8A460
:102BC0000CD06E0E0001606F7F0E0001616F72EC21
:102BD0000AF0010E0001796F12D05E0E0001606FE5
:102BE0007C0E0001616F7AC062F07BC063F0CAC0E6
:102BF00064F0CBC065F072EC0AF09EEC20F00001AE
:102C000079511200000E00018F6F60C091F061C019
:102C100092F062C090F0000E1F6E020E206E20EE49
:102C200091F0DECF21F0DDCF22F01F502126205081
:102C30002222040E225CD8A003D0020E00018F6F66
:102C4000000E1F6E020E206E0001905100019125B2
:102C5000216E000E00019221226E1F50212620506D
:102C60002222040E225CD8A003D0030E00018F6F35
:102C7000000E00018E6F000E8D6F48D000018D5147
:102C8000000191251F6E00018E5100019221206EDE
:102C9000000E1F241B6E020E20201C6E00018D51A1
:102CA00000016325D96E00018E5100016421DA6EA6
:102CB000DF501D6EF8EC1CF000018D5100019125D4
:102CC0001F6E00018E5100019221206E000E1F2404
:102CD0001B6E020E20201C6E0AEC20F000018C6F8F
:102CE00000018D5100016325D96E00018E51000154
:102CF0006421DA6E00018C51DE18D8B404D0010EC4
:102D000000018F6F0FD000018D4B8E2B0001905171
:102D10001F6E206A1F5000018D5D205000018E59EA
:102D2000D8A0ACD720EE8FF000EE60F02B0EDBCFFA
:102D3000EBFFE806FCE21200000E00018E6F60C09F
:102D400090F061C091F062C08FF0000E1D6E020E17
:102D50001E6E20EE90F0DECF1FF0DDCF20F01D5074
:102D60001F261E502022040E205CD8A003D0020E85
:102D700000018E6F000E1D6E020E1E6E00018F513F
:102D8000000190251F6E000E00019121206E1D5044
:102D90001F261E502022040E205CD8A003D0030E54
:102DA00000018E6F000E00018D6F000E8C6F24D01D
:102DB000040E00018C251D6E000E00018D211E6E7B
:102DC0008E0E1D24D96E000E1E20DA6E00018C516D
:102DD000000190251F6E00018D5100019121206E90
:102DE000000E1F241B6E020E20201C6E0AEC20F029
:102DF000DF6E00018C4B8D2B00018F511D6E1E6A02
:102E00001D5000018C5D1E5000018D59D8A0D0D7F7
:102E100020EE8EF000EE60F02B0EDBCFEBFFE8062D
:102E2000FCE212000001B36F22EE80F010EE81F0A0
:102E3000310EDBCFE3FFE806FCE2AA0E0001816F52
:102E4000880E0001826FF0C083F00001F02B850E28
:102E50000001766F000E0001776F7FC078F00001EF
:102E6000B351C5EC0CF00001846F00018451040FD4
:102E70000001B56F810E1B6E000E1C6E0001B55176
:102E800083EC1EF00001806F0001B551010D810E31
:102E9000F324D96E000EF420DA6E80C0DFFF00014B
:102EA000B52B000E0001B46F25D00001B50700015D
:102EB000B4510001D8B410D00001B451010D810EFD
:102EC000F324D96E000EF420DA6EAA0EDE18D8A410
:102ED00003D0AA0E9CEC1CF00001B451010D810E30
:102EE000F324D96E000EF420DA6EDF509CEC1CF057
:102EF0000001B42B0001B5510001D8B41200D5D7A0
:102F00003F50D8B419D03F2A3C0E3F6415D0000E74
:102F10003F6E330E0001DF6F38EC20F00001766F5A
:102F200000017605D8A408D0E50E0001606F7B0E85
:102F30000001616F72EC0AF00001E051D8B402D0D8
:102F40000001E0070001DE51D8B402D00001DE2B01
:102F50002B502C10D8B412002B06D8A02C062B50C6
:102F60002C10D8A418D0FB0E0001606F7A0E00015F
:102F7000616F72EC0AF05F0E0001606F7F0E00015E
:102F8000616F72EC0AF0000E1C6E320E1B6E31EC9B
:102F90001DF05CEC21F054EC21F00009D8A41200E3
:102FA0002BC022F02CC023F0000E256E0A0E246EDA
:102FB0005BEC1CF022502310D8A41200240E000158
:102FC000606F7C0E0001616F2BC062F02CC063F05B
:102FD00072EC0AF01200C00E20140001606FFF0EA8
:102FE00021140001616F000E22140001626F000EB7
:102FF00023140001636F000EF2BE010E0001646F26
:103000000001605120180DE100016151211809E112
:1030100000016251221805E1000163512318D8B460
:1030200002D0FF0E120020C01BF021C01CF022C0F5
:103030001DF023C01EF0EDEC1DF022C0F8FF21C0F2
:10304000F7FF20C0F6FF000E0001656F3F0E000184
:10305000656501D016D000016551010DF35024249F
:10306000D96EF4502520DA6EDF50F56E3F0E000168
:103070006519D8A402D00C0001D00D000001652B09
:10308000E5D7A68EA69CA684F29E550EA76EAA0E24
:10309000A76EA682A694000164B102D0F29E01D070
:1030A000F28E000E120000017A6F00017A510001C9
:1030B000D8A409D02B0E0001606F7E0E0001616F55
:1030C00072EC0AF052D000017A05D8A433D0000186
:1030D000CA510001CB11D8B412D0B10E0001606FFB
:1030E0007E0E0001616FFF0E0001CA250001626FB4
:1030F000FF0E0001CB210001636F72EC0AF0CCC01F
:103100001BF0CDC01CF0000E1E6E0A0E1D6E02ECF0
:103110001FF01BC078F01CC079F03F0E0001606FFB
:103120007B0E0001616F78C062F079C063F072ECD1
:103130000AF01BD0020E00017A19D8A409D0B50EEE
:103140000001606F7D0E0001616F72EC0AF00DD01E
:10315000040E00017A19D8A408D00D0E0001606F8A
:103160007F0E0001616F72EC0AF0EFEC1EF01200AE
:103170000001C8510001C911D8B438D0F7C020F0FF
:10318000F8C021F0F9C022F0FAC023F0410E246EFD
:10319000010E256EEBEC17F000017B6F7C6B7BBFA3
:1031A0007C0700017B5100017C11D8B40CD0F00EDB
:1031B0000001606F7F0E0001616F7AC062F0000154
:1031C000636B72EC0AF0000E0001C96F000EC86F4D
:1031D000410E1B6E010E1C6E000E1E6E1D68000E51
:1031E000206E400E1F6E9AEC1EF014D01C0E0001D3
:1031F000606F7A0E0001616F7AC062F00001636B4C
:1032000076C064F077C065F078C066F079C067F08A
:1032100072EC0AF076C0F7F077C0F8F078C0F9F0F9
:1032200079C0FAF01200000E236EFAEC20F00009CB
:10323000D8B4FBD73CEC21F01BC021F01CC022F01D
:10324000215001013A27225001013B230101384B53
:10325000392B0101395105E1080E0101385DD8A073
:1032600021D0000E0101396F000E386F3AC11FF0F6
:103270003BC120F0D89020321F32D89020321F322C
:10328000D89020321F321DC0D9FF1EC0DAFF1FC0E8
:10329000DEFF20C0DDFF000E01013B6F000E3A6F24
:1032A000010E236E000EE3EC1FF02350120002EE1D
:1032B00000F0B20EEE6AE806FDE101EE00F0DF0E6E
:1032C000EE6AE806FDE100EEC8F0330EEE6AE806AD
:1032D000FDE100EE2BF0160EEE6AE806FDE1DC0ED5
:1032E000F66E410EF76E000EF86E01EEDFF010EE96
:1032F0000CF00900F5CFEEFFE550E150FAE1AE0E1B
:10330000F66E420EF76E000EF86E00EEFBF010EE59
:1033100005F00900F5CFEEFFE550E150FAE14590E8
:103320004592000EF86E000196EF19F0F29E5DECEA
:103330001FF02DEC20F083EC20F0F288F28EF28C5E
:10334000B6EC20F0FC0E0001606F7F0E0001616F93
:1033500072EC0AF0D180040095EC1BF054EC21F0E3
:103360000009D8A40CD0C8EC1FF0E806D8A412D0ED
:1033700077EC1AF0DAEC1CF0F0EC1FF00BD0C8EC94
:103380001FF0E806D8A403D0FFEC11F003D0000E24
:1033900053EC18F0E3EC1AF040EC21F0DCD7A490E9
:1033A00006EC21F00009D8A430D043C009F044C095
:1033B0000AF0091E0A1E094A0A2AABEC1FF009503E
:1033C00001240B6E0A5002200C6E0BC001F00CC0E1
:1033D00002F0000E046E320E036EE8EC1BF001C02A
:1033E0000BF002C00CF00B50010136250101346FC7
:1033F0000C50010137210101356F000E0101376FBB
:10340000000E366F010E0001ED6F2AEC21F0120064
:10341000000E00017E6F0ED007EC1EF000017D6FE4
:1034200000017D519CEC14F000017E6F00017E05CF
:10343000D8B403D03050D8A4EFD73BA41ED03B94CF
:103440000001D251D8B419D00001D22B640E000172
:10345000D26513D0000E0001D26FEA0E0001606F3A
:103460007E0E0001616FEFC062F00001636B72ECD1
:103470000AF00001EF2BD9EC20F000017E51120080
:103480003E50D8B409D03E2A0A0E3E6405D0000E44
:103490003E6E110E0001DF6F3D50D8B409D03D2AB9
:1034A000030E3D6405D0000E3D6E330E0001DF6F4C
:1034B0000001FB510001FC11D8B404D00001FB074E
:1034C000D8A0FC070101E8510101E911D8B404D0EA
:1034D0000101E807D8A0E9070001FD510001FE1134
:1034E000D8B412000001FD07D8A0FE0712003BA8C7
:1034F00003D03B98DCEC1EF03BA60DD03B9634C1CC
:103500002EF135C12FF1C8EC1FF0E806D8A403D086
:10351000870EAEEC1AF0000E81B4010E3C6E3C50EA
:103520000001FF19D8B412003C50D8A409D0880E6D
:103530000001606F7F0E0001616F72EC0AF008D02D
:103540007B0E0001606F7F0E0001616F72EC0AF06C
:103550003CC0FFF0870EAEEC1AF012000001766F4F
:103560002D280001776F090E0001776503D0000E4A
:103570000001776F000177512E18D8A413D0960E52
:103580000001606F7C0E0001616F76C062F0000187
:10359000636B72EC0AF0000E1C6E0A0E1B6E31ECAF
:1035A0001DF012002D50010D200EF324D96E010ED6
:1035B000F420DA6E76C0DFFF2D2A090E2D6412008A
:1035C000000E2D6E12000001D851D8B414D0000E98
:1035D0000001D86F4BEC21F00001F42B090E000123
:1035E000F4651200000E0001F46F0001F32B3B8420
:1035F0004EEC21F01200090E0001F36507D0000E19
:103600000001F36F0001F22B3B881200090E00014C
:10361000F2651200000E0001F26F3B863A8448EC1E
:1036200021F01200010E1D6E1BC0D9FF1CC0DAFF75
:10363000DF501E6E2F0E1E6406D03A0E1E6003D0A1
:103640000F0E1E1614D0400E1E6404D0470E1E60CE
:1036500001D006D0600E1E6408D0670E1E6005D033
:103660000F0E1E16090E1E2602D0000E1D6E1BC068
:10367000D9FF1CC0DAFF1EC0DFFF1D501200CA0EAA
:103680000001606F7C0E0001616F72EC0AF0D70ED2
:103690000001606F7E0E0001616FF60E0001626F27
:1036A0007F0E0001636F72EC0AF0B20E0001606FD2
:1036B0007C0E0001616F940E0001626F7F0E0001AD
:1036C000636FE90E0001646F7F0E0001656F72EC9D
:1036D0000AF01200000E0001776F15EC1DF00001DA
:1036E000766F000176510001D8B411D0F10E0001BF
:1036F000606F790E0001616F72EC0AF0000E1C6EB3
:10370000320E1B6E31EC1DF000EF00F00BD0CD0E31
:103710000001606F7D0E0001616F72EC0AF0010E16
:103720000001776F0001775112000001ECA112D067
:10373000BB0E1D6E000E1E6E13EC19F00001BA6F69
:103740000001BA05D8A406D0BBC01BF0BCC01CF059
:1037500073EC04F00001ECA304D00001EC9340EC06
:103760001AF00001ECA504D00001EC9580EC17F0F4
:10377000D9EC13F0C1EC10F0AEEC20F01200000E0A
:10378000216E000E206E1D501E10D8B41CD0010EEC
:103790001F6E04D0D8901D361E361F2A1EAEFAD7D3
:1037A000D890203621361D501B5C1E501C58D8A0C6
:1037B00005D01D501B5E1E501C5A2080D8901E3212
:1037C0001D321F2EEDD720C01BF021C01CF01200AF
:1037D000000E066E000E056E03500410D8B41CD007
:1037E000010E076E04D0D89003360436072A04AEC3
:1037F000FAD7D890053606360350015C04500258BB
:10380000D8A005D00350015E0450025A0580D8901C
:1038100004320332072EEDD705C001F006C002F0D6
:103820001200000E896EC10E926E010E0F01386FEC
:10383000000E8A6E270E936E000E0F01396F030E75
:10384000616E000E8B6EC00E946E000E0F013A6F0B
:10385000000E8C6EC00E956E000E0F013B6F000EB9
:103860008D6E000E966E000E0F013C6FF19E1200E1
:103870007EEC1FF00009D8B4120018D02E50010DB4
:10388000200EF324D96E010EF420DA6EDF50000111
:10389000B66F2E2A090E2E6402D0000E2E6E000E78
:1038A00000017F6F0001B65112EC17F02E502D1859
:1038B000D8B41200E3D724502510D8B418D0010E84
:1038C000266E04D0D89024362536262A25AEFAD77F
:1038D0002450225C25502358D8A004D02450225EC6
:1038E0002550235AD89025322432262EF1D722C0D3
:1038F00022F023C023F012001DC023F01EC024F0CC
:103900001BC021F01CC022F00ED023C0D9FF24C060
:10391000DAFF21C0E1FF22C0E2FFDFCFE7FF234A49
:10392000242A214A222A1F06D8A020061F28EDE1BA
:103930002028D8B41200E9D71B6E0101EB51D8B48E
:10394000FCD79DB803D01BC0ADFF13D09D9833505A
:10395000010D000EF324D96E010EF420DA6E1BC0A7
:10396000DFFF332A0F0E336402D0000E336E0101E5
:10397000EB079D8812001B6E0101EC51D8B4FCD7F7
:10398000A3B803D01BC073FF13D0A3983850010D08
:10399000100EF324D96E010EF420DA6E1BC0DFFF87
:1039A000382A0F0E386402D0000E386E0101EC0781
:1039B000A38812003AA602D0010E01D0000E000129
:1039C000786F3AA802D0010E01D0000E0001781BDA
:1039D000D8B412003AA602D03A8801D03A983AA652
:1039E00002D08B8201D08B92830EAEEC1AF01200C3
:1039F000000EF2BE010E1E6E1C50030BAA6E1BC001
:103A0000A9FF1DC0A8FFA69EA69CA684F29E550EE7
:103A1000A76EAA0EA76EA682A6B2FED7A6941EB067
:103A200002D0F29E01D0F28E1200000E1F6E000E28
:103A30001C6E000E1B6E0AEC20F01D6E000E1C6E3C
:103A4000010E1B6E0AEC20F01E6E310E1D18D8A45C
:103A500006D0370E1E18D8A402D0010E1F6E1F50BC
:103A60001200000E1E6E000E1D6E10D0000E206E95
:103A7000000E1F6E6B0E1F5C010E2058D8B004D0D4
:103A800000F01F4A202AF6D71D4A1E2A1B501D5C33
:103A90001C501E58D8B01200E9D7A39AA398480E1C
:103AA000706E900E716E260E726E220E756E000E86
:103AB000766E000E386E000E396E100E0101EC6F3E
:103AC000000E366E000E376E000E356EA38A1200A1
:103AD0009D9A9D98480EB86E900EAB6E260EAC6EF9
:103AE000220EAF6E000EB06E000E336E000E346EFE
:103AF000100E0101EB6F000E316E000E326E000EE3
:103B0000306E9D8A1200A39AA398480E706E900E94
:103B1000716E260E726E220E756E000E766E000E9F
:103B2000386E000E396E100E0101EC6F000E366E0D
:103B3000000E376E000E356EA38A12009D9A9D9876
:103B4000480EB86E900EAB6E260EAC6E220EAF6EA7
:103B5000000EB06E000E336E000E346E100E0101BA
:103B6000EB6F000E316E000E326E000E306E9D8ACD
:103B700012000001B86F0001B805D8A402D0010EF0
:103B800001D0000E0001DA6F0001B8510001F519F3
:103B9000D8B41200B8C0F5F0000E0001B66F820E66
:103BA0008CEC20F01200000E206E000E1F6E000E36
:103BB000216E0AD01F501B24D96E20501C20DA6EB3
:103BC000DF5021261F4A202A1D501F5C1E502058FE
:103BD000D8A0F0D7216C21501200000EF2BE010EC9
:103BE0001F6E1DC0F8FF1CC0F7FF1BC0F6FFA68E9E
:103BF000A69CA684A688F29E550EA76EAA0EA76E56
:103C0000A6821FB002D0F29E01D0F28E1200000EEA
:103C10001B6E3050D8B4FDD79D9A3250010D000E66
:103C2000F324D96E020EF420DA6EDF501B6E322AB6
:103C30003F0E326402D0000E326E30069D8A1B5059
:103C40001200100E0101EC6113D03950010D100E5D
:103C5000F324D96E010EF420DA6EDF50736E392A28
:103C60000F0E396402D0000E396E0101EC2B1200E8
:103C7000A3981200100E0101EB6113D03450010D16
:103C8000000EF324D96E010EF420DA6EDF50AD6E13
:103C9000342A0F0E346402D0000E346E0101EB2B77
:103CA00012009D981200340ECD6EC00ECC6E3C0EEC
:103CB000CF6EB00ECE6ECECF43F0CFCF44F09E90FD
:103CC0009D80A490A3805EEC21F0000E0101376F6F
:103CD000000E366F1200340ECD6EC00ECC6E3C0E50
:103CE000CF6EB00ECE6ECECF43F0CFCF44F09E90CD
:103CF0009D80A490A38064EC21F0000E0101376F39
:103D0000000E366F12001D6E000E1E6E000E1F6E2E
:103D10000BD01F50010DF3501B24D96EF4501C2002
:103D2000DA6EDF501E261F2A1D501F5CD8A0F1D767
:103D30001E5012001BC021F01CC022F008D021C070
:103D4000D9FF22C0DAFF1DC0DFFF214A222A1F0649
:103D5000D8A020061F28F3E12028D8B41200EFD7FE
:103D600071A202D0719871883650010D400EF32473
:103D7000D96E020EF420DA6E74CFDFFF362A3F0EC2
:103D8000366402D0000E366E352A1200ABA202D085
:103D9000AB98AB883150010D000EF324D96E020EA2
:103DA000F420DA6EAECFDFFF312A3F0E316402D04D
:103DB000000E316E302A12000001ED51D8B412000D
:103DC0000001ED2B0A0E0001ED651200000E00014E
:103DD000ED6F000E0101356F000E346F120000010F
:103DE000CF51D8B41200000E0001CF6F830E000136
:103DF000606F7D0E0001616F72EC0AF0850EAEEC13
:103E00001AF012001B501D02F3CF1FF0F4CF20F068
:103E10001B501E02F35020261C501D02F35020267A
:103E20001FC01BF020C01CF012009E904450CF6EAB
:103E300043C0CEFF06EC21F00009D8B41200010106
:103E4000E80E3627030E3723000E0001ED6F120037
:103E5000F2944250D76E41C0D6FF010E0001D86FD8
:103E60000101325101013311D8B4120001013207AE
:103E7000D8A033071200000E1C6E000E1B6E310E10
:103E80001D6EF8EC1CF0000E1C6E010E1B6E370E42
:103E90001D6EF8EC1CF01200000E1C6E000E1B6E66
:103EA000000E1D6EF8EC1CF0000E1C6E010E1B6E59
:103EB000000E1D6EF8EC1CF01200E7EC20F011EC87
:103EC0001CF043EC20F09CEC1FF04EEC20F068EC72
:103ED0001DF04DEC1DF053EC1EF01200A1AE03D00E
:103EE00062EC21F012002FEC21F001500210D8A456
:103EF000120016EC20F079EC20F01200000E1B6E80
:103F0000C8EC1FF0E806D8A406D00001DE51D8A402
:103F100002D0010E1B6E1B5012001D6E000E1C6E97
:103F20003A0E1D6005D02F0E1D6402D0010E1C6ECE
:103F30001CC01BF01B301200920ED56EFE0ED76E09
:103F40000C0ED66EFE0E426E0C0E416EF294F28A8C
:103F500060EC21F01200CECF08F0CFCF07F0075071
:103F6000036E0850056E03C006F005C001F006C0E0
:103F700002F012000F013F690F013E690F013D6918
:103F80002DEC20F022EC20F0D190D39E0300120003
:103F9000230E0001DF19D8B405D0300E0001DF195F
:103FA000D8A402D0010E1200000E12008B848B8860
:103FB000000E1C6E040E1B6E31EC1DF08C848B9277
:103FC0003A983A9612001C6E1CC01BF01B461B460A
:103FD000C2501B18830B1B18C26EC280C282120013
:103FE00038EC1CF008EC1AF00001C26F0001C205A9
:103FF000D8A41200C9EC0EF0120054EC21F0E8062F
:10400000D8A405D0030E53EC18F0A6EC20F0E0EC99
:1040100020F012001C50030BAA6E1BC0A9FFA69C27
:10402000A69EA68000F000F0A850120064EC20F0DC
:10403000DBC03FFFDCC03EFFDDC03DFF95EC20F064
:10404000D1801200000E896E000E8A6E000E8B6EFB
:10405000000E8C6E000E8D6E120089CFEDF18ACFAE
:10406000EEF18BCFEFF18CCFF0F18DCFF1F11200AB
:10407000000E81B0010E1B6E1B50D8A402D0010EA1
:104080001200000E1200D09EF194F19CF19A9F9ABA
:104090009F98A59AA598A5909F901200010EC26EB8
:1040A000000EC16E2E0EC06E000EC36E000EC46EEA
:1040B0001200010EC26E000EC16E2E0EC06E000EFA
:1040C000C36E000EC46E1200EDC189FFEEC18AFFFF
:1040D000EFC18BFFF0C18CFFF1C18DFF12008B94FB
:1040E0008C94000E1C6E020E1B6E31EC1DF08B9832
:1040F00012000001DF51F00B300AD8A41200200E8C
:104100000001DF6F12000001EC810001ECA1120040
:10411000000EE3EC1FF012000001B76FB6C07FF095
:104120000001B75112EC17F0120059EC20F09EEC90
:104130001DF083EC1DF06BEC1EF012000001D0515D
:10414000D8A41200010E0001D06F12000001D1515D
:10415000D8B41200040E0001D16F12000001DE512C
:10416000D8B41200000E0001DE6F12003FCFDBF06A
:104170003ECFDCF03DCFDDF01200000E0001B66F47
:10418000910E8CEC20F01200000E0001B66F920E22
:104190008CEC20F01200000E0001B66F850E8CEC46
:1041A00020F01200000E0001B66F900E8CEC20F093
:1041B0001200000E0001D66F000E0001D76F120032
:1041C000000E0001B66F850E8CEC20F01200300E50
:1041D000D36E040ED26E000E9B6E12003030303063
:1041E00030303030000A00410CEC21F0000EB9EC08
:1041F0001DF01200C2B202D0010E1200000E120019
:1042000044EC21F0000E0001D16F1200CCA402D0CA
:10421000010E1200000E120011EC21F0D9EC20F07A
:104220001200000E2E6E2EC02DF01200000E2C6E0D
:10423000B40E2B6E1200000E2C6E000E2B6E1200B0
:104240002BC01BF02CC01CF012001C6E1C50BBECD1
:104250001CF012004450CF6E43C0CEFF12002BC0A2
:1042600001F02CC002F01200010E0001DE6F1200FE
:10427000860EAEEC1AF01200C4CF1BF01C6A1200BE
:104280003AA412003A941200010E0001CF6F1200FE
:104290000001EC8512000001EC8312000001EE81A8
:1042A000120068EC1DF012000001CF511200400115
:1042B0000A0001008B941200FF001200CD80120052
:1042C000D58E1200FF001200CD801200FF00FF000B
:10798000FF00FF00FF00FF00FF00FF00FF0000E31B
:10799000E3E3E3CFCFCFCFBCBCBCBCA8A8A8A89FD3
:1079A0009F9F9F9A9A9A9A959595958B8B8B8B8290
:1079B000828282787878786E6E6E6E646464645BBE
:1079C0005B5B5B56565656515151514C4C4C4C4793
:1079D000474747434343433D3D3D3D3838383801F1
:1079E000000A006400E803102701001000000100F5
:1079F0001053746172742073656C662D70726F67BA
:107A000072616D6D696E672E204A756D7020626FB0
:107A10006F746C6F61646572210A0A00466C617351
:107A2000682077726974652061646472657373207D
:107A30006572726F722028256429203A20307825DB
:107A400078200A00436F6D706C6574656420736103
:107A500076696E67207061636B65747320666F7200
:107A6000207570646174652E0A0052783A20435084
:107A70005520426F6F74206572726F722E204350D2
:107A80005520776F756C64207265736574210A00E8
:107A900052783A20557064617465207061636B653B
:107AA00074202D204E756D3A2025642C204C656E77
:107AB0003A20256400436F6E666967757261746968
:107AC0006F6E20626974206572726F722E204C6531
:107AD0006E203D2025640A0052783A20486F6C647D
:107AE000204F4E2074686520532D555020666F72CC
:107AF000206D696E75746573210A0054696D656F38
:107B00007574204D455520757064617465207072E0
:107B10006F74656374696F6E2121210A004164648A
:107B200072657373206572726F722E204375727264
:107B3000656E74204C656E203D202564200A000A85
:107B40004661696C6564202D205570646174652000
:107B500074696D656F757421202D2025646D730A1D
:107B60000052783A2052656C6561736520686F6CCD
:107B700064696E67206F6E2074686520532D5550C0
:107B80002E0A004164647265737320307838303097
:107B900030206F7665722E2041646472203D20256E
:107BA00078200A00466F726D65722075706461748A
:107BB0006520776173206E6F7420636F6D706C65E4
:107BC00074652E0A0042617474204572726F7228C7
:107BD00056657279204869676829202D20535550D1
:107BE000204F4E0A0042617474204572726F7228F1
:107BF0004869676820316D696E29202D20535550E2
:107C0000204F4E0A004572726F722E2057726974AF
:107C100065206C656E677468206F766572666C6F40
:107C200077210A00557064617465203A2052616DB5
:107C300061696E2025647320746F207265736574AA
:107C40000A00506F7765722070726F636573736F8F
:107C500072206572726F72203A2025640A00537593
:107C60006D206572726F722E2052783A2025642C36
:107C70002043616C3A2025640A0052783A205374FC
:107C8000617274204750532070726F6772616D6D1E
:107C9000696E67210A00436F6D6D616E64206275C5
:107CA000662066756C6C2121204C6F73743A2564D4
:107CB0000A00092D20436F6D70696C6564206F6E3A
:107CC000202573206279202573200A0A0052783A11
:107CD0002053746F70204750532070726F67726129
:107CE0006D6D696E67210A0052783A204350552025
:107CF000456E74657220626F6F746C6F616465723B
:107D0000210A00426174742062656C6F7720362E00
:107D100035562C20535550204F46460A0042617478
:107D200074204572726F72284C4F5729202D2053B2
:107D30005550204F4E0A0052783A204572726F72A9
:107D400020527820636F6D6D616E64203A25640A5D
:107D5000005374617274206669726D776172652078
:107D6000757064617465210A0A00462D7772697422
:107D700065206E657720626C6F636B3A307825788A
:107D80002C20004368616E676520746F206E6F72EF
:107D90006D616C206D6F64652E2E0A004661696C02
:107DA00065642073656C662D70726F67616D6D69B7
:107DB0006E672E0A000A4661696C656420757064FE
:107DC000617465207061636B6574210A005570648D
:107DD000617465207061636B6574206973206E6FD8
:107DE0006E652E0A0052783A2043616E63656C20FE
:107DF0004D435520757064617465210A00436861C4
:107E00006E676520706F776572203A2025642D3E7D
:107E100025640A00435055206973206E6F742061F9
:107E20006C6976652E202564730A000A4661696CC8
:107E300065642075706461746520656E7472792163
:107E40000A0052783A205374617274204D435520D1
:107E5000757064617465210A00506F7765722063E4
:107E6000616E277420636865636B65642E0A005237
:107E7000783A204D4555207265736574206E6F6E9B
:107E80006521210A0052783A205374617274204DA2
:107E90004555207265736574210A004572726F72D0
:107EA00020547820636F6D6D616E64203A25640AFA
:107EB000000A52656369766564207061636B65745E
:107EC00020256400527820436865636B73756D20CC
:107ED0006572726F720A004D4355206F66204D45E2
:107EE00055205665722025730A0055415254205280
:107EF00078206572726F722025640A003031323347
:107F0000343536373839616263646566000A436127
:107F10006E63656C20757064617465210A00527827
:107F20003A2043505520416C69766564210A00531C
:107F30005550204F4646207369676E616C0A006E8B
:107F4000657720616464723A30782578200A00529F
:107F5000785061636B6574206572726F720A0046B7
:107F60006F72636520726573657421210A0043682E
:107F700065636B73756D204F4B0A00524556204F59
:107F80006666202848290A00524556204F6E202850
:107F90004C290A00466562203135203230313600E6
:107FA000426F6F7420646F776E0A00426F6F7420A7
:107FB0007570210A002D2D3E5265626F6F7400436B
:107FC0006865636B73756D0A0026307825303278EA
:107FD0002000203A2025646D730041636B202564E6
:107FE0000A00286E756C6C29006A776B616E6700F9
:107FF0007820256420005042313541002E000000D9
:020000040030CA
:0E000000FF730332FFA480FF0F800FA00F409C
:00000001FF
