:020000040000fa
:080000000002040000000000f2
:020000040000fa
:1000080092050000cc9e0000d69e0000e09e0000f5
:10001800ea9e00009205000092050000920500008b
:10002800920500009205000092050000fa9a00006f
:10003800920500009205000092050000920500005c
:10004800920500009205000092050000c694000089
:1000580064940000920500009205000092050000db
:1000680092050000507400009205000092050000ff
:10007800920500009205000092050000920500001c
:10008800920500009205000092050000920500000c
:10009800920500009205000058910000f6900000bb
:1000a80092050000920500009205000092050000ec
:1000b80092050000920500009205000092050000dc
:1000c80092050000920500009205000092050000cc
:1000d800920500009a0200009205000092050000b7
:1000e80092050000920500009e880000920500001d
:1000f800920500009205000092050000920500009c
:10010800920500009205000092050000920500008b
:10011800920500009205000092050000920500007b
:10012800920500009205000092050000920500006b
:10013800920500009205000092050000920500005b
:10014800920500009205000092050000920500004b
:10015800920500009205000092050000920500003b
:10016800920500009205000092050000920500002b
:10017800920500009205000092050000920500001b
:10018800920500009205000092050000920500000b
:1001980092050000920500009205000092050000fb
:1001a80092050000920500009205000092050000eb
:1001b80092050000920500009205000092050000db
:1001c80092050000920500009205000092050000cb
:1001d80092050000920500009205000092050000bb
:1001e80092050000920500009205000092050000ab
:0801f8009205000092050000d1
:020000040000fa
:1002080092050000cc9e0000d69e0000e09e0000f3
:10021800ea9e000092050000920500009205000089
:10022800920500009205000092050000fa9a00006d
:10023800920500009205000092050000920500005a
:10024800920500009205000092050000c694000087
:1002580064940000920500009205000092050000d9
:1002680092050000507400009205000092050000fd
:10027800920500009205000092050000920500001a
:10028800920500009205000092050000920500000a
:10029800920500009205000058910000f6900000b9
:1002a80092050000920500009205000092050000ea
:1002b80092050000920500009205000092050000da
:1002c80092050000920500009205000092050000ca
:1002d800920500009a0200009205000092050000b5
:1002e80092050000920500009e880000920500001b
:1002f800920500009205000092050000920500009a
:100308009205000092050000920500009205000089
:100318009205000092050000920500009205000079
:100328009205000092050000920500009205000069
:100338009205000092050000920500009205000059
:100348009205000092050000920500009205000049
:100358009205000092050000920500009205000039
:100368009205000092050000920500009205000029
:100378009205000092050000920500009205000019
:100388009205000092050000920500009205000009
:1003980092050000920500009205000092050000f9
:1003a80092050000920500009205000092050000e9
:1003b80092050000920500009205000092050000d9
:1003c80092050000920500009205000092050000c9
:1003d80092050000920500009205000092050000b9
:1003e80092050000920500009205000092050000a9
:0803f8009205000092050000cf
:020000040000fa
:100400000fb122000e7f24000e01880000000000c2
:10041000000020000000e000020032000001200087
:10042000200288000c000700a0d328000100200053
:1004300011000700000020000000e0000200320070
:1004400000000200000000006e52020000000000e8
:100450000040da000000fe004440a900a0ee2100a8
:100460000000e0000300320000002000a00188002e
:100470004440a80000000600910188008000780038
:100480000000eb0015003700e280400032a0b4000d
:100490009101ba00e280400032a0b4009102ba009b
:1004a000e280400032a0b4000002eb00472bde00e7
:1004b000f507b200602ce10004003a000059eb009f
:1004c0008301e900fdff3e00040037006128e100e0
:1004d000010032000082eb00040007001101ba00a5
:1004e0000200e000e8ff3a00000006003159ba00bf
:1004f0008301e9000c0032002159ba008301e900b0
:10050000080032000400e00003003a00e2804000ee
:1005100032a0b400f5ff370011d9ba008301e90019
:10052000faff3a008100e800e180400032a0b40008
:10053000000006000000fa0089a0a9000080fa006f
:10054000004006000000fa000000000011308000aa
:1005500000002800008060000000e000fbff3a007f
:1005600040308000004078000080fa000000060063
:100570000200fa00004f78000000000011308000f7
:1005800000002800008060000000e000fbff3a004f
:100590001e80fb00403088000080fa00000006004a
:1005a0000000fa0001e6a80001a6a80000308000c3
:1005b00000b0a00000c0a100003088000146a900e2
:1005c0000126a8000106a800003080000060a100fc
:1005d0000070a0000030880000a6a8000066a900f6
:1005e0000026a9000006a9001030800000d0a1005c
:1005f00000e0a100103088001030800000b0a000a2
:1006000000c0a100103088000346a900103080000f
:100610000080a1000090a000103088001030800001
:100620000060a0000070a000103088001030800032
:100630000020a0000030a0000040a0000050a0005a
:1006400010308800103080000000a0000010a000d2
:100650001030880005c6a80005e6a9000dc6a80050
:100660000c06a800020007000080fa000000060047
:100670000000fa00e08121008040eb000148780092
:10068000f08121008040eb000148780000822100c9
:100690008040eb00014878000080fa00000006006e
:1006a0000000fa0001e6a90010002000b452020088
:1006b00000000000baff07000080fa0000000600fa
:1006c0000000fa00889fbe0000000000113080008a
:1006d00000002800008060000000e000fbff3a00fe
:1006e000e0812100104478008884fb0095ff07001a
:1006f000004178006148b900e371210000804100a9
:10070000024878008840e800e08121000148780034
:10071000e081210090407800f081210010407800b5
:1007200080cf50000b003a0000822100104078007a
:100730008040e8000082210001487800008221000a
:1007400010407800e34f500005003600d4ff07004a
:1007500003003700008221008040eb000148780050
:100760004f04be000080fa00000006000400fa00fa
:10077000204798002e4090000080fb002030880029
:1007800005c6a8006fff0700004f78006dff070047
:100790000080fa00000006000800fa006047980098
:1007a0006000b80010079800210798001030800002
:1007b00000b0a00000c0a100103088006e40900082
:1007c0000080fb002030880005c6a8005dff070000
:1007d000004f78005bff07002047980059ff070093
:1007e000304798001e0090000080fa0000000600cc
:1007f0000800fa00604798006000b80010079800f1
:10080000210798001030800000b0a00000c0a100b7
:10081000103088006e4090000080fb00203088007f
:1008200005c6a80047ff0700004f780045ff0700f6
:100830002047980043ff07003047980041ff07001a
:10084000404798003fff0700504798001e00900067
:10085000ae0090000080fa00000006000a00fa00d6
:10086000881f780040479800310798004207980099
:100870001030800000b0a00000c0a100103088003f
:100880004e4090000080fb002030880005c6a80084
:100890002cff0700204798000000eb00000f7800b5
:1008a000070037001e0078008000eb003e0190003a
:1008b0000004410023ff0700004c78001e0fe800f1
:1008c0004e0090009e007800808f5000f5ff3900a8
:1008d0004f0478000080fa00000006000a00fa00c9
:1008e000881f780040479800310798004207980019
:1008f0001030800000b0a10000c0a10010308800be
:100900004e4090000080fb002030880005c6a80003
:100910000cff0700204798000000eb00000f780054
:10092000070037001e0078008000eb003e019000b9
:100930000004410003ff0700004c78001e0fe80090
:100940004e0090009e007800808f5000f5ff390027
:100950004f0478000080fa00000006000200fa0050
:10096000004f7800114798001030800000b0a000c0
:1009700000c0a100103088001e80fb0020308800dd
:1009800005c6a8001e409000f9fe07000080fa008e
:10099000000006000800fa00404798003107980060
:1009a0001030800000b0a00000c0a100103088000e
:1009b0004e4090000080fb002030880005c6a80053
:1009c000be009000010f78001e407800e8fe07008e
:1009d0001e409000e6fe07000080fa0000000600be
:1009e0000a00fa0040479800320798004307980031
:1009f0003e019000ce019000028fbe0010308000ba
:100a000000b0a00000c0a100103088004e4090004f
:100a10000080fb002030880005c6a8001e4078003a
:100a2000d3fe07001e409000d1fe07002e4090002c
:100a3000cffe07003e409000cdfe07000080fa0088
:100a4000000006000800fa002047980021079800df
:100a5000320798001030800000b0a00000c0a10054
:100a6000103088002e4090000080fb00203088006d
:100a700005c6a8000000eb00000f78000700370053
:100a80001e0078008000eb002e0190000000410065
:100a900010407800b6fe07001e0fe8003e009000f0
:100aa0009e007800808f5000f5ff39000080fa002a
:100ab000000006000800fa0020479800210798006f
:100ac000320798001030800000b0a10000c0a100e3
:100ad000103088002e4090000080fb0020308800fd
:100ae00005c6a8000000eb00000f780007003700e3
:100af0001e0078008000eb002e01900000004100f5
:100b0000104078009afe07001e0fe8003e0090009b
:100b10009e007800808f5000f5ff39000080fa00b9
:100b2000000006000040da000000fe000a00fa00a3
:100b3000e20f500020003e0070d88000e10f50000e
:100b400006003200802320004523200023232000bc
:100b5000042320000000e00004003a00802220006e
:100b60004522200023222000042220000600280025
:100b70001403630003003a00060878000000280010
:100b8000140a700013a8a30001003a0013a0a000eb
:100b900002007800050037001388a300feff320032
:100ba0003102fb00840a78000000e9000000e00048
:100bb000f9ff3a000800370033002000b3bf9f0060
:100bc000c0bf9f00d1bf9f00e2bf9f006a80570057
:100bd000610507006fb99700020078000080fa00f5
:100be00000000600889fbe008a9fbe008c1f780010
:100bf000980007009f00330003866c006450e100fa
:100c00002e0032006420e100330032006150e10028
:100c10002f0032006120e10031003200858555004f
:100c2000eb07b00009002000080420000500370091
:100c30000804440089844c000a0031000603430084
:100c400087834b000001530081815b00f8ff330074
:100c50000203be000800a0000804440089844c0080
:100c6000f6ff3900c639dd00830173000100320050
:100c7000130020008904d1000884d3000998a30040
:100c8000050032000800a7000300a0008904d1007d
:100c90000884d3008b05e8008904d1000884d300c0
:100ca0000001eb000281d2002f00070001f0a1003b
:100cb0000cf0a70001f0a000770037006420e100ed
:100cc000790032000801be000200be00f7ff3700c5
:100cd0006120e100740032006000b800f3ff3700cb
:100ce0000000200001f82700f0ff3700f4ff2f007c
:100cf000a40037000001be00410007000470a700f7
:100d000003f0a10003f8a30013003a006509b10045
:100d100010003200090035006928e10002003500aa
:100d2000010028000000050000004000818048000c
:100d30008502e900fcff3a0000000600f88f42003f
:100d4000050035008100d1000080d3008502e80055
:100d5000fcff3a00000006008000eb0000000500e8
:100d60006011b800a20037008100200061805500aa
:100d70000b003d000b00200061fe2f000100e10090
:100d80001d00340082817100610164008904d1007a
:100d90000884d3000000e800faff3a007100200048
:100da000610064000300700002006000090032006e
:100db00061044400e0844c000988a500050032006d
:100dc0008b05e8006808e10002003a008904d100c0
:100dd0000884d300f20f20000258e10005003d0016
:100de000c75ddd00f907b200898075000800780052
:100df000000006000bf827008b00780000000500bb
:100e0000c70ade00f107b200f50fb2000800320099
:100e1000e1cf4200020032000170a0002400050072
:100e2000810f700001003200040805004400050035
:100e3000810f700002003a00140005008502e900ed
:100e40000000400081c04800fcff3b000170a00092
:100e5000240005000004be00e9ff07000003be00f7
:100e60000405be000200be00e5ff0700844f7500c8
:100e7000000006000200be006450e10005003600dc
:100e80006420e100020036000968a30001003a0076
:100e90000800be000160a0004f0678004f05be00ac
:100ea0004f04be0000000600f0ff2f00f1ff2700f6
:100eb000f9ff3700889fbe008a9fbe008c1f780014
:100ec000e4ff0700ebff330003866c006450e10091
:100ed000240032006420e100270032006150e1006c
:100ee000220032006120e100210032008b854200a7
:100ef000eb07b1000134b800003ab8000804420022
:100f000089844a00013ab8000030b8008880400067
:100f100009014a00040033000000400081804800bd
:100f2000020149008b05e900c909dd008301700059
:100f30000100320013002000c814de004814dd0058
:100f40004709de001200b200c808de000884700005
:100f500085ff070001f0a1000cf0a70001f0a00040
:100f6000cdff37006120e100cfff32000801be0055
:100f70000200be00f7ff37006150e100fcff3a00bd
:100f8000c9ff3700889fbe008a9fbe00841f78007b
:100f9000b0ff07004f00780011003300f0ff2f0072
:100fa000838f6c0006003b00040565000a00a70063
:100fb0000800370009f0a6001000200008003700e4
:100fc000820f5400838f5c00030039001000200062
:100fd00001003e000000200009f0a7000000ea0028
:100fe0004f05be004f04be000000e00000000600f8
:100ff000889fbe008a9fbe000082700004027100bc
:1010000004827100260032000004be000200be000f
:101010006011b8006b092000950220000182cf000a
:101020000a0039000541b1000082cf0007003900f5
:101030000541b1000982cf00040039000541b1002b
:101040000882cf00010039000541b100054252007d
:10105000120032000a003b008281710061016400cd
:101060008100d1000080d3008984d3000884d3009c
:101070008b05e8000442e800f7ff3a00070037005c
:101080000804440089844c00000048008180480026
:101090008b05e9000442e900f9ff3a0032ff07003e
:1010a0004f05be004f04be00000006000202be0055
:1010b0008001eb000400370061f079008301e80053
:1010c00061025200e0825a00e00f5200e08f5a00a5
:1010d000f9ff3a00000006000202be008001eb00aa
:1010e0000400370001f079008301e800610252003a
:1010f000e0825a00e00f5200e08f5a00f9ff3a00f8
:10110000000006000c00fa00889fbe000004780072
:10111000f0ff2700d0bf9f008004eb0099bf9f0025
:1011200088bf9f00a8bf9f00200c2000b0bf9f0079
:1011300078815700cfb097007080570010000700eb
:101140000fb89700094878008fb8970008805000c2
:101150004f04be000080fa0000000600d00190009d
:10116000028151004240a9000300340010017800c0
:10117000014978000208e80001007800000006003c
:10118000fc874700889fbe008a9fbe008c9fbe00e0
:101190008e1f78008006780092b79f000007eb0052
:1011a000540337000101e800e2af9f0052c2b300d0
:1011b000824f500003003a000000eb000006eb00f5
:1011c00012003700bd0090000000fb000168a30082
:1011d000070032000e017800800078000d007800d2
:1011e000deff07000000e00005003a004003370082
:1011f0008d0078004a030700e10f40003c033200f5
:101200000e07e8003a0337000000e8000103e80099
:101210008003eb006102b80006014200e6417a005b
:10122000d4c2b30084cf51000c00320007003c0050
:101230006d42520084cf51000a0032006b424200de
:1012400084cf51000d003a000800370004c3b300fa
:1012500084cf510009003a00060037000c30a0008e
:10126000e9ff37000c00a000e7ff37000c10a000da
:10127000e5ff37000c20a000e3ff370002037800f1
:101280000c18a300010032000c00a1000c38a300d0
:10129000010032000c20a1000300fb000003b1009c
:1012a000e90f500011003e006000b8006a04b90068
:1012b000610ab80066407a000000fb000003b1003c
:1012c000080040000601e8006114b800080142006f
:1012d0008100e800e4417c008301fb000303b100ce
:1012e000e98f5100f1ff3600080037000000eb00e5
:1012f000a1c2b30081cf510004003a009fb1970012
:101300004300780093b79f000201e8000002eb0061
:10131000a4b79f00e1c2b30092cf10000d003a00c5
:101320000ce0a00082007800a3c2b300d1cf11006e
:10133000030032008000eb008001eb000900370061
:101340009fb297004503780095b79f00a6b79f000e
:101350000101e8008001eb00100037006a1bb900b2
:10136000860142000203e8008003eb00610ab80036
:101370000404430085844b0066427a008100e80043
:101380000402fb000403b100e90f5200f3ff360032
:10139000a3b79f0008017800eeff3700611ab8007c
:1013a000e2407a000203e80004034300e6af9f0036
:1013b000c4c6b30084cf5000250032000f003c00ab
:1013c00032c6b30082cf5000a100320004003c00be
:1013d0000104e000cb0232006b4151000f003700e6
:1013e00042c6b30082cf5000170032006541410071
:1013f00082cf5000b4003a001300370032c7b30068
:1014000082cf50002000320007003c0064415100b0
:1014100082cf5000150032000241e80082cf500018
:10142000a9003a001400370052c7b30082cf500021
:10143000ac0032006341410082cf5000a2003a006c
:1014400081df9f000e00370081df9f00a70037007b
:10145000010120000c48a300010032000100280017
:101460000c8670008301e800ccff370081df9f000d
:101470000c60a0009d00370081df9f000c50a00091
:101480000c70a0009900370081df9f009fb3970088
:10149000c700780097b79f00b1b79f000100e00038
:1014a00002003a0049842100b9b79f003fb197007c
:1014b0008000eb00010037008100e800e2c1780005
:1014c0000304e000fcff3a00c1b79f002fb597006e
:1014d0000a00e00005003200cfb597008b0f5500e1
:1014e000020031008a007800c1b79f00cfb097009a
:1014f0000004eb00810f5000010036000104500091
:10150000680666002b003a00110037003d0090008d
:101510000068a300070032000e01780001022000dd
:101520000d0078000dff07000000e00006003a0003
:10153000060037008d0078000002200078020700c6
:10154000e10f4000010032000e07e8000804e90046
:101550000800e000edff3a000084eb0015003700c2
:101560003d0090000068a3000900320008007800e8
:10157000b000fb00000478000e0178000d00780038
:10158000f6fe07000000e00008003a000f003700f8
:10159000880078003100fb00010478008d0078009d
:1015a0005f020700e10f4000080032000e07e8006c
:1015b00006003700acb79f00080678003fb49700dc
:1015c000cfb497005fb59700efb59700090078009a
:1015d0008004e9000000e000e1ff3a00b8b79f0096
:1015e000c9b79f00dab79f00ebb79f000c047800e3
:1015f0002fb697000c00e0003d02320011003700ca
:101600003d0090000068a300070032000e01780042
:10161000010220000d007800d0fe07000000e0006d
:1016200006003a00060037008d0078000002200016
:101630003b020700e10f4000010032000e07e80006
:101640000804e9000800e000edff3a002802370036
:101650009fb297004504780095b79f00cfc4de0085
:10166000614db9000802be000a03be004822de0038
:10167000c828dd000482700084df9f000c48a300ae
:10168000090032000404e00007003200e14f42008c
:101690000500320094df9f00a8df9f002200200099
:1016a000c2b79f000300370098df9f00130020009f
:1016b000c3b79f0084fd2f000f0242000402e80020
:1016c000b4b79f0081ff370081df9f0085fd2f00a9
:1016d00085824700b5b79f0016002000c6b79f005f
:1016e0007aff370081df9f000c0cb3008c0078007c
:1016f000010cb20032003a000c00e00005003d0091
:101700009fb097004105be004104be0091b79f0005
:10171000080037000c48a3000b0032001fb29700ee
:101720004401be0094b79f000204be004fcdde000e
:101730008a057800b8b79f00c9b79f00dab79f0045
:10174000ebb79f00090037009fb49700c9007800ed
:1017500099b79f00610ab900612bb900b4b79f0027
:10176000c5b79f00d6b79f00e7b79f003fb497006b
:10177000cfb497005fb59700efb59700e00f540026
:10178000e08f5c00e00f5d00e08f5d0022003d0017
:101790003c00b3006022b8006033b8000804520077
:1017a00089845a000a055b008b855b00b8b79f00ef
:1017b000c9b79f00dab79f00ebb79f00160037004c
:1017c0000c00e00004003d001fb497004803be0079
:1017d0004802be00050037000c48a3000500320097
:1017e0001fb497004802be006033b80098b79f004e
:1017f000050037009fb49700c900780099b79f0093
:10180000610ab8006033b800b4b79f00c5b79f0045
:10181000d6b79f00e7b79f00afb297000500e00082
:101820000d003a0016002000a6b79f003fb49700b5
:10183000cfb497005fb59700efb59700e00f540065
:10184000e08f5c00e00f5d00e08f5d000200320081
:101850008004eb00a9b79f000c0578000a0cb200c9
:101860008ab79f0001042000810f55003800320024
:1018700003003c000a00e000080032004c00370082
:10188000010820008fb59700818f550018003200a5
:10189000010c2000818f550045003a0011c0b300b3
:1018a0000001eb000201e8004312dd00c3842100c7
:1018b000830142003302be002303be003fb4970001
:1018c000cfb497005fb59700efb597000440e100f3
:1018d00005c8e10006d0e10007d8e1003300390077
:1018e0008140e800f4cf5000eeff3a002f003700af
:1018f00011c0b30004012000050020006033b800cf
:101900003fb49700cfb497005fb59700efb597004d
:101910000440e10005c8e10006d0e10007d8e1007d
:1019200022003900490020000402d0008582d20044
:101930000683d2008783d2008904e900faff3a00c7
:101940008140e800f0cf5000edff3a00170037006b
:1019500011c0b30084002000050020006033b800ef
:101960003fb49700cfb497005fb59700efb59700ed
:101970000440e10005c8e10006d0e10007d8e1001d
:101980000a003900390020000402d0008582d2000c
:101990000683d2008783d2008904e900faff3a0067
:1019a0008140e800f5cf5000edff3a0081df9f0055
:1019b0000fdd97008a00fb00afb597008b8f5000ba
:1019c00002003d008bdf9f00040037002fb197001d
:1019d000810f510001003d00a1b79f000000e00011
:1019e00003003200e3006600010032000000e9005d
:1019f0000ce8a30006003200afb19700830f50003f
:101a00000200340003005000010037000000eb002a
:101a10000fda97008400fb008002eb00f5af9f0017
:101a2000810f50000200340081005000f1af9f0090
:101a30000c28a3003c003200610166000c18a300d2
:101a40000f0032003d0090000068a3000600320045
:101a5000b10220000200e000010032008180e800b5
:101a60000e0178000d003700b00220000200e000f7
:101a7000010032000080e8008d0078000e00370081
:101a80000200e000100032003d0090000068a3005a
:101a9000070032000e017800010220000d007800de
:101aa000aefd07000000e00006003a000600370027
:101ab0008d0078000002200019010700e10f4000ae
:101ac000010032000e07e8007fab97000600e0003f
:101ad000ec003200060478003d0090000068a3008e
:101ae000070032000e017800010320000d0078008d
:101af0009afd07000000e00006003a0006003700eb
:101b00008d0078000003200005010700e10f400070
:101b1000010032000e07e8000804e900eeff3a0079
:101b2000f8af9f00d7003700ffab97000700e00039
:101b3000160032000c38a30014003a0007047800a5
:101b40003d0090000068a300070032000e017800fd
:101b5000010220000d00780080fd07000000e00079
:101b600006003a00060037008d00780000022000d1
:101b7000eb000700e10f4000010032000e07e80013
:101b80000804e900eeff3a00f8af9f00610166002b
:101b90000c18a3000e0032003d0090000068a30066
:101ba00006003200b10220000200e0000100320015
:101bb0008180e8000e017800a8003700b002200004
:101bc0000200e000aa0032000080e800a800370010
:101bd0000200e000ab0032003d0090000068a3006e
:101be000030032000e017800010220009b00370044
:101bf0008d007800000220009e0037002fb497006f
:101c00000804e900a8b79f00000420008fb49700e3
:101c1000808f54007900320003003c000900e0008e
:101c20000800320086003700000820000fb597003a
:101c3000800f55005c003200000c2000800f550022
:101c40007f003a00afb597006158b9000c00e00082
:101c500023003d004309dd00cd01de00830171005a
:101c60004301dd00c0842100020140003204be00b7
:101c70002205be000802be000a03be003fb0970066
:101c8000cfb097005fb19700efb19700e301070075
:101c900080df9f000000fb00cf80de006109b900fb
:101ca0000802be000a03be00450207003fb29700cb
:101cb000cfb297005fb39700efb3970000025200d6
:101cc00081825a0002035b0083835b00b4b79f00ec
:101cd000c5b79f00d6b79f00e7b79f002e0037001b
:101ce0000c48a3001f0032003fb29700cfb297000c
:101cf0004309dd00cd01de00830171004301dd00f9
:101d0000c0842100020140003204be002205be0052
:101d10000801be000400be00f4b79f0085bf9f000d
:101d20000f01070080df9f000000fb00cf80de0076
:101d30000801be001a0107007fb297008fba970012
:101d40000002520081825a000404be006055b800af
:101d5000b8b79f00c9b79f00dab79f00ebb79f00e5
:101d60000d0037004309dd00cd01de008301710065
:101d70004301dd00c084210060017900bfb49700f9
:101d8000110009008284d800a2002000110009007f
:101d90000280d80081df9f000fdd97000a43b0006a
:101da0008adf9f0026003700308321000c58a300f3
:101db0000100320020822100afb59700c258dd003b
:101dc0003fb29700cfb297005fb39700efb3970091
:101dd0008100e900050033008703d1000683d300aa
:101de0008582d3000482d300f9ff37006f026200be
:101df00060427a0084df9f00110037002fb1970006
:101e00006310b9003fb29700cfb297005fb397005d
:101e1000efb39700000478000804e90005003300e0
:101e20008703d1000683d3008582d3000482d300c8
:101e3000f9ff3700674062000043b00080df9f0079
:101e4000bd0090008fdc97000900fb000168a30033
:101e5000070032000e017800800078000d00780045
:101e6000befc07000000e00005003a000500370056
:101e70008d0078002a000700e10f400001003200c9
:101e80000e07e8002fb597000a00e0005bff3a005c
:101e90000c38a30016003200ffad97000b00e000e5
:101ea000130034000b0478003d0090000068a3008c
:101eb000070032000e017800010220000d007800ba
:101ec000a6fc07000000e00006003a00060037000c
:101ed0008d0078000002200011000700e10f400093
:101ee000010032000e07e8000804e900eeff3a00a6
:101ef000efa897001140780080df9f000004e00009
:101f0000a8fc3a000e0078004f0778004f06be008c
:101f10004f05be004f04be00cf01b1000000060017
:101f2000889fbe0001047800b80090008084eb0018
:101f30000118a3003d003200180190000198a30091
:101f400002003a000200e00038003a000190a000d0
:101f50003104980080047800f90fb2000200e0001c
:101f600002003a0028009000000c7800ea8f54002c
:101f700005003a000178a30003003a0088007800c9
:101f8000d0002000e6ff0700180090006102b900b1
:101f900058019000e8019000820f5200838f5a0090
:101fa0000b0032000000e8001004980018007800d0
:101fb00009487800000ce80011c0b30080af210090
:101fc00001487800ea8f540018003a0005003700f5
:101fd0008800780009407800170007008004780026
:101fe00012003700380090000088a3000f00320074
:101ff00018019000a800900048009000cbfa07005c
:1020000098009000810f50000400320038009000ca
:102010000003b300300498008084eb000000eb0064
:102020001004980028009000000c78000900780047
:102030004f04be00000006000200fa00889fbe00a8
:10204000a0ff9f0001047800380090008004780011
:102050000904b2003b003a00e200600005003a00cb
:102060000003b30030049800110498000080eb00d6
:102070003600370058019000e8019000e00f510051
:10208000e08f590007003a001200200003002000f2
:10209000e680570048009000a4fa07001904980051
:1020a00028003700a80090000100e0000b003a0073
:1020b000b1af210021049800010c7800220020001b
:1020c00003002000520498006304980021002000bf
:1020d000110498000030a00030049800180190000e
:1020e000cf91de00a8009000480090008ffa070012
:1020f000280090008080eb0011049800aff8970052
:1021000001487800000ce8002ff89700ea4f5000d3
:102110000c003a00380090000088a300090032004b
:1021200018019000cf91de00a800900048009000b8
:102130007efa07000000eb0010049800a800900051
:10214000010c7800aff897000100fb004f04be00bf
:102150000080fa000000060000c0da00000006005f
:102160006022b800060220000000d0008180d2006a
:102170000482d2008582d2000000a0000202520038
:1021800083825a00030031000202420083824a0027
:102190000000a1000603e900f3ff3a00000006007a
:1021a000020ab900001bb9000200b8008100420019
:1021b0008100430000000600889fbe008a9fbe0089
:1021c00030044200b0844a0030054b0090854b003b
:1021d0006000b1000898be000a90be000440e10013
:1021e00005c8e10006d0e10007d8e1000200310097
:1021f000680040001008e8004f05be004f04be0014
:1022000000000600889fbe008a9fbe003004be000a
:102210002005be000418540005985c0006185d00f7
:1022200007985d00110020000440e10005c8e100ae
:1022300006d0e10007d8e100010039008000eb0082
:10224000108810004f05be004f04be0000000600bd
:102250001200fa00889fbe008a9fbe008c9fbe00bd
:10226000e0b79f00f1b79f0082bf9f0093bf9f0020
:102270000605be000404be000000eb00d0b79f00be
:10228000c0b79f00b0b79f00a0b79f0090b79f0056
:102290000006eb005fb19700cfb0970082014100cc
:1022a0003fb097000200e00004003d003700070047
:1022b0007e805700c0ff070003003700330007008f
:1022c0007e805700cfff0700dfb697000d00e000cb
:1022d0000c0035006fb29700ffb297000fbb97005c
:1022e0009fbb970010002000010020006011b80083
:1022f0000002720081827200020373008383730004
:102300001b0007000c06e80001042000810f5600a6
:10231000e0ff3a000d00e00004003d000802be00ae
:102320000a03be007e805700a3ff07005fa8970046
:102330000000e00005003a001fb29700afb297001e
:102340003fb39700cfb39700090007006fb0970025
:10235000ffb097000fb997009fb997004f06be00d6
:102360004f05be004f04be000080fa0000000600ca
:102370000100070000000600a4b79f00b5b79f004a
:10238000c6b79f00d7b79f00000006004f09de00c8
:1023900082817100b3b79f004f01de008180400051
:1023a00082807000a1b79f008fb097004f09de00b8
:1023b000000040000200700090b79f007fa89700c7
:1023c0004f01de00818040008280700081b79f0055
:1023d0000d0007004f3ade000000400004007000ce
:1023e000f0af9f00080007000402420085824a0007
:1023f00006034b0087834b00dfff07000802be0087
:102400000a03be00000006002fb29700bfb297007b
:102410004fb39700dfb3970000000600881f7800d5
:1024200018002000881f780089ff07008f87e900c7
:102430004f04780000000600801feb0084ff0700b7
:102440008f87e90000000600889fbe008a9fbe00bb
:10245000e00f5000e08f5800e00f5900e08f590066
:102460000c003d006044b8006055b8000000540006
:1024700081805c0002015d0083815d001800200006
:102480001500070008003d00180007000004eb00dd
:10249000050037000004eb000f00070002003d00bc
:1024a0001200070018002000dcff07000800e00011
:1024b000060032006022b8006033b800000052000d
:1024c00081805a0002015b0083815b004f05be00e2
:1024d0004f04be0000000600e00f5200e08f5a00db
:1024e000e00f5b00e08f5b00000006006044b80076
:1024f0006055b8000402540085825c0006035d004c
:1025000087835d0000000600889fbe008a9fbe0092
:102510008c1f7800e00f5000e08f5800e00f59004a
:10252000e08f59000d003d006044b8006055b800d0
:102530000000540081805c0002015d0083815d0029
:102540001c0020000820e10009a8e1000ab0e10019
:102550000bb8e1000d003d00080037000006eb005d
:10256000e00f5200e08f5a00e00f5b00e08f5b004d
:1025700006003d006044b8006055b80004025400f5
:1025800085825c0006035d0087835d00aaff07006b
:102590000c00e000060032006022b8006033b80092
:1025a0000000520081805a0002015b0083815b00c1
:1025b0004f0678004f05be004f04be000000060025
:1025c000889fbe008a9fbe008c1f78000006eb002b
:1025d000e00f5000e08f5800e00f5900e08f5900e5
:1025e00007003d006044b8006055b800000054008a
:1025f00081805c0002015d0083815d001c00200081
:10260000e00f5200e08f5a00e00f5b00e08f5b00ac
:1026100007003d006044b8006055b8000402540053
:1026200085825c0006035d0087835d000c00a200cc
:102630000c0007000c00e000060032006022b80029
:102640006033b8000000520081805a0002015b0034
:1026500083815b004f0678004f05be004f04be002b
:1026600000000600889fbe008a9fbe008c9fbe00af
:102670000404b8000506b8008904460060854e00d1
:102680000606b8000a054600e0854e000706b800b9
:102690008b054600040eb800890446000a854e00ea
:1026a000e0854d00050eb8000a0546008b854e00fa
:1026b000060eb8008b0546000416b8000a05460051
:1026c0008b854e000516b8008b054600041eb80029
:1026d0008b0546000800be000a01be004f06be0082
:0c26e0004f05be004f04be0000000600c5
:020000040000fa
:1026ec0019e600002d1900004be600002d19000022
:1026fc0082e600002d190000b9e600002d1900003b
:10270c0019b400002d1900004bb400002d19000065
:10271c0082b400002d190000b9b400002d1900007e
:10272c00197d00002d1900004b7d00002d190000b3
:10273c00827d00002d190000b97d00002d190000cc
:10274c00194600002d1900004b4600002d19000001
:10275c00824600002d190000b94600002d1900001a
:10276c00281e000014190000461e00001419000059
:10277c000a1e0000141900003c3d0000202000003f
:10278c00202000002020000020200000202000003d
:10279c00202000002020000020200000202000002d
:1027ac00202000002020000020200000202000001d
:1027bc002020000020200000005400006573000061
:1027cc00745f00004f4b0000215f00005f000000b1
:1027dc0054650000737400005f46000061690000de
:1027ec006c21000000550000534200005f4c0000bb
:1027fc00696e0000655f00004368000065630000bf
:10280c006b6900006e6700002e2e00002e00000089
:10281c005553000042540000696d0000654f0000e4
:10282c00757400000055000053420000436f000017
:10283c006465000045720000720000000100000099
:10284c0000000000460000001e000000071b0000f6
:10285c00105f000041550000544f00005f20000045
:10286c005f4400004d4200005f5f0000205f0000ed
:10287c004d410000505f00005f2000005f440000ed
:10288c0045530000545f00000000000000000000f1
:10289c00000000002020000020200000202000006c
:1028ac00202000002020000020200000202000001c
:1028bc00202000002020000020200000202000000c
:1028cc00202000002020000020000000000000005c
:1028dc0000000000005f000052530000455f000044
:1028ec005f2000005f44000049410000475f00008a
:1028fc00205f0000532d0000555000005f200000a9
:10290c00462d000052530000545f000000000000f0
:10291c00000000000000000020200000202000002b
:10292c00202000002020000020200000202000009b
:10293c00202000002020000020200000202000008b
:10294c00202000002020000020200000200000009b
:10295c000000000000000000005500005044000082
:10296c004154000045200000535000004545000034
:10297c00445f000020520000657600006572000084
:10298c007320000052650000736f00006c7500002e
:10299c0000000000000000000000000020200000eb
:1029ac00202000002020000020200000202000001b
:1029bc00202000002020000020200000202000000b
:1029cc0020200000202000002020000020200000fb
:1029dc00200000000000000000000000005f00006c
:1029ec00484d0000495f00005f2000004745000093
:1029fc005354000055520000205f00004756000061
:102a0c00494600005f2000004f530000444f000077
:102a1c00464600000000000000000000000000001e
:102a2c00000000000000000000000000000000009a
:102a3c00000000000000000000000000000000008a
:102a4c00000000000000000000000000000000007a
:102a5c00000000000000000000000000000000006a
:102a6c00000000000000000000000000000000005a
:102a7c00000000000000000000000000000000004a
:102a8c00000000000000000000000000000000003a
:102a9c00000000000000000000000000000000002a
:102aac0000000000010000000000000046000000d3
:102abc001e000000071b0000104900006c6c000099
:102acc00756d00006920000054480000454d000061
:102adc00415f00002043000061700000747500002d
:102aec00722000005f450000575300005f5f00003c
:102afc00000000000000000000000000202000008a
:102b0c0020200000202000002020000020200000b9
:102b1c0020200000202000002020000020200000a9
:102b2c002020000020200000202000002020000099
:102b3c002000000000000000000000000045000024
:102b4c00787000006c6f0000722000004c6f000069
:102b5c006753000061760000205f000028330000fe
:102b6c00302900005f2000005f2800003331000096
:102b7c00295f0000000000000000000000000000c1
:102b8c002020000020200000202000002020000039
:102b9c002020000020200000202000002020000029
:102bac002020000020200000202000002020000019
:102bbc0020200000200000000000000000000000a9
:102bcc00005f000028330000322900005f20000065
:102bdc005f28000033330000295f0000205f0000f5
:102bec0028330000342900005f2000005f2800001b
:102bfc0033350000295f00000000000000000000d9
:102c0c0000000000202000002020000020200000f8
:102c1c0020200000202000002020000020200000a8
:102c2c002020000020200000202000002020000098
:102c3c0020200000202000002000000000000000e8
:102c4c0000000000005f000028330000362900005f
:102c5c005f2000005f28000033370000295f000070
:102c6c00205f0000494e0000464f00005f2000002e
:102c7c004f530000444f0000464600000000000087
:102c8c000000000000000000000000000000000038
:102c9c000000000000000000000000000000000028
:102cac000000000000000000000000000000000018
:102cbc000000000000000000000000000000000008
:102ccc0000000000000000000000000000000000f8
:102cdc0000000000000000000000000000000000e8
:102cec0000000000000000000000000000000000d8
:102cfc0000000000000000000000000000000000c8
:102d0c0000000000000000000000000002000000b5
:102d1c0000000000460000001e000000071b000021
:102d2c000f4f00004646000028300000292000000c
:102d3c005f3100006b6d00005f5f0000205f0000e2
:102d4c005f3200006b6d00005f2000005f5f0000d1
:102d5c00356b00006d5f00000000000000000000fb
:102d6c000000000020200000202000002020000097
:102d7c002020000020200000202000002020000047
:102d8c002020000020200000202000002020000037
:102d9c002020000020200000200000000000000087
:102dac0000000000005f00005f3700006b6d00004a
:102dbc005f2000005f310000306b00006d5f000091
:102dcc00205f0000313100006b6d00005f200000bf
:102ddc005f310000326b00006d5f000000000000ee
:102dec000000000000000000202000002020000057
:102dfc0020200000202000002020000020200000c7
:102e0c0020200000202000002020000020200000b6
:102e1c0020200000202000002020000020000000c6
:102e2c000000000000000000005f000031330000d3
:102e3c006b6d00005f2000005f320000306b000003
:102e4c006d5f0000205f0000363000006b6d0000ed
:102e5c005f20000031300000306b00006d5f00001f
:102e6c000000000000000000000000002020000016
:102e7c002020000020200000202000002020000046
:102e8c002020000020200000202000002020000036
:102e9c002020000020200000202000002020000026
:102eac00200000000000000000000000005f000097
:102ebc0031350000306b00006d2000003230000016
:102ecc00306b00006d5f00002032000035300000d8
:102edc006b6d00005f20000000000000000000008f
:102eec0000000000000000000000000000000000d6
:102efc0000000000000000000000000000000000c6
:102f0c0000000000000000000000000000000000b5
:102f1c0000000000000000000000000000000000a5
:102f2c000000000000000000000000000000000095
:102f3c000000000000000000000000000000000085
:102f4c000000000000000000000000000000000075
:102f5c000000000000000000000000000000000065
:102f6c000000000000000000000000000000000055
:102f7c0000000000020000000000000046000000fd
:102f8c001e000000071b00000441000063630000ea
:102f9c00333000007320000041630000635f0000c9
:102fac00316d000020410000636300005f320000bf
:102fbc006d20000041630000634f00006666000056
:102fcc0000000000000000000000000000000000f5
:102fdc0000000000000000000000000000000000e5
:102fec0000000000000000000000000000000000d5
:102ffc0000000000000000000000000000000000c5
:1031dc0000000000000000000000000002000000e1
:1031ec0000000000460000001e000000071b00004d
:1031fc0002520000455600005f4f00004e200000b8
:10320c0052450000564f00004646000000000000ea
:10321c0000000000000000000000000000000000a2
:10322c000000000000000000000000000000000092
:10323c000000000000000000000000000000000082
:10324c000000000000000000000000000000000072
:10344c000000000002000000000000004600000028
:10345c001e000000071b0000104e00004f52000021
:10346c004d4100004c2000005f4400004941000029
:10347c00475f000020470000562d0000525300000b
:10348c00542000005f4900004e490000545f0000ca
:10349c0000000000000000000000000020200000e0
:1034ac002020000020200000202000002020000010
:1034bc002020000020200000202000002020000000
:1034cc0020200000202000002020000020200000f0
:1034dc00200000000000000000000000005f000061
:1034ec00484100004c5400005f2000004d44000097
:1034fc002d52000043560000204d0000442d0000ca
:10350c0052500000542000004d4400002d44000097
:10351c00494700000000000000000000000000000f
:10352c00202000002020000020200000202000008f
:10353c00202000002020000020200000202000007f
:10354c00202000002020000020200000202000006f
:10355c0020200000200000000000000000000000ff
:10356c00005f00004d490000585f00005f20000024
:10357c005f5200004f4d00005f5f0000205f0000b5
:10358c00524100004d5f00005f2000005f4b0000c7
:10359c00455900005f5f00000000000000000000c3
:1035ac00000000002020000020200000202000004f
:1035bc0020200000202000002020000020200000ff
:1035cc0020200000202000002020000020200000ef
:1035dc00202000002020000020000000000000003f
:1035ec0000000000005f000050480000595f000020
:1035fc005f200000532d00004c4f00004f50000086
:10360c002047000056490000462d000043200000d2
:10361c005f55000041520000545f000000000000a4
:10362c00000000000000000000000000000000008e
:10363c00000000000000000000000000000000007e
:10364c00000000000000000000000000000000006e
:10365c00000000000000000000000000000000005e
:10366c00000000000000000000000000000000004e
:10367c00000000000000000000000000000000003e
:10368c00000000000000000000000000000000002e
:10369c00000000000000000000000000000000001e
:1036ac00000000000000000000000000020000000c
:1036bc0000000000460000001e000000071b000078
:1036cc0008470000305f00004f4e00005f200000f4
:1036dc00473000005f4f00004646000020470000c6
:1036ec00315f00004f4e00005f20000047310000aa
:1036fc005f4f000046460000000000000000000084
:10370c0000000000202000002020000020200000ed
:10371c00202000002020000020200000202000009d
:10372c00202000002020000020200000202000008d
:10373c0020200000202000002000000000000000dd
:10374c000000000000470000325f00004f4e0000f8
:10375c005f200000473200005f4f0000464600002b
:10376c0020470000335f00004f4e00005f20000038
:10377c00473300005f4f0000464600000000000089
:10378c00000000000000000000000000000000002d
:10379c00000000000000000000000000000000001d
:1037ac00000000000000000000000000000000000d
:1037bc0000000000000000000000000000000000fd
:1037cc0000000000000000000000000000000000ed
:1037dc0000000000000000000000000000000000dd
:1037ec0000000000000000000000000000000000cd
:1037fc0000000000000000000000000000000000bd
:10380c0000000000000000000000000000000000ac
:10381c00000000000000000000000000000000009c
:10382c00000000000000000000000000000000008c
:10383c00000000000000000000000000000000007c
:10384c00000000000000000000000000000000006c
:10385c00000000000000000000000000000000005c
:10386c00000000000000000000000000000000004c
:10387c00000000000000000000000000000000003c
:10388c00000000000000000000000000000000002c
:10389c00000000000000000000000000000000001c
:1038ac00000000000000000000000000000000000c
:1038bc0000000000000000000000000000000000fc
:1038cc0000000000000000000000000000000000ec
:1038dc0000000000000000000000000000000000dc
:1038ec0000000000000000000000000000000000cc
:1038fc0000000000000000000000000000000000bc
:10390c0000000000000000000000000000000000ab
:10391c000000000002000000000000004600000053
:10392c001e000000071b0000025f00004441000065
:10393c00595f00005f2000004e490000474800001e
:10394c00545f0000000000000000000000000000b8
:10395c00000000000000000000000000000000005b
:10396c00000000000000000000000000200000002b
:10397c00000000000000000000000000000000003b
:10398c00000000000000000000000000000000002b
:10399c00000000000000000000000000000000001b
:1039ac00000000000000000000000000000000000b
:1039bc0000000000000000000000000000000000fb
:1039cc0000000000000000000000000000000000eb
:1039dc0000000000000000000000000000000000db
:1039ec0000000000000000000000000000000000cb
:1039fc0000000000000000000000000000000000bb
:103a0c0000000000000000000000000000000000aa
:103a1c00000000000000000000000000000000009a
:103a2c00000000000000000000000000000000008a
:103a3c00000000000000000000000000000000007a
:103a4c00000000000000000000000000000000006a
:103a5c00000000000000000000000000000000005a
:103a6c00000000000000000000000000000000004a
:103a7c00000000000000000000000000000000003a
:103a8c00000000000000000000000000000000002a
:103a9c00000000000000000000000000000000001a
:103aac00000000000000000000000000000000000a
:103abc0000000000000000000000000000000000fa
:103acc0000000000000000000000000000000000ea
:103adc0000000000000000000000000000000000da
:103aec0000000000000000000000000000000000ca
:103afc0000000000000000000000000000000000ba
:103b0c0000000000000000000000000000000000a9
:103b1c000000000000000000000000000000000099
:103b2c000000000000000000000000000000000089
:103b3c000000000000000000000000000000000079
:103b4c000000000000000000000000000000000069
:103b5c000000000000000000000000000000000059
:103b6c000000000000000000000000000000000049
:103b7c000000000000000000000000000200000037
:103b8c0000000000460000001e000000071b0000a3
:103b9c00044300004f4c00004f5200003120000045
:103bac00434f00004c4f00005232000020430000f5
:103bbc004f4c00004f52000033200000434f0000d8
:103bcc004c4f0000523400000000000000000000c8
:103bdc0000000000200000000000000000000000b9
:103bec0000000000000000000000000000000000c9
:103bfc0000000000000000000000000000000000b9
:103c0c0000000000000000000000000000000000a8
:103c1c000000000000000000000000000000000098
:103c2c000000000000000000000000000000000088
:103c3c000000000000000000000000000000000078
:103c4c000000000000000000000000000000000068
:103c5c000000000000000000000000000000000058
:103c6c000000000000000000000000000000000048
:103c7c000000000000000000000000000000000038
:103c8c000000000000000000000000000000000028
:103c9c000000000000000000000000000000000018
:103cac000000000000000000000000000000000008
:103cbc0000000000000000000000000000000000f8
:103ccc0000000000000000000000000000000000e8
:103cdc0000000000000000000000000000000000d8
:103cec0000000000000000000000000000000000c8
:103cfc0000000000000000000000000000000000b8
:103d0c0000000000000000000000000000000000a7
:103d1c000000000000000000000000000000000097
:103d2c000000000000000000000000000000000087
:103d3c000000000000000000000000000000000077
:103d4c000000000000000000000000000000000067
:103d5c000000000000000000000000000000000057
:103d6c000000000000000000000000000000000047
:103d7c000000000000000000000000000000000037
:103d8c000000000000000000000000000000000027
:103d9c000000000000000000000000000000000017
:103dac000000000000000000000000000000000007
:103dbc0000000000000000000000000000000000f7
:103dcc0000000000000000000000000000000000e7
:103ddc0000000000000000000000000000000000d7
:103dec00000000000200000000000000460000007f
:103dfc001e000000071b0000025f00004d45000084
:103e0c00555f00005f20000045580000544500003d
:103e1c00524e0000000000000000000000000000f6
:103e2c000000000000000000000000000000000086
:103e3c000000000000000000000000002000000056
:103e4c000000000000000000000000000000000066
:103e5c000000000000000000000000000000000056
:103e6c000000000000000000000000000000000046
:103e7c000000000000000000000000000000000036
:103e8c000000000000000000000000000000000026
:103e9c000000000000000000000000000000000016
:103eac000000000000000000000000000000000006
:103ebc0000000000000000000000000000000000f6
:103ecc0000000000000000000000000000000000e6
:103edc0000000000000000000000000000000000d6
:103eec0000000000000000000000000000000000c6
:103efc0000000000000000000000000000000000b6
:103f0c0000000000000000000000000000000000a5
:103f1c000000000000000000000000000000000095
:103f2c000000000000000000000000000000000085
:103f3c000000000000000000000000000000000075
:103f4c000000000000000000000000000000000065
:103f5c000000000000000000000000000000000055
:103f6c000000000000000000000000000000000045
:103f7c000000000000000000000000000000000035
:103f8c000000000000000000000000000000000025
:103f9c000000000000000000000000000000000015
:103fac000000000000000000000000000000000005
:103fbc0000000000000000000000000000000000f5
:103fcc0000000000000000000000000000000000e5
:103fdc0000000000000000000000000000000000d5
:103fec0000000000000000000000000000000000c5
:103ffc0000000000000000000000000000000000b5
:10400c0000000000000000000000000000000000a4
:10401c000000000000000000000000000000000094
:10402c000000000000000000000000000000000084
:10403c000000000000000000000000000000000074
:10404c000000000000000000000000000200000062
:10405c0000000000460000001e000000071b0000ce
:10406c00025f00005f4c0000325f00005f20000028
:10407c005f5f0000543200005f5f00000000000032
:10408c000000000000000000000000000000000024
:10409c000000000000000000000000000000000014
:1040ac000000000000000000000000000000000004
:1040bc0000000000000000000000000000000000f4
:1042bc0000000000020000000000000046000000aa
:1042cc001e000000071b0000025f000046550000a6
:1042dc004c4c00005f2000004d4100005354000086
:1042ec00455200000000000000000000000000002b
:1042fc0000000000000000000000000000000000b2
:10430c0000000000000000000000000000000000a1
:10431c000000000000000000000000000000000091
:10432c000000000000000000000000000000000081
:10451c00000000000000000000000000020000008d
:10452c0000000000460000001e000000071b0000f9
:10453c00102000002020000020200000202000007f
:10454c005f5f0000555000005f5f000020200000fe
:10455c002020000020200000202000005f420000ee
:10456c00414300004b5f0000000000000000000011
:10457c00000000002020000020200000202000006f
:10458c00202000002020000020200000202000001f
:10459c00202000002020000020200000202000000f
:1045ac00202000002020000020000000000000005f
:1045bc0000000000005f00004c4500004654000065
:1045cc005f200000202000002020000020200000a0
:1045dc002052000049470000485400005f200000b2
:1045ec0020200000202000002020000000000000ff
:1045fc00000000000000000020200000202000002f
:10460c00202000002020000020200000202000009e
:10461c00202000002020000020200000202000008e
:10462c00202000002020000020200000200000009e
:10463c00000000000000000000200000202000000e
:10464c0020200000202000005f4400004f57000095
:10465c004e5f0000202000002020000020200000e1
:10466c00202000002020000020200000202000003e
:10467c0000000000000000000000000020200000ee
:10468c00202000002020000020200000202000001e
:10469c00202000002020000020200000202000000e
:1046ac0020200000202000002020000020200000fe
:1046bc00200000000000000000000000005f00006f
:1046cc00462d0000555000005f200000462d0000d4
:1046dc00444f0000574e0000205f0000502d00009a
:1046ec00494e00005f200000502d00004f55000087
:1046fc00545f0000000000000000000000000000fb
:10470c00000000000000000000000000000000009d
:10471c00000000000000000000000000000000008d
:10472c00000000000000000000000000000000007d
:10473c00000000000000000000000000000000006d
:10474c00000000000000000000000000000000005d
:10475c00000000000000000000000000000000004d
:10476c00000000000000000000000000000000003d
:10477c00000000000000000000000000000000002d
:10478c0000000000020000000000000046000000d5
:10479c001e000000071b00000253000055500000d3
:1047ac005f4f00004e20000053550000504f00009a
:1047bc004646000000000000000000000000000061
:1047cc0000000000000000000000000000000000dd
:1047dc0000000000000000000000000000000000cd
:1047ec0000000000000000000000000000000000bd
:1047fc0000000000000000000000000000000000ad
:1049ec0000000000000000000000000002000000b9
:1049fc0000000000460000001e000000071b000025
:104a0c000152000045530000455400005f000000b7
:104a1c00000000000000000000000000000000008a
:104a2c00000000000000000000000000000000007a
:104a3c00000000000000000000000000000000006a
:104a4c00000000000000000000000000000000005a
:104c5c000000000002000000000000004600000000
:104c6c001e000000071b00000000000000000000f8
:104c7c000000000000000000000000000000000028
:104c8c000000000000000000000000000000000018
:104c9c000000000000000000000000000000000008
:104cac0000000000000000000000000000000000f8
:104ebc0000000000000000000000000002000000e4
:104ecc0000000000460000001e000000071b000050
:104edc0000000000000000000000000000000000c6
:104eec0000000000000000000000000000000000b6
:104efc0000000000000000000000000000000000a6
:104f0c000000000000000000000000000000000095
:10512c00000000000200000000000000460000002b
:10513c001e000000071b00000020000020200000c3
:10514c002020000020200000202000002020000053
:10515c002020000020200000202000002020000043
:10516c002020000020200000202000002020000033
:10517c0000000000000000000000000020200000e3
:10518c002020000020200000202000002020000013
:10519c002020000020200000202000002020000003
:1051ac0020200000202000002020000020200000f3
:1051bc0020000000000000000000000000200000a3
:1051cc0020200000202000002020000020200000d3
:1051dc0020200000202000002020000020200000c3
:1051ec0020200000202000002020000020200000b3
:1051fc002020000000000000000000000000000063
:10520c002020000020200000202000002020000092
:10521c002020000020200000202000002020000082
:10522c002020000020200000202000002020000072
:10523c002020000020000000000000000000000002
:10524c000020000020200000202000002020000072
:10525c002020000020200000202000002020000042
:10526c002020000020200000202000002020000032
:10527c0020200000202000000000000000000000a2
:10528c000000000020200000202000002020000052
:10529c002020000020200000202000002020000002
:1052ac0020200000202000002020000020200000f2
:1052bc002020000020200000200000000000000042
:1052cc000000000000200000202000002020000032
:1052dc0020200000202000002020000020200000c2
:1052ec0020200000202000002020000020200000b2
:1052fc0020200000202000002020000000000000e2
:10530c000000000000000000000000000000000091
:10531c000000000000000000000000000000000081
:10532c000000000000000000000000000000000071
:10533c000000000000000000000000000000000061
:10534c000000000000000000000000000000000051
:10535c000000000000000000000000000000000041
:10536c000000000000000000000000000000000031
:10537c000000000000000000000000000000000021
:10538c00000000000000000000000000040000000d
:10539c00c80000001e000000ae010000012100004a
:1053ac000020000020200000202000002020000011
:1053bc0020200000202000002020000020200000e1
:1053cc0020200000202000002020000020200000d1
:1053dc0020200000202000002020000020200000c1
:1053ec002020000000000000000000000000000071
:1053fc0000000000000000000000000000000000a1
:10540c000000000000000000000000000000000090
:10541c000000000000000000000000000000000080
:10542c000000000000000000000000000000000070
:10543c000000000000000000000000000000000060
:10544c000000000000000000000000000000000050
:10545c000000000000000000000000000000000040
:10546c000000000000000000000000000000000030
:10547c000000000000000000000000000000000020
:10548c000000000000000000000000000000000010
:10549c000000000000000000000000000000000000
:1054ac0000000000000000000000000000000000f0
:1054bc0000000000000000000000000000000000e0
:1054cc0000000000000000000000000000000000d0
:1054dc0000000000000000000000000000000000c0
:1054ec0000000000000000000000000000000000b0
:1054fc0000000000000000000000000000000000a0
:10550c00000000000000000000000000000000008f
:10551c00000000000000000000000000000000007f
:10552c00000000000000000000000000000000006f
:10553c00000000000000000000000000000000005f
:10554c00000000000000000000000000000000004f
:10555c00000000000000000000000000000000003f
:10556c00000000000000000000000000000000002f
:10557c00000000000000000000000000000000001f
:10558c00000000000000000000000000000000000f
:10559c0000000000000000000000000000000000ff
:1055ac0000000000000000000000000000000000ef
:1055bc0000000000000000000000000000000000df
:1055cc0000000000000000000000000000000000cf
:1055dc0000000000000000000000000000000000bf
:1055ec0000000000000000000000000000000000af
:1055fc00000000005374000061720000745f000032
:10560c00555000005f4f000046460000005300005c
:10561c0074610000727400005f550000505f000060
:10562c004f4e0000004300006f6d0000706f0000d3
:10563c007369000074650000004400006967000095
:10564c0069740000616c00005f5f0000383000007e
:10565c00307800003438000030000000446900004d
:10566c0067690000746100006c5f0000313200005b
:10567c00383000007834000038300000002500007d
:10568c00645f00006b6d0000005200006576000046
:10569c0065720000736500005f67000065610000c3
:1056ac00725f00004f46000046000000526500008b
:1056bc007665000072730000655f0000676500008e
:1056cc00617200005f4f00004e0000003d30000092
:1056dc007825000030320000585f00003078000060
:1056ec0025300000325800005f28000025330000f0
:1056fc00642900000044000069610000675f00003d
:10570c003078000025300000327800005f77000010
:10571c0061690000745f000047700000696f000051
:10572c003000000044690000616700005f2d00003c
:10573c002d2d00002d3a00005f2d00002d2d0000b6
:10574c002d00000044690000616700005f3000001c
:10575c007825000030320000783a00005f300000fd
:10576c00782500003032000078000000583a000024
:10577c002533000064200000593a00002533000056
:10578c006420000020440000697200003a250000eb
:10579c006400000020380000303000007834000035
:1057ac00383000002000000031320000383000009a
:1057bc00783400003830000020000000302e00004b
:1057cc003830000000760000257300000031000026
:1057dc0037430000595f00004d450000555f000045
:1057ec0041750000746f00005f7400006573000069
:1057fc00746900006e6700002e2e00002e2e000033
:10580c00002000002020000020200000203c000090
:10581c005f4900006e6600006f7200006d61000051
:10582c00746900006f6e00005f3e0000005f0000b6
:10583c005f5f00004a490000475f00005f5f0000a7
:10584c005f3a000020250000730000005261000048
:10585c00737000006265000072720000795f0000d6
:10586c003a2000004e6f00006e65000000520000f0
:10587c0061730000706200006572000072790000b4
:10588c005f3a000020250000642e00002564000013
:10589c0000000000ff0000000240000004000000b7
:1058ac000603000007020000080b000009fc0000c2
:1058bc000a1000000bd000000cdc00000d150000dd
:1058cc00100000001161000012710000139e000016
:1058dc00149e00001500000017330000184400004f
:1058ec001c0f00001d7f00001e0800001f000000a0
:1058fc00205000002142000022f0000023d80000bc
:10590c0024bc000025b8000026440000272a000013
:10591c0028000000291500002a7800002b44000004
:10592c002c3000002d1400002ea500002fe00000ec
:10593c0033850000341a0000350000003888000060
:10594c004000000041200000420400004320000001
:10595c004408000045540000462000004920000087
:10596c004700000048cf00004d3000004a130000f3
:10597c004b1300004c0000004e6600004f18000056
:10598c005001000060e3000061800000627a0000ba
:10599c006300000064000000650000006600000069
:1059ac006700000068000000690000006a00000049
:1059bc006b0000006c0000006d0000006e00000029
:1059cc007020000071800000728000007380000065
:1059dc007480000075800000768000007730000035
:1059ec00783b00007c1c00007d0800007ef6000067
:1059fc007f08000080100000810d00008203000071
:105a0c00830000008467000085940000860000007d
:105a1c0087ff000088ca0000890200008a0a000083
:105a2c008b040000b0500000b1040000b2e700008d
:105a3c00b30a0000b43b0000b5200000b6330000f0
:105a4c00b7ff0000b80a0000b9300000bae000004f
:105a5c00bb120000bc000000bd110000bec2000063
:105a6c00bf000000c0000000c1000000c200000028
:105a7c00c3000000c4510000c5000000c6000000b7
:105a8c00c8000000c9050000ca050000d2ff0000d4
:105a9c00d3070000d4000000d53f0000d600000062
:105aac00d7000000d8000000daff0000dbff000088
:105abc00dcff0000ddf60000de000000df0000006f
:105acc00e0000000f0000000f61f0000f71f0000cf
:105adc00f89f0000f9010000fa390000fb000000fb
:105aec00fc400000fd300000fe510000ff010000f2
:105afc0030e0000031ad00003204000033800000c3
:105b0c003484000035000000362000004000000006
:105b1c004100000076000000775a00007800000079
:105b2c00797f00007a0100007b00000080000000fb
:105b3c008100000082050000830800008440000002
:105b4c00850000008a0200008b4d00008c000000d4
:105b5c008d0700008e0100008fe200009002000013
:105b6c0091d000009202000093d00000940000003d
:105b7c00950600009a0000009bc800009c000000e5
:105b8c009d010000a0000000a1000000a202000086
:105b9c00a3300000a4000000a5060000a600000031
:105bac00a7010000ad010000ae000000af36000000
:105bbc00b0000000b1030000b2880000b300000088
:105bcc00c0010000c1070000c2010000c3030000b7
:105bdc00c45a0000c5000000c6200000c704000025
:105bec00c8000000c9060000ca060000cbb00000c7
:105bfc00cc000000cd000000d0000000d1f000006f
:105c0c00d2f00000d3f00000d4030000d500000057
:105c1c00d6100000d7700000d8000000d904000096
:105c2c00da800000db000000ff00000002400000f2
:105c3c0004000000060f0000070200000815000019
:105c4c0009f000000a0900000bd000000cdc000079
:105c5c000d15000010000000116100001271000011
:105c6c00139e0000149e0000150000001733000066
:105c7c00184400001a3000001c0f00001d7f0000ab
:105c8c001e0800001f0000002050000021420000f0
:105c9c0022f0000023d8000024bc000025b800002e
:105cac0026440000272a00002800000029150000c7
:105cbc002a7800002b4400002c3000002d1400002a
:105ccc002ea500002fe0000033850000341a0000e0
:105cdc0035700000388e0000402e0000410400009a
:105cec004204000043200000440d00004554000015
:105cfc004620000047d3000048e80000495000004f
:105d0c004a0d00004bc800004cf400004d10000080
:105d1c004e6600004f180000500100005b70000040
:105d2c005c20000063050000600000006180000042
:105d3c006200000064000000658000006600000046
:105d4c006700000068000000690000006a000000a5
:105d5c006b0000006c0000006d0000006e00000085
:105d6c0070200000718000007280000073800000c1
:105d7c007480000075800000768000007730000091
:105d8c00783b0000784f00007c3c00007d08000050
:105d9c007ef600007f08000080100000810d0000de
:105dac0082030000830000008467000085940000db
:105dbc008600000087ff000088ca000089020000ee
:105dcc008a0a00008b040000b0590000b1040000e6
:105ddc00b27e0000b3000000b4060000b520000045
:105dec00b6b40000b7ee0000b8070000b919000007
:105dfc00bae00000bb120000bc000000bd010000b6
:105e0c00bec30000bf000000c0000000c1000000c5
:105e1c00c2000000c3000000c4510000c600000016
:105e2c00c7000000c8000000c9800000ca080000bc
:105e3c00d2ff0000d3070000d4000000d53f0000c3
:105e4c00d6000000d7000000d8000000daff0000e8
:105e5c00dbff0000dcff0000dd760000de00000050
:105e6c00df000000e0000000f0000000f400000083
:105e7c00f61f0000f71f0000f89f0000f90100005a
:105e8c00fa5c0000fb000000fc400000fd3000004c
:105e9c00fe510000ff01000030e0000031ad0000b9
:105eac003204000033800000348400003500000010
:105ebc00362000004000000041000000438000003c
:105ecc0057800000580400005900000076000000c4
:105edc00775a000078000000797f00007a010000fa
:105eec007b000000800000008100000082050000a3
:105efc008308000084400000850000008a02000036
:105f0c008b4d00008c0000008d0700008e010000fe
:105f1c008fe200009002000091d00000920200007d
:105f2c0093d0000094000000950600009a00000039
:105f3c009bc800009c0000009d010000a000000018
:105f4c00a1000000a2020000a3300000a400000089
:105f5c00a5060000a6000000a7010000ac08000088
:105f6c00ad010000ae000000af360000b000000034
:105f7c00b1030000b2880000b3000000c0010000b3
:105f8c00c1070000c2010000c3030000c45a000096
:105f9c00c5000000c6200000c7040000c8000000b7
:105fac00c9060000ca060000cbb00000cc000000ff
:105fbc00cd000000d0000000d1f00000d2f00000b5
:105fcc00d3f00000d4030000d5000000d610000070
:105fdc00d7700000d8000000d9040000da8000005f
:105fec00db000000dc000000e0000000f7ff000018
:105ffc00ff0000000240000004000000060f00003b
:10600c00070200000815000009f000000a09000052
:10601c000bd000000cdc00000d150000100000007f
:10602c001161000012710000139e0000149e00000c
:10603c001500000017330000184400001a3000004f
:10604c001c0f00001d7f00001e0800001f00000038
:10605c00205000002142000022f0000023d8000054
:10606c0024bc000025b8000026440000272a0000ac
:10607c0028000000291500002a7800002b4400009d
:10608c002c3000002d1400002ea500002fe0000085
:10609c0033850000341a000035700000388e000083
:1060ac00402e000041040000420400004320000088
:1060bc00440d0000455400004620000047680000d5
:1060cc0048080000497100004a0000004b00000025
:1060dc004cf400004d1000004e6600004f180000fc
:1060ec00500100005b7000005c20000063050000a4
:1060fc006000000061cd0000620000006400000040
:10610c006580000066000000670000006800000069
:10611c00690000006a0000006b0000006c000000c9
:10612c006d0000006e000000702000007180000007
:10613c007280000073800000748000007580000085
:10614c007680000077300000783b0000784f00002c
:10615c007c3c00007d0800007ef600007f080000fb
:10616c0080100000810d00008203000083000000fd
:10617c0084670000859400008600000087ff000003
:10618c0088ca0000890200008a0a00008b04000003
:10619c00b0590000b1040000b2ca0000b300000006
:1061ac00b4060000b5000000b6d60000b70d000024
:1061bc00b8120000b9010000bae00000bb120000e8
:1061cc00bc000000bd160000bec30000bf000000f4
:1061dc00c0000000c1000000c2000000c3000000ad
:1061ec00c4510000c6000000c7000000c800000039
:1061fc00c9800000ca080000d2ff0000d3070000cd
:10620c00d4000000d53f0000d6000000d7000000ed
:10621c00d8000000daff0000dbff0000dcff00000c
:10622c00dd760000de000000df000000e000000072
:10623c00f0000000f4000000f61f0000f71f000043
:10624c00f89f0000f9020000fa080000fb5b000058
:10625c00fc400000fd300000fe510000ff0100007a
:10626c0030e0000031ad000032040000338000004b
:10627c00348400003500000036200000400000008f
:10628c0041000000438000005780000058040000cb
:10629c005900000076000000775a000078000000da
:1062ac00797f00007a0100007b0000008000000074
:1062bc00810000008205000083080000844000007b
:1062cc00850000008a0200008b4d00008c0000004d
:1062dc008d0700008e0100008fe20000900200008c
:1062ec0091d000009202000093d0000094000000b6
:1062fc00950600009a0000009bc800009c0000005e
:10630c009d010000a0000000a1000000a2020000fe
:10631c00a3300000a4000000a5060000a6000000a9
:10632c00a7010000ac080000ad010000ae000000a9
:10633c00af360000b0000000b1030000b2880000ce
:10634c00b3000000c0010000c1070000c201000042
:10635c00c3030000c45a0000c5000000c6200000a2
:10636c00c7040000c8000000c9060000ca060000ef
:10637c00cbb00000cc000000cd000000d00000002d
:10638c00d1f00000d2f00000d3f00000d4030000e4
:10639c00d5000000d6100000d7700000d800000017
:1063ac00d9040000da800000db000000dc000000f3
:1063bc00e0000000f7ff0000ff0000009500000067
:1063cc009720000098020000991400009af3000036
:1063dc009b3300009c9000009d020000a240000036
:1063ec00a4010000a704000053c4000054cf000017
:1063fc0058100000590100005a04000060d0000041
:10640c006500000066000000670f000096000000a9
:10641c009700000098000000990000009a0000000e
:10642c009b000000a0130000a1000000a3000000ce
:10643c00c4000000c7c00000c84d0000ca04000022
:10644c00ccf70000d0000000d1050000d203000002
:10645c00d4000000d5000000d6770000849800001e
:10646c0085040000862000008703000088d8000007
:10647c0089a000008a8000008b2300008ce00000c3
:10648c008d0100008001000084d000008506000012
:10649c00860000008705000088ff00008967000067
:1064ac008a8000008b2a00008ce000008d01000027
:0464bc00800100005b
:020000040000fa
:1064c0000200fa00e86d020000000000004f7800b2
:1064d00000192100104078009e4f50000c0032003f
:1064e000001921001e487800001921001040780092
:1064f000b86d020000000000001921001040780073
:10650000e14f500002003a002a040700840307000c
:10651000e0d1200010407800ea4f5000080036001b
:10652000e0d120008040eb000148780010192100e4
:10653000104078008040e8001019210001487800e0
:106540000019210010407800e14f500013003a007c
:106550001019210010407800e14f5000070036006c
:10656000101921008040eb00014878000d00070061
:10657000f1d120008048780008003700f0d12000d9
:1065800010407800e14f500004003a00f0d12000a4
:106590008040eb0001487800810107000080fa008c
:1065a000000006000800fa000040eb0020479800b9
:1065b0000040eb0030479800206b2100104078002d
:1065c0008080fb00d08b8000808f5000c60032009e
:1065d000d08b800080407800206b2100014878003b
:1065e000f0012000200798000000eb00000f780069
:1065f00012003700d68b80001e0078008000eb0070
:106600006609b900020178006002b90084017800cf
:1066100003014100630020000300b80001014100b4
:1066200082007800825f21000200400010007800a4
:10663000800f5300060032001e0fe8002e0090006d
:106640009e007800808f5000eaff3900010037007b
:10665000000000001e0078008000eb006609b90011
:10666000020178006002b900840178000301410052
:10667000630020000300b80001014100820078009f
:10668000825f21000200400090007800000220009c
:10669000808f5000020036000000eb00000f7800f1
:1066a0001e0078008000eb006609b9000201780046
:1066b0006002b900840178000301410063002000fa
:1066c0000300b80001014100820078006200400030
:1066d000e0804800825f2100020040001000780046
:1066e00042132000030020008000780000d2200028
:1066f00056080200000000001e0078008000eb0039
:106700006609b900020178006002b90084017800ce
:1067100003014100630020000300b80001014100b3
:106720008200780064004000e0804800825f210021
:106730000200400010007800614060000080fb0013
:10674000610060004800dd00228c8000f1ef2f0026
:106750008100610001007000208c88001e0078001c
:106760008000eb006609b900020178006002b90000
:106770008401780003014100630020000300b80099
:10678000010141008200780064004000e080480080
:10679000825f210002004000100078000000d1005c
:1067a000614060000080fb00610060004900dd0086
:1067b000228c8000f1df2f00810061000100700059
:1067c000208c88001e0078008000eb006609b9006c
:1067d000020178006002b9008401780003014100e1
:1067e000630020000300b80001014100820078002e
:1067f00064004000e0804800825f21000200400009
:10680000100078004200de00614060000080fb0064
:10681000610060004a00dd00228c8000f1bf2f0083
:106820008100610001007000208c88001e0078004b
:106830008000eb006609b900020178006002b9002f
:106840008401780003014100630020000300b800c8
:10685000010141008200780064004000e0804800af
:10686000825f210002004000100078004300de003b
:10687000614060000080fb00610060004b00dd00b3
:10688000228c8000f17f2f008100610001007000e8
:10689000208c88001e0078008000eb006609b9009b
:1068a000020178006002b900840178000301410010
:1068b000630020000300b80001014100820078005d
:1068c00062004000e0804800825f2100020040003a
:1068d00010007800a048900030182100014878008e
:1068e00010c0b30030479800601821009040780035
:1068f000a01821001040780080cf500003003a001b
:106900003e409000e14f500045003a0060182100e1
:1069100090407800a018210001487800d08b8000ba
:10692000fd0f500006003200d08b8000fe0f50009b
:1069300003003200d08b8000ff0f500038003a0077
:106940000000eb00000f780030003700c60b21007c
:106950001e0078008000eb007b09b900020178007e
:106960006002b9008401780003014100b3012000f6
:106970000300b800010141008200780000004300dc
:106980000000e000200032001e0078008000eb00d4
:106990007b09b900020178006002b9008401780027
:1069a00003014100b30120000300b80001014100d0
:1069b00082007800c20b2100020340001e00780014
:1069c0008000eb00120220000289b9000201780069
:1069d0006002b90084017800030141001302200025
:1069e0000300b8000101410082007800b2d220000b
:1069f00002004000b2012000030020008600780061
:106a000056080200000000001e0fe8001e0078007b
:106a1000e60f5000cdff360010c0b300304798009d
:106a20008d000700e14f500002003a0010c0b30093
:106a3000304798005018210090407800306b2100ba
